:020000040800F2
:1000000000000220813700087116000873160008EE
:100010007516000877160008791600080000000021
:100020000000000000000000000000007B16000837
:100030007D160008000000007F16000881160008E9
:10004000D1370008D1370008D1370008D137000870
:10005000D1370008D1370008D1370008D137000860
:10006000D1370008D1370008D1370008D137000850
:10007000D1370008D1370008D1370008D137000840
:10008000D1370008D1370008D1370008D137000830
:10009000D1370008D1370008D1370008D137000820
:1000A000D1370008D1370008D1370008D137000810
:1000B000D1370008D1370008D1370008D137000800
:1000C000D1370008D1370008D1370008D1370008F0
:1000D000D137000889160008D1370008D137000849
:1000E000D1370008D1370008D1370008D1370008D0
:1000F000D1370008D1370008D1370008D1370008C0
:10010000D1370008D1370008EDC60008D137000804
:10011000D1370008D1370008D1370008D13700089F
:10012000D1370008D137000899160008D1370008E8
:10013000D13700080000000000000000D13700089F
:10014000D1370008D1370008D1370008D13700086F
:10015000D1370008D1370008A9160008D1370008A8
:10016000D1370008D1370008D1370008D13700084F
:10017000D1370008D1370008D1370008000000004F
:1001800000000000D137000800000000000000005F
:10019000D13700080000000000000000D13700083F
:1001A000000000000000000000000000D13700083F
:1001B000D1370008D1370008D1370008D1370008FF
:0401C000D13700082B
:1001D00081F0004102E000BF83F0004330B54FEAF8
:1001E00041044FEA430594EA050F08BF90EA020F65
:1001F0001FBF54EA000C55EA020C7FEA645C7FEAF8
:10020000655C00F0E2804FEA5454D4EB5555B8BF1A
:100210006D420CDD2C4480EA020281EA030382EA8B
:10022000000083EA010180EA020281EA0303362D1D
:1002300088BF30BD11F0004F4FEA01314FF4801CF0
:100240004CEA113102D0404261EB410113F0004F02
:100250004FEA03334CEA133302D0524263EB4303B9
:1002600094EA050F00F0A780A4F10104D5F1200E57
:100270000DDB02FA0EFC22FA05F2801841F10001B2
:1002800003FA0EF2801843FA05F359410EE0A5F186
:1002900020050EF1200E012A03FA0EFC28BF4CF0B7
:1002A000020C43FA05F3C01851EBE37101F000456D
:1002B00007D54FF0000EDCF1000C7EEB00006EEB7A
:1002C0000101B1F5801F1BD3B1F5001F0CD3490804
:1002D0005FEA30004FEA3C0C04F101044FEA44525B
:1002E00012F5800F80F09A80BCF1004F08BF5FEAE2
:1002F000500C50F1000041EB045141EA050130BDC2
:100300005FEA4C0C404141EB0101013C28BFB1F5D3
:10031000801FE9D291F0000F04BF01460020B1FA1E
:1003200081F308BF2033A3F10B03B3F120020CDAF1
:100330000C3208DD02F1140CC2F10C0201FA0CF0CF
:1003400021FA02F10CE002F11402D8BFC2F1200C34
:1003500001FA02F120FA0CFCDCBF41EA0C019040EA
:10036000E41AA2BF01EB0451294330BD6FEA040433
:100370001F3C1CDA0C340EDC04F11404C4F120021E
:1003800020FA04F001FA02F340EA030021FA04F330
:1003900045EA030130BDC4F10C04C4F1200220FA87
:1003A00002F001FA04F340EA0300294630BD21FAC5
:1003B00004F0294630BD94F0000F83F4801306BF8B
:1003C00081F480110134013D4EE77FEA645C18BF7F
:1003D0007FEA655C29D094EA050F08BF90EA020F16
:1003E00005D054EA000C04BF1946104630BD91EA0E
:1003F000030F1EBF0021002030BD5FEA545C05D111
:100400004000494128BF41F0004130BD14F580044F
:100410003CBF01F5801130BD01F0004545F0FE41C3
:1004200041F470014FF0000030BD7FEA645C1ABFF8
:10043000194610467FEA655C1CBF0B46024650EA2F
:10044000013406BF52EA033591EA030F41F400215B
:1004500030BD00BF90F0000F04BF0021704730B5E1
:100460004FF4806404F132044FF000054FF00001B6
:1004700050E700BF90F0000F04BF0021704730B577
:100480004FF4806404F1320410F0004548BF40424C
:100490004FF000013EE700BF42004FEAE2014FEAA1
:1004A00031014FEA02701FBF12F07F4393F07F4F7C
:1004B00081F06051704732F07F4208BF704793F07F
:1004C0007F4F04BF41F40021704730B54FF4607492
:1004D00001F0004521F000411CE700BF50EA010295
:1004E00008BF704730B54FF000050AE050EA01023E
:1004F00008BF704730B511F0004502D5404261EBAE
:1005000041014FF4806404F132045FEA915C3FF4EE
:10051000D8AE4FF003025FEADC0C18BF03325FEA8B
:10052000DC0C18BF033202EBDC02C2F1200300FA3C
:1005300003FC20FA02F001FA03FE40EA0E0021FA61
:1005400002F11444BDE600BF4FF0FF3C06E000BFDF
:100550004FF0010C02E000BF4FF0010C4DF804CD4C
:100560004FEA410C7FEA6C5C4FEA430C18BF7FEA0C
:100570006C5C1BD001B050EA410C0CBF52EA430C3A
:1005800091EA030F02BF90EA020F0020704710F1BA
:10059000000F91EA030F58BF994208BF90422CBF49
:1005A000D8176FEAE37040F0010070474FEA410C42
:1005B0007FEA6C5C02D150EA013C07D14FEA430C60
:1005C0007FEA6C5CD6D152EA033CD3D05DF8040BD1
:1005D000704700BF8446104662468C461946634603
:1005E00000E000BF01B5FFF7B7FF002848BF10F1DA
:1005F000000F01BD4DF808EDFFF7F4FF0CBF01201F
:1006000000205DF808FB00BF4DF808EDFFF7EAFF9A
:1006100034BF012000205DF808FB00BF4DF808ED55
:10062000FFF7E0FF94BF012000205DF808FB00BF4A
:100630004DF808EDFFF7CEFF94BF012000205DF8D4
:1006400008FB00BF4DF808EDFFF7C4FF34BF0120E1
:1006500000205DF808FB00BF80F0004002E000BF12
:1006600081F0004142001FBF5FEA410392EA030F9D
:100670007FEA226C7FEA236C6AD04FEA1262D2EBE7
:100680001363C1BFD218414048404140B8BF5B42EC
:10069000192B88BF704710F0004F40F4000020F085
:1006A0007F4018BF404211F0004F41F4000121F09B
:1006B0007F4118BF494292EA030F3FD0A2F10102E5
:1006C00041FA03FC10EB0C00C3F1200301FA03F123
:1006D00000F0004302D5494260EB4000B0F5000F46
:1006E00013D3B0F1807F06D340084FEA310102F105
:1006F0000102FE2A51D2B1F1004F40EBC25008BFB7
:1007000020F0010040EA03007047490040EB000080
:10071000013A28BFB0F5000FEDD2B0FA80FCACF181
:10072000080CB2EB0C0200FA0CF0AABF00EBC250AE
:1007300052421843BCBFD0401843704792F0000F9C
:1007400081F4000106BF80F400000132013BB5E7EF
:100750004FEA41037FEA226C18BF7FEA236C21D065
:1007600092EA030F04D092F0000F08BF08467047CA
:1007700090EA010F1CBF0020704712F07F4F04D198
:10078000400028BF40F00040704712F100723CBFAB
:1007900000F50000704700F0004343F0FE4040F4D5
:1007A000000070477FEA226216BF08467FEA236393
:1007B0000146420206BF5FEA412390EA010F40F47E
:1007C000800070474FF0000304E000BF10F00043CA
:1007D00048BF40425FEA000C08BF704743F09643B1
:1007E00001464FF000001CE050EA010208BF7047CC
:1007F0004FF000030AE000BF50EA010208BF704753
:1008000011F0004302D5404261EB41015FEA010C67
:1008100002BF84460146002043F0B64308BFA3F15F
:100820008053A3F50003BCFA8CF2083AA3EBC25341
:1008300010DB01FA02FC634400FA02FCC2F1200260
:10084000BCF1004F20FA02F243EB020008BF20F097
:100850000100704702F1200201FA02FCC2F12002FD
:1008600050EA4C0021FA02F243EB020008BF20EAF2
:10087000DC7070477BB972B90029BEBF00204FF011
:10088000004106E008BF00281CBF6FF000414FF098
:10089000FF3000F057B8ADF1080C6DE904CE002927
:1008A00009DB002B1ADB0CF085F8DDF804E0DDE94C
:1008B000022304B07047404261EB4101002B1BDB77
:1008C0000CF078F8DDF804E0DDE9022304B04042E2
:1008D00061EB4101524263EB43037047524263EBC9
:1008E00043030CF067F8DDF804E0DDE9022304B00F
:1008F000404261EB41017047524263EB43030CF00D
:1009000059F8DDF804E0DDE9022304B0524263EB5C
:100910004303704753B94AB9002908BF00281CBFD8
:100920004FF0FF314FF0FF3000F00CB8ADF1080C84
:100930006DE904CE0CF03EF8DDF804E0DDE90223B9
:1009400004B07047704700BF10F8012B11F8013B4D
:10095000012A28BF9A42F7D0D01A70470000000041
:1009600001F0FF01102A2BDB10F0070F08D010F860
:10097000013B013A8B422DD010F0070F42B3F6D164
:10098000F0B441EA012141EA014122F007047FF07D
:1009900000070023F0E80256083C85EA010586EAD4
:1009A000010685FA47F5A3FA87F586FA47F6A5FA10
:1009B00087F68EB9EED1F0BC01F0FF0102F007021C
:1009C00032B110F8013B013A83EA010313B1F8D1C7
:1009D0000020704701387047002D06BF35460338A8
:1009E000073815F0010F07D1013015F4807F02BFE1
:1009F000013015F4C03F0130F0BC0138704700BF32
:100A0000034613F8012B002AFBD1181A013870474E
:100A10000348044B834202D0034B03B1184770478D
:100A20007C0100207C010020000000000548064BEE
:100A30001B1AD90F01EBA301491002D0034B03B1DC
:100A4000184770477C0100207C0100200000000056
:100A500010B5064C237843B9FFF7DAFF044B13B106
:100A60000448AFF300800123237010BD80010020F3
:100A700000000000F8DD000808B5054B1BB1054972
:100A80000548AFF30080BDE80840FFF7CFBF00BFC7
:100A90000000000084010020F8DD000808B5064BC6
:100AA000044613B100210CF051FF044B1B6803B145
:100AB0009847204600F008FE4DD90008D4020020D7
:100AC000002310B50446C0E90033C0E90433836055
:100AD00081814366C2818361194608225C3000F03F
:100AE000B1F80D4B63620D4BA3620D4BE3620D4BEE
:100AF00023630D4B24629C4206D003F168029442AA
:100B000002D0D0339C4205D104F15800BDE810401A
:100B100000F0C4B810BD00BF810F0008A30F00088B
:100B2000DB0F0008FF0F00089C010020024A034968
:100B3000034800F069B800BF00000020F10E000873
:100B40001000002041680C4B994210B5044601D0BA
:100B500000F0CEF9A168094B994202D0204600F07E
:100B6000C7F9E168064B994204D02046BDE8104021
:100B700000F0BEB910BD00BF9C010020040200209F
:100B80006C02002010B50B4B0B4C0C4A1A6020462F
:100B900000220421FFF794FF04F1680001220921DB
:100BA000FFF78EFF04F1D0000222BDE810401221B1
:100BB000FFF786BFD40200209C0100202D0B000807
:100BC000014800F06CB800BFDA020020014800F0D4
:100BD00067B800BFDA02002010B50446FFF7F0FF47
:100BE000236A1BB1BDE81040FFF7F0BF044B23623E
:100BF000044B1B68002BF5D1FFF7C4FFF2E700BFE1
:100C0000450B0008D40200202DE9F843074688462A
:100C100014460026D4E90195B9F1010905D52468E7
:100C2000002CF7D13046BDE8F883AB89012B07D9FA
:100C3000B5F90E30013303D029463846C047064384
:100C40006835E9E702440346934200D1704703F850
:100C5000011BF9E770B50D4D0D4C641BA410002667
:100C6000A64209D10B4D0C4C0DF0C6F8641BA41024
:100C70000026A64205D170BD55F8043B98470136C1
:100C8000EEE755F8043B98470136F2E70CEB000815
:100C90000CEB00080CEB000810EB000870477047E5
:100CA0007047000070B50F4E0C463168054611B90B
:100CB00000F0CEF930602146284600F0C9F9431C07
:100CC00003D14FF0FF34204670BDC41C24F0030450
:100CD000A042F8D0211A284600F0BAF90130F2D12A
:100CE000EFE700BFDC0200202DE9F843CD1C25F022
:100CF000030508350C2D38BF0C25002D064601DBF9
:100D0000A94204D90C2333600020BDE8F883DFF842
:100D1000D48000F029F9D8F800301C4644BB29469D
:100D20003046FFF7BFFF431C044658D1D8F80040B7
:100D30002746002F43D1002C4BD02368394630463C
:100D400004EB030900F084F9814542D121686D1A52
:100D500029463046FFF7A6FF01303AD023682B44DE
:100D60002360D8F800305A6862BBC8F800700FE002
:100D70002268521B20D40B2A17D96119A34225607F
:100D800018BF5960636808BFC8F8001062514B6013
:100D9000304600F0EFF804F10B00231D20F00700AF
:100DA000C21A1CBF1B1AA350AFE76268A3420CBF54
:100DB000C8F800205A60EBE723466468AEE73C467B
:100DC0007F68B6E71A465B68A342FBD100235360F5
:100DD000DEE70C233360304600F0CCF894E7056082
:100DE000D6E700BFE0020020B1F90C202DE9F04168
:100DF000160705460C4654D44B68002B02DC0B6CDE
:100E0000002B48DDE66A002E45D0002312F4805204
:100E10002F68216A2B6030D0626DA389590705D5F0
:100E20006368D21A636B0BB1236CD21A0023E66A93
:100E3000216A2846B047431CA38906D129681D2989
:100E40002BD82A4ACA40D60727D500226260D90487
:100E50002269226004D5421C01D12B6803B9606568
:100E6000616B2F60B9B104F14403994202D0284666
:100E700000F020F9002363630DE001232846B0470A
:100E80000246501CC9D12B68002BC6D01D2B01D0A7
:100E9000162B1ED12F60002022E043F040031BB22E
:100EA0001BE00F69002FF6D093070E6808BF4B694F
:100EB0000F6018BF0023A6EB07088B60B8F1000F86
:100EC000E9DD216AA66A43463A462846B04700282B
:100ED00008DCB4F90C3043F04003A3814FF0FF303D
:100EE000BDE8F0810744A8EB0008E7E701004020D7
:100EF00038B50B6905460C4613B90025284638BDA0
:100F000018B1036A0BB9FFF767FEB4F90C30002B78
:100F1000F3D0626ED00704D4990502D4A06DFFF718
:100F2000BEFE28462146FFF75FFF636EDA070546DF
:100F3000E4D4A3899B05E1D4A06DFFF7B1FEDDE702
:100F4000014620B9044A05490548FFF75DBE054B37
:100F50001868FFF7CDBF00BF00000020F10E0008A9
:100F6000100000200C0000200148FFF798BE00BFD1
:100F7000D80200200148FFF793BE00BFD80200202E
:100F800010B50C46B1F90E1000F050F80028ABBFB8
:100F9000636DA3891B1823F48053ACBF6365A381E1
:100FA00010BD2DE9F0411F468B89DB0505460C4637
:100FB000164605D5B1F90E100223002200F024F8E0
:100FC000A389B4F90E1023F48053A38132463B4623
:100FD0002846BDE8F04100F04BB810B50C46B1F919
:100FE0000E1000F011F8431CA38915BF606523F4AF
:100FF000805343F48053A38118BFA38110BDB1F97E
:101000000E1000F047B8000038B5074D04460846FA
:10101000114600222A601A4600F076FB431C02D1DA
:101020002B6803B1236038BDE402002038B5074DBA
:1010300004460846114600222A601A4600F04AFB80
:10104000431C02D12B6803B1236038BDE4020020A9
:1010500038B5064D0023044608462B6000F056FBC9
:10106000431C02D12B6803B1236038BDE402002089
:1010700038B5074D04460846114600222A601A4634
:1010800000F07CF8431C02D12B6803B1236038BD0B
:10109000E402002038B5064D0023044608462B60C4
:1010A00000F028FB431C02D12B6803B1236038BD3C
:1010B000E402002038B50546002941D051F8043C2F
:1010C0000C1F002BB8BFE418FFF74EFF1D4A136832
:1010D00033B9636014602846BDE83840FFF74ABF63
:1010E000A34208D9206821188B4201BF19685B68A8
:1010F00009182160EDE71A465B680BB1A342FAD9E3
:1011000011685018A0420BD1206801445018834246
:101110001160E0D118685B68536008441060DAE73A
:1011200002D90C232B60D6E7206821188B4204BF1C
:1011300019685B68636004BF091821605460CAE7DE
:1011400038BD00BFE002002008B50A480A4B036022
:101150004FF46133436000238360C36003610C225A
:1011600042618361C36101F0A4FF08B172B6FEE77A
:1011700008BD00BFE80200200044004010B514463E
:101180004FF0FF3392B2024801F0C3FF204610BD7A
:10119000E802002000B595B03422002107A8FFF72F
:1011A00051FD002302930393049305930693009348
:1011B0001A4A116C41F080511164126C02F0805295
:1011C0000092009A019316490A6822F4404242F4C0
:1011D00080420A600A6802F440420192019A0222A7
:1011E000079201220A9210220B920D9307A801F098
:1011F0006FF868B90F2302930021039104910591C0
:10120000069102A800F0FAFE28B915B05DF804FBBB
:101210000BF024FBEEE70BF021FBF6E70038024071
:101220000070004010B5FFF78FFFFFF7B3FF064CCB
:1012300020460CF079FA05480CF076FA20460CF0BE
:1012400073FA05F035FA10BD4CDF000864DE0008C3
:1012500082B0002100910B4B5A6C42F480425A64D8
:101260005A6C02F480420092009A01911A6C42F08A
:1012700080521A641B6C03F080530193019B02B0EF
:10128000704700BF0038024082B00368104A9342A2
:1012900004D0104A93420ED002B07047002300934E
:1012A0000D4B1A6C42F002021A641B6C03F002032D
:1012B0000093009BF0E700230193074B1A6C42F068
:1012C00004021A641B6C03F004030193019BE3E71F
:1012D00000040040000800400038024030B589B0EA
:1012E0000023039304930593069307930368254A09
:1012F000934204D0244A93422CD009B030BD00253B
:101300000095224B1A6B42F004021A631A6B02F02A
:1013100004020092009A01951A6B42F002021A63CD
:101320001B6B03F002030193019B4FF44073039383
:1013300002240494079403A9154800F059FD3023B2
:101340000393049405950695079403A9114800F0AA
:101350004FFDD2E7002302930C4B1A6B42F00202BE
:101360001A631B6B03F002030293029B4FF4E073BA
:10137000039302230493079303A9064800F038FD62
:10138000BBE700BF000400400008004000380240F6
:101390000008024000040240F0B593B000230D9312
:1013A0000E930F931093119303688F4A934214D0B6
:1013B00004468E4A934232D08D4A934267D08D4A7A
:1013C000934200F0C8808C4A934200F0E7808B4A39
:1013D000934200F0258113B0F0BD00210091884BAD
:1013E0001A6C42F400221A641A6C02F40022009271
:1013F000009A01911A6B42F001021A631B6B03F011
:1014000001030193019B03230D9302220E9210937B
:10141000082311930DA97B4800F0EAFCDBE70024C8
:101420000294774B1A6C42F480121A641A6C02F41C
:1014300080120292029A03941A6B42F004021A6319
:101440001A6B02F004020392039A04941A6B42F09E
:1014500008021A631B6B03F008030493049B4FF408
:1014600080530D9302270E97032610960825119599
:101470000DA9654800F0BCFC04230D930E970F9452
:10148000109611950DA9614800F0B2FCA3E7002564
:1014900005955B4B5A6C42F010025A645A6C02F08C
:1014A00010020592059A06951A6B42F001021A6322
:1014B0001B6B03F001030693069B4FF4C0630D936F
:1014C00002230E9303231093072311930DA94D4874
:1014D00000F08EFC4E484F4B03604FF000634360BA
:1014E0008560C5604FF48063036145618561C561B6
:1014F0004FF400330362456200F094FA28BB444B7A
:10150000E3639C634448454B03604FF000634360D2
:10151000402383600023C3604FF480620261436113
:101520008361C3614FF400320262436200F07AFAD1
:1015300070B9394BA3639C6300221146252000F04B
:10154000CDF9252000F0DAF945E70BF087F9D6E769
:101550000BF084F9EDE700210791294B1A6C42F456
:1015600000321A641A6C02F400320792079A08914A
:101570001A6B42F001021A631B6B03F0010308931C
:10158000089B0C230D9302230E9303231093072330
:1015900011930DA91B4800F02BFC1CE700210991B9
:1015A000174B1A6C42F480221A641A6C02F48022DF
:1015B0000992099A0A911A6B42F004021A631B6B92
:1015C00003F004030A930A9B4FF440630D93022334
:1015D0000E9301230F9303231093072311930DA957
:1015E000094800F005FCF6E6004C004000500040C1
:1015F0000010014000440040004800400014014039
:10160000003802400000024000080240000C024086
:101610003007002040640240D0060020B864024039
:1016200000210B91104B5A6C42F020025A645A6C04
:1016300002F020020B920B9A0C911A6B42F00402FA
:101640001A631B6B03F004030C930C9BC0230D93D4
:1016500002230E9303231093082311930DA903482B
:1016600000F0C6FBB7E600BF0038024000080240A9
:10167000FEE7FEE7FEE7FEE7FEE7704770477047CC
:1016800008B500F0B1F808BD08B5024801F036FF12
:1016900008BD00BF9007002008B5024800F0BAFA64
:1016A00008BD00BF3007002008B5024800F0B2FABC
:1016B00008BD00BFD006002008B50CF0C1F8162305
:1016C00003604FF0FF3008BD08B54FF0FF31FFF762
:1016D000F3FFFEE770B50C461646002506E0AFF3B3
:1016E0000080214601F8010B01350C46B542F6DBBE
:1016F000304670BD4FF0FF3070474FF400534B60E1
:1017000000207047012070470020704710B5034645
:101710000C4A0D490D48006840B10C48006803446C
:10172000521A934206D8094A136010BD0748084C64
:101730000460F2E70CF084F80C2303604FF0FF30F4
:10174000F3E700BF00000220000400003003002087
:10175000F8090020034AD2F8883043F47003C2F835
:101760008830704700ED00E010B504460E4B1A7843
:101770004FF47A73B3FBF2F30C4A1068B0FBF3F04A
:1017800000F0C0F868B90F2C01D901200AE000224E
:1017900021464FF0FF3000F0A1F8054B1C600020FF
:1017A00000E0012010BD00BF600000205C000020B0
:1017B0006400002008B50B4B1A6842F400721A60EE
:1017C0001A6842F480621A601A6842F480721A60E1
:1017D000032000F071F80F20FFF7C6FFFFF738FD78
:1017E000002008BD003C0240034A1168034B1B78EF
:1017F0000B441360704700BF3403002060000020DA
:10180000014B1868704700BF3403002038B5044608
:10181000FFF7F6FF0546B4F1FF3F02D0044B1B78FB
:101820001C44FFF7EDFF401BA042FAD338BD00BFB8
:1018300060000020002807DB00F01F0240090123A0
:101840009340024A42F82030704700BF00E100E0B8
:10185000002808DB0901C9B200F1604000F56140D1
:1018600080F80013704700F00F000901C9B2014B66
:101870001954704714ED00E000B500F00700C0F106
:10188000070CBCF1040F28BF4FF0040C031D062BFE
:101890000FD9C31E4FF0FF3E0EFA0CF021EA0001F3
:1018A00099400EFA03FE22EA0E0241EA02005DF8B8
:1018B00004FB0023EEE70000074AD36823F4E0634B
:1018C0001B041B0C000200F4E060034343F0BF6301
:1018D00043F40033D360704700ED00E010B50446D8
:1018E000054BD868C0F30220FFF7C6FF014620462B
:1018F000FFF7AEFF10BD00BF00ED00E008B5FFF739
:1019000099FF08BD0138B0F1807F0BD24FF0E02382
:101910005861054AF02182F82310002098610722BF
:101920001A6170470120704700ED00E030B405688F
:101930002C6824F480242C60046863608368402B46
:1019400005D0036899600368DA6030BC70470368AB
:101950009A600368D960F8E710B40368D9B2103907
:101960000A4AA2FB01421209094CA25CC2655F2926
:1019700007D96FF3090304338365806D5DF8044B69
:1019800070476FF309038365F7E700BFABAAAAAA04
:10199000C8E90008836A826992B9012B0AD0022B38
:1019A00002D00BB100207047C36A13F0807F28D1AA
:1019B00000207047C36AB3F1C07F24D00020704775
:1019C000B2F5005F09D0022B25D9032B25D1C36ABC
:1019D00013F0807F23D100207047032B03D8DFE86A
:1019E00003F01404140A00207047C36A13F0807FC8
:1019F0000DD100207047C36AB3F1C07F09D0002029
:101A00007047012070470120704701207047012076
:101A10007047012070470120704700207047012067
:101A20007047000070B50446FFF7EAFE002C5BD05B
:101A30000546022384F83530002384F834302268C8
:101A4000136823F00103136023681A6812F0010F72
:101A50000AD0FFF7D5FE431B052BF5D9202363657C
:101A6000032084F8350070BD1A682049114062686F
:101A7000A0680243E06802432069024360690243B0
:101A8000A0690243E0690243206A02430A43616A93
:101A900004291ED01A602668756925F00705636A57
:101AA0001D43042B07D1A36A1D43E36A1BB12046E3
:101AB000FFF770FF90B975612046FFF74DFFE26DAB
:101AC0003F239340836000206065012384F8353014
:101AD000C9E7E16A206B01430A43DBE74023636502
:101AE000012084F83500BEE70120BCE73F8010F0FC
:101AF00038B50446856D90F8340001282BD00120BC
:101B000084F8340094F83500C0B2012804D00023D2
:101B100084F83430022038BD022084F835000020DB
:101B200060652046FFF702FFE26D3F239340AB6004
:101B30002268136843F016031360236C23B12268F4
:101B4000136843F0080313602268136843F001032D
:101B500013600020DFE70220DDE770B50446866DE4
:101B6000FFF74EFE94F83530DBB2022B06D080230F
:101B70006365002384F83430012070BD0546226877
:101B8000136823F0160313602268536923F080035F
:101B90005361236CE3B12268136823F008031360D8
:101BA0002268136823F00103136023681B6813F095
:101BB000010F11D0FFF724FE431B052BF5D920237D
:101BC0006365032084F83500002384F83430D4E7BB
:101BD000A36C002BDFD1E3E7E26D3F239340B360BA
:101BE000012384F83530002084F83400C5E790F8EC
:101BF0003530DBB2022B03D08023436501207047D0
:101C0000052380F835300268136823F00103136060
:101C100000207047F0B583B0044600230193724B57
:101C20001D68724BA3FB0535AD0A876D3E68C26D1A
:101C300008239340334210D003681A6812F0040F4F
:101C40000BD01A6822F004021A60C26D0823934078
:101C5000BB60436D43F001034365E26D0123934094
:101C6000334209D02268526912F0800F04D0BB6061
:101C7000636D43F002036365E26D042393403342D6
:101C800009D02268126812F0020F04D0BB60636DA5
:101C900043F004036365E26D10239340334224D084
:101CA0002268126812F0080F1FD0BB6023681A6800
:101CB00012F4802F0DD01B6813F4002F04D1236C75
:101CC0009BB12046984710E0A36C73B1204698471B
:101CD0000BE01A6812F4807F03D11A6822F0080220
:101CE0001A60236C0BB120469847E26D2023934085
:101CF000334255D02268126812F0100F50D0BB60EA
:101D000094F83530DBB2052B0ED023681A6812F434
:101D1000802F33D01B6813F4002F2AD1636C002B63
:101D20003ED0204698473BE02268136823F0160314
:101D300013602268536923F080035361236CA3B1BD
:101D40002268136823F008031360E26D3F23934079
:101D5000BB60012384F83530002384F83430236DD0
:101D6000002B3FD0204698473CE0A36C002BE7D1E6
:101D7000EBE7E36BA3B12046984711E01A6812F431
:101D8000807F09D11A6822F010021A60012384F8BA
:101D90003530002384F83430E36B0BB1204698478C
:101DA000636DFBB1636D13F0010F17D0052384F849
:101DB00035302268136823F001031360019B01335F
:101DC0000193AB4204D823681B6813F0010FF5D1CF
:101DD000012384F83530002384F83430E36C0BB1F0
:101DE0002046984703B0F0BD5C000020B5814E1B33
:101DF00000230F2B00F2E38070B582B065E08568A8
:101E00004FEA430E032404FA0EF425EA0405CC68D5
:101E100004FA0EF42C438460446824EA02044A68FD
:101E2000C2F300129A40224342605CE0DC080834AE
:101E300050F8242003F00705AD004FF00F0E0EFA06
:101E400005FE22EA0E0E0A69AA4042EA0E0240F896
:101E500024205CE0062200E0002202FA0EF22A436F
:101E60000234574D45F82420564A94686FEA0C0214
:101E700024EA0C054E6816F4801F01D04CEA0405D4
:101E8000504CA560E46802EA04054E6816F4001F91
:101E900001D04CEA04054B4CE560646802EA040595
:101EA0004E6816F4003F01D04CEA0405454C6560CD
:101EB000246822404D6815F4803F01D04CEA0402AA
:101EC000404C226001330F2B77D801229A400C68D6
:101ED00004EA020C32EA0404F4D14C6804F003046E
:101EE000013C012C8BD94A6802F00302032A09D075
:101EF000C4685D000322AA4024EA02048A68AA405A
:101F00002243C2604A6802F00302022A8ED00468AB
:101F10004FEA430E032202FA0EF224EA02044A6850
:101F200002F0030202FA0EF2224302604A6812F43F
:101F3000403FC7D000220192234A546C44F48044AD
:101F40005464526C02F480420192019A9C08A51CD0
:101F50001B4A52F8255003F0030E4FEA8E0E0F2253
:101F600002FA0EF225EA0205184A90423FF474AFD5
:101F700002F58062904216D002F58062904214D041
:101F800002F58062904212D002F58062904210D039
:101F900002F5806290420ED002F5806290423FF4DA
:101FA00059AF072259E7012257E7022255E70322DA
:101FB00053E7042251E705224FE702B070BD704796
:101FC00000380140003C014000380240000002405F
:101FD0000369194201D001207047002070470AB1FF
:101FE00081617047090481617047436901EA030216
:101FF00021EA030141EA024181617047002800F0B3
:102000009B8070B50D4604464F4B1B6803F00F03D1
:102010008B4208D2CBB24C4A1370136803F00F0303
:102020008B4240F08B80236813F0020F17D013F01F
:10203000040F04D0454A936843F4E0539360236847
:1020400013F0080F04D0414A936843F4604393604F
:102050003E4A936823F0F003A1680B439360236822
:1020600013F0010F32D06368012B21D09A1E012A90
:1020700025D9364A126812F0020F61D033498A68B6
:1020800022F0030213438B60FFF7BAFB06462F4B87
:102090009B6803F00C036268B3EB820F16D0FFF766
:1020A000AFFB801B41F288339842F0D9032042E015
:1020B000264A126812F4003FE0D101203BE0234A97
:1020C000126812F0007FD9D1012034E01E4B1B684A
:1020D00003F00F03AB4207D9EAB21B4B1A701B681F
:1020E00003F00F03AB422DD1236813F0040F06D089
:1020F000164A936823F4E053E1680B439360236826
:1021000013F0080F07D0114A936823F46043216944
:1021100043EAC103936000F047F80C4B9B68C3F39C
:1021200003130B4AD35CD8400A4B18600A4B18685B
:10213000FFF71AFB002070BD012070470120FAE76D
:102140000120F8E70120F6E7003C02400038024099
:10215000B8E900085C00002064000020014B18680A
:10216000704700BF5C00002008B5FFF7F7FF044B85
:102170009B68C3F38223034AD35CD84008BD00BFE9
:1021800000380240B0E9000808B5FFF7E7FF044B4C
:102190009B68C3F34233034AD35CD84008BD00BFF9
:1021A00000380240B0E9000808B5464B9B6803F0D0
:1021B0000C03082B05D00C2B43D0042B7FD14248B5
:1021C00019E0404B5A6802F03F025B6813F4800F3D
:1021D00012D03C4B5968C1F388113B480023A1FB46
:1021E0000001FEF797FB374B5B68C3F301430133F4
:1021F0005B00B0FBF3F008BD324B5868C0F38810A9
:102200004FEA401CBCEB000C6EEB0E0E4FEA8E1337
:1022100043EA9C634FEA8C11B1EB0C0163EB0E03B4
:10222000DB0043EA5173C90011EB000C43F10003DA
:10223000990200234FEA8C2041EA9C51FEF76AFB89
:10224000D1E7204B5A6802F03F025B6813F4800F1D
:1022500010D01C4B5968C1F388111B480023A1FB07
:102260000001FEF757FB174B5B68C3F30273B0FB2B
:10227000F3F0C0E7134B5868C0F388104FEA401CD6
:10228000BCEB000C6EEB0E0E4FEA8E1343EA9C6320
:102290004FEA8C11B1EB0C0163EB0E03DB0043EA58
:1022A0005173C90011EB000C43F1000399020023A4
:1022B0004FEA8C2041EA9C51FEF72CFBD3E7034800
:1022C00099E700BF0038024040787D010024F40007
:1022D000002800F0018270B582B00446036813F054
:1022E000010F41D0994B9B6803F00C03042B32D0B3
:1022F000964B9B6803F00C03082B27D0934B9B68ED
:1023000003F00C030C2B59D06368B3F5803F5BD00E
:10231000B3F5A02F5ED08D4B1A6822F480321A607C
:102320001A6822F480221A606368002B5CD0FFF7E1
:1023300067FA0546854B1B6813F4003F14D1FFF77D
:102340005FFA401B6428F5D90320CCE17F4B5B6822
:1023500013F4800FD2D07D4B1B6813F4003F03D0E1
:102360006368002B00F0BA81236813F0020F60D07D
:10237000764B9B6813F00C0F4AD0744B9B6803F0AC
:102380000C03082B3FD0714B9B6803F00C030C2B04
:1023900069D0E368002B75D06D4B01221A60FFF7FE
:1023A0002FFA0546694B1B6813F0020F61D1FFF746
:1023B00027FA401B0228F5D9032094E1634B5B68A0
:1023C00013F4800FA0D0C6E7604A136843F480334B
:1023D0001360A9E75D4B1A6842F480221A601A68FC
:1023E00042F480321A609FE7FFF70AFA0546574B1E
:1023F0001B6813F4003FB7D0FFF702FA401B6428B4
:10240000F5D903206FE1514B5B6813F4800FBAD10B
:102410004E4B1B6813F0020F03D0E368012B40F012
:102420005F814A4A136823F0F803216943EAC10334
:102430001360236813F0080F49D06369002B33D071
:10244000434B0122C3F8802EFFF7DAF905463F4BD4
:102450005B6F13F0020F3AD1FFF7D2F9401B02284D
:10246000F5D903203FE1394B5B6813F4800F90D11D
:10247000CEE7364A136823F0F803216943EAC10323
:102480001360D6E7324B00221A60FFF7B9F9054610
:102490002E4B1B6813F0020FCBD0FFF7B1F9401B96
:1024A0000228F5D903201EE1294B0022C3F8802E13
:1024B000FFF7A6F90546254B5B6F13F0020F06D018
:1024C000FFF79EF9401B0228F5D903200BE1236892
:1024D00013F0040F76D01D4B1B6C13F0805F33D1CB
:1024E00000230193194B1A6C42F080521A641B6C42
:1024F00003F080530193019B0125164B1B6813F4D5
:10250000807F29D0A368012B3AD0052B3ED00F4BFA
:102510001A6F22F001021A671A6F22F004021A677A
:10252000A368002B3CD0FFF76BF90646074B1B6FE7
:1025300013F0020F45D1FFF763F9801B41F2883396
:102540009842F3D90320CEE00025D6E700380240B8
:1025500000004742007000406B4A136843F48073E8
:102560001360FFF74DF90646674B1B6813F4807F35
:10257000C8D1FFF745F9801B0228F5D90320B2E046
:10258000624A136F43F001031367C9E75F4B1A6F89
:1025900042F004021A671A6F42F001021A67BFE79D
:1025A000FFF72EF90646594B1B6F13F0020F08D0A8
:1025B000FFF726F9801B41F288339842F3D90320B4
:1025C00091E0EDB9A369002B00F08C804F4A92682E
:1025D00002F00C02082A54D0022B17D04C4B0022D8
:1025E0001A66FFF70DF90446484B1B6813F0007F8D
:1025F00045D0FFF705F9001B0228F5D9032072E04A
:10260000424A136C23F080531364DBE7404B0022F3
:102610001A66FFF7F5F805463C4B1B6813F0007F80
:1026200006D0FFF7EDF8401B0228F5D903205AE049
:10263000E369226A1343626A43EA8213A26A520878
:10264000013A43EA0243E26A43EA0263226B43EA45
:1026500002732E4A53602E4B01221A66FFF7D0F800
:1026600004462A4B1B6813F0007F06D1FFF7C8F819
:10267000001B0228F5D9032035E0002033E00020BC
:1026800031E0012B31D0214B5B6803F48001E2691A
:1026900091422CD103F03F02216A8A4229D1616A1A
:1026A00047F6C0721A40B2EB811F24D103F44031C7
:1026B000A26A5208013AB1EB024F1ED103F07062D8
:1026C000E16AB2EB016F1AD103F0E043226BB3EB86
:1026D000027F16D1002006E001207047012002E0B1
:1026E000012000E0002002B070BD0120FBE70120C6
:1026F000F9E70120F7E70120F5E70120F3E70120E2
:10270000F1E70120EFE700BF007000400038024011
:102710000000474230B4036A026A22F001020262FA
:102720004268846924F0730C0C6844EA0C0423F0BA
:10273000020C8B6843EA0C03114DA84203D005F547
:102740008065A84205D123F00803CD682B4323F010
:1027500004030B4DA84203D005F58065A84207D1BC
:1027600022F440724D6945EA020C8A6942EA0C0281
:10277000426084614A684263036230BC704700BFB4
:102780000000014030B4036A026A22F480720262DF
:102790004268C46924F0730C0C6844EA0C0523F405
:1027A00000738C6843EA0423114CA04203D004F563
:1027B0008064A04206D123F40063CC6843EA04237A
:1027C00023F480630A4CA04203D004F58064A04245
:1027D00007D122F440524C6942EA04128C6942EA61
:1027E00004124260C5614A68C263036230BC70472C
:1027F0000000014030B4036A026A22F4805202628F
:102800004468C26922F4E6420D6842EA052223F4D4
:1028100000538D6843EA0533094DA84203D005F5FE
:102820008065A84204D124F480444D6944EA8514AB
:102830004460C2614A680264036230BC704700BFF2
:102840000000014010B4036A046A24F00104046229
:10285000846924F0F00C4CEA021223F00A030B43C3
:10286000826103625DF8044B704710B4036A046A26
:1028700024F010040462846924F4704C4CEA02329F
:1028800023F0A00343EA0113826103625DF8044B65
:102890007047836823F070030B4343F007038360A2
:1028A000704770470368344A904212D0B0F1804FAD
:1028B0000FD0A2F57C4290420BD002F5806290428C
:1028C00007D002F58062904203D002F57842904230
:1028D00003D123F070034A681343274A90422AD059
:1028E000B0F1804F27D0A2F57C42904223D002F570
:1028F000806290421FD002F5806290421BD002F5A8
:102900007842904217D002F57052904213D002F5EF
:10291000806290420FD002F5806290420BD0A2F507
:102920009832904207D002F58062904203D002F5BF
:102930008062904203D123F44073CA68134323F0AA
:1029400080034A69134303608B68C3620B68836228
:10295000094B984203D003F58063984201D10B697B
:10296000036301234361036913F0010F03D003697B
:1029700023F00103036170470000014040B310B52C
:10298000044690F83D30F3B1022384F83D302146EF
:1029900051F8040BFFF786FF012384F8463084F8D2
:1029A0003E3084F83F3084F8403084F8413084F879
:1029B000423084F8433084F8443084F8453084F859
:1029C0003D30002010BD80F83C30FEF75DFCDBE7B9
:1029D0000120704740B310B5044690F83D30F3B184
:1029E000022384F83D30214651F8040BFFF75AFFCB
:1029F000012384F8463084F83E3084F83F3084F870
:102A0000403084F8413084F8423084F8433084F810
:102A1000443084F8453084F83D30002010BD80F803
:102A20003C30FFF73EFFDBE70120704730B4036A1C
:102A3000026A22F0100202624468826922F4E642CD
:102A40000D6842EA052223F020038D6843EA05134E
:102A5000114DA84203D005F58065A84206D123F0A8
:102A60008003CD6843EA051323F040030A4DA842D2
:102A700003D005F58065A84207D124F440644D6970
:102A800044EA85048D6944EA8504446082614A68A9
:102A90008263036230BC70470000014038B590F893
:102AA0003C30012B66D004460D46012380F83C30B3
:102AB0000C2A5AD8DFE802F0075959591B595959BD
:102AC0003059595944000068FFF724FE2268936981
:102AD00043F0080393612268936923F00403936130
:102AE0002268936929690B43936100203EE00068E6
:102AF000FFF79CFF2268936943F4006393612268A7
:102B0000936923F48063936122689369296943EA96
:102B100001239361002029E00068FFF733FE22685B
:102B2000D36943F00803D3612268D36923F0040317
:102B3000D3612268D36929690B43D361002015E072
:102B40000068FFF757FE2268D36943F40063D3613E
:102B50002268D36923F48063D3612268D369296929
:102B600043EA0123D361002000E00120002384F820
:102B70003C3038BD0220FCE710B4846824F47F4C5C
:102B800042EA03220A4342EA0C0282605DF8044BE7
:102B9000704790F83C30012B78D010B504460123E3
:102BA00080F83C30022380F83D300268936823F4BB
:102BB0007F4323F0770393600B68602B4CD023D8BE
:102BC000402B54D011D8202B03D00AD80BB1102B96
:102BD00005D119462068FFF75CFE002028E001209F
:102BE00026E0302BF5D0012022E0502B0AD1CA6814
:102BF00049680068FFF726FE50212068FFF749FE6C
:102C0000002015E0012013E0B3F5805F3AD0B3F562
:102C1000005F14D0702B37D1CB684A688968006890
:102C2000FFF7AAFF2268936843F0770393600020C0
:102C3000012384F83D30002384F83C3010BDCB687C
:102C40004A6889680068FFF797FF2268936843F431
:102C5000804393600020EBE7CA6849680068FFF78B
:102C600004FE60212068FFF714FE0020E0E7CA6838
:102C700049680068FFF7E6FD40212068FFF709FE7C
:102C80000020D5E70020D3E70120D1E702207047DC
:102C900001F01F014FF0010C0CFA01FC036A23EA5A
:102CA0000C030362036A8A40134303627047000007
:102CB00010B504460846002942D194F83E30DBB2F4
:102CC000013B18BF0123002B6ED1002851D10223F4
:102CD00084F83E30012201462068FFF7D9FF2368BF
:102CE000334A934203D002F58062934203D15A6C77
:102CF00042F400425A6423682D4A934249D0B3F10A
:102D0000804F46D0A2F57C42934242D002F58062C9
:102D100093423ED002F5806293423AD002F5784267
:102D2000934236D002F57052934232D0A2F59432DB
:102D300093422ED01A6842F001021A60002032E05D
:102D4000042908D008290DD094F84130DBB2013BAA
:102D500018BF0123B7E794F83F30DBB2013B18BF3F
:102D60000123B0E794F84030DBB2013B18BF0123E8
:102D7000A9E7042805D0082807D0022384F84130A9
:102D8000A8E7022384F83F30A4E7022384F8403008
:102D9000A0E79A6802F00702062A07D01A6842F0F4
:102DA00001021A60002010BD0120FCE70020FAE7B4
:102DB0000000014090F83C20012A3DD010B40346A9
:102DC000012280F83C20022280F83D2002685068F1
:102DD000946820F0700C086840EA0C0050601A6893
:102DE000164882421AD0B2F1804F17D0A0F57C402D
:102DF000824213D000F5806082420FD000F58060DF
:102E000082420BD000F57840824207D000F5705026
:102E1000824203D0A0F59430824204D124F0800491
:102E2000496821439160012283F83D20002083F806
:102E30003C005DF8044B70470220704700000140E1
:102E4000026802F10C0353E8003F23F0C0030C3288
:102E500042E800310029F3D1202380F84130704747
:102E6000026802F10C0353E8003F23F490730C3224
:102E700042E800310029F3D1026802F1140353E85B
:102E8000003F23F00103143242E800310029F3D15E
:102E9000036B012B05D0202380F84230002303630D
:102EA0007047026802F10C0353E8003F23F010035F
:102EB0000C3242E800310029F3D1ECE790F84130C0
:102EC000DBB2212B01D0022070478368B3F5805F0D
:102ED00017D0036A5A1C02621A7803685A60C38CBE
:102EE0009BB2013B9BB2C3844BB90268D36823F009
:102EF0008003D3600268D36843F04003D3600020AE
:102F000070470369002BE4D1036A1B880268C3F38E
:102F100008035360036A02330362E0E710B5044616
:102F20000268136923F44053C1680B43136183683B
:102F300002691A4343691A43C3691A430168CB689B
:102F400023F4164323F00C031343CB600268536948
:102F500023F4407381690B4353610368314A934200
:102F600006D002F58062934202D0FFF7FDF801E03F
:102F7000FFF70AF9E369B3F5004F29D000210318E0
:102F800049411B1841F10001C90041EA5371DB00BE
:102F9000181863684FEA83024FEA937341F1000106
:102FA000FDF7B8FC204AA2FB00314909642303FB6A
:102FB00011031B013233A2FB03235B0903F0F00270
:102FC00002EB011203F00F03216813448B6010BD64
:102FD0000023021843EB0301121841F10001C9005C
:102FE00041EA5271D200101841F100016268921852
:102FF0005B41FDF78FFC0C4AA2FB003149096423B9
:1030000003FB1103DB003233A2FB03235B095A00ED
:1030100002F4F87202EB011203F007032168134473
:103020008B60D4E7001001401F85EB512DE9F04380
:1030300083B005460E4617469946DDF828802B6872
:103040001C6836EA04040CBF01240024BC4228D1C9
:10305000B8F1FF3FF3D0FEF7D3FBA0EB09004045EA
:1030600023D8B8F1000F22D02B68DA6812F0040FD1
:10307000E5D0802EE3D0402EE1D01A6812F0080F80
:10308000DDD0002401941A6801925B680193019BD2
:103090002846FFF7E5FE08236B6485F840400120D1
:1030A00000E0002003B0BDE8F0830320FAE703202E
:1030B000F8E760B310B5044690F8413013B3242309
:1030C00084F841302268D36823F40053D36020464B
:1030D000FFF724FF2268136923F4904313612268E9
:1030E000536923F02A0353612268D36843F40053E1
:1030F000D36000206064202384F8413084F842309B
:10310000606310BD80F84030FEF746F9D7E7012034
:1031100070472DE9F04182B01E4690F84130DBB295
:10312000202B56D104460D469046002955D00AB9A9
:1031300001204FE000234364212380F84130FEF753
:103140005FFB0746A4F82480A4F82680A368B3F5A3
:10315000805F02D04FF0000814E023692BB34FF0DA
:1031600000080FE0202384F84130032032E038F8D3
:10317000023B2268C3F308035360E28C92B2013A27
:1031800092B2E284E38C9BB293B100963B4600225C
:1031900080212046FFF74AFF0028E3D1002DE6D02A
:1031A00015F8012B23685A60E7E7A8460025E9E7F0
:1031B00000963B46002240212046FFF737FF18B912
:1031C000202384F8413005E0202384F84130032097
:1031D00000E0022002B0BDE8F0810120FAE72DE90D
:1031E000F04182B01E4690F84230DBB2202B59D11C
:1031F00004460D469046002958D00AB9012052E0F5
:1032000000234364222280F842200363FEF7F8FA89
:103210000746A4F82C80A4F82E80A368B3F5805F3D
:1032200002D04FF000081CE0236913B14FF00008F2
:1032300017E0A846002514E0202384F8423003203C
:1032400031E023685B68C3F3080328F8023B03E01E
:1032500023685B682B700135E28D92B2013A92B21D
:10326000E285E38D9BB2C3B100963B46002220214C
:103270002046FFF7DBFE0028DED1002DE1D0A36859
:10328000B3F5805FE4D013B92369002BE0D0236845
:103290005B6803F07F032B70DDE7202384F8423066
:1032A000002000E0022002B0BDE8F0810120FAE732
:1032B00038B5134690F84120D2B2202A2FD10446C7
:1032C00000292ED00BB9012038BD01628384C3844C
:1032D00000224264212084F84100A06B124DC56396
:1032E000A06B124D0564A06B114DC564A06B026507
:1032F00022680432A06BFEF7FBFB23686FF04002EC
:103300001A60226802F1140353E8003F43F080037F
:10331000143242E800310029F3D10020D4E7022022
:10332000D2E70120D0E700BF353300089D33000805
:10333000AB33000808B50346806B1B681B6813F4A9
:10334000807F1AD10023C384026802F1140353E87A
:10335000003F23F08003143242E800310029F3D10A
:10336000026802F10C0353E8003F43F040030C32C3
:1033700042E800310029F3D108BD03F0D3F8FBE7A0
:1033800008B50168CA6822F04002CA60202280F8AD
:10339000412003F0C7F8002008BD704708B5806BD6
:1033A000FFF7FBFF08BD7047704710B5846B2368BB
:1033B0005A6994F84130DBB2212B10D023685A6946
:1033C00002F0400294F84230DBB2222B11D0636C41
:1033D00043F0100363642046FFF7E6FF10BD02F0E0
:1033E0008002002AEAD00023E3842046FFF728FD6C
:1033F000E4E7002AEBD00023E3852046FFF730FD09
:10340000E5E708B5806B0023C385C384FFF7CCFFD5
:1034100008BD704790F84230DBB2222B69D1836837
:10342000B3F5805F4FD0826AB3F5805F04D0002B84
:1034300056D10369002B53D103685B681370836A0C
:1034400001338362C38D9BB2013B9BB2C385002BCA
:1034500051D100B583B00268D36823F02003D36054
:103460000268D36823F48073D3600268536923F041
:1034700001035361202380F8423000234363036B30
:10348000012B33D100230363026802F10C0353E8DC
:10349000003F23F010030C3242E800310029F3D141
:1034A00003681A6812F0100F06D0002201921A6801
:1034B00001925B680193019B818DFFF7AAFF0020B9
:1034C00003B05DF804FB0269002AACD1826A03688C
:1034D0005B68C3F308031380836A02338362B1E736
:1034E00003685B6803F07F031370A8E7FFF75BFFD7
:1034F000E5E70220704700207047000010B582B059
:10350000044602681368D068516913F00F0F09D19F
:1035100013F0200F0CD010F0200F09D02046FFF739
:1035200079FF16E011F0010115D110F4907F12D14E
:10353000216B012979D013F0800F03D010F0800F98
:1035400040F0148113F0400F03D010F0400F40F012
:10355000118102B010BD13F0010F06D010F4807F6E
:1035600003D0626C42F00102626413F0040F04D0D5
:1035700019B1626C42F00202626413F0020F04D0CF
:1035800019B1626C42F00402626413F0080F07D0B4
:1035900010F0200F00D119B1626C42F00802626491
:1035A000626C002AD5D013F0200F02D010F0200F4B
:1035B00029D123685B6903F04003626C12F0080FA5
:1035C00000D163B32046FFF74BFC23685B6913F01F
:1035D000400F20D0226802F1140353E8003F23F08B
:1035E0004003143242E800310029F3D1E36B73B198
:1035F000624A1A65E06BFEF7FAFA0028A9D0E06B80
:10360000036D9847A5E72046FFF704FFD1E7204662
:10361000FFF7CAFE9DE72046FFF7C6FE99E7204662
:10362000FFF7C2FE0023636493E713F0100F82D00C
:1036300010F0100F3FF47FAF002301931368019344
:1036400053680193019B536913F0400F52D0E26B12
:1036500013685B689BB2002B3FF47BAFA18D99424E
:103660007FF677AFE385D369B3F5807F37D02268E3
:1036700002F10C0353E8003F23F480730C3242E85C
:1036800000310029F3D1226802F1140353E8003F0E
:1036900023F00103143242E800310029F3D12268FB
:1036A00002F1140353E8003F23F04003143242E8D0
:1036B00000310029F3D1202384F842300023236312
:1036C000226802F10C0353E8003F23F010030C3290
:1036D00042E800310029F3D1E06BFEF73EFA022305
:1036E0006363A18DE38D9BB2C91A89B22046FFF7AF
:1036F00090FE2EE7A18DE38D9BB2C91A89B2E38DAE
:103700009BB2002B3FF425AF00293FF422AF226883
:1037100002F10C0353E8003F23F490730C3242E8AB
:1037200000300028F3D1226802F1140353E8003F6F
:1037300023F00103143242E800300028F3D12023A3
:1037400084F8423000232363226802F10C0353E81B
:10375000003F23F010030C3242E800300028F3D180
:10376000022363632046FFF754FEF2E62046FFF78C
:10377000A5FBEEE62046FFF703FEEAE60334000869
:10378000DFF834D0FDF7E6FF0C480D490D4A002361
:1037900002E0D458C4500433C4188C42F9D30A4A06
:1037A0000A4C002301E013600432A242FBD3FDF770
:1037B00051FAFDF737FD704700000220000000209D
:1037C0007C01002014EB000880010020F409002097
:1037D000FEE700002DE9F04F89B005460E469346FE
:1037E0001F46DDF8488000F1180393E803008DE8D8
:1037F000030005F110030CCB284606F0C6FE002896
:1038000059D1002F5FDBB8F1000F04D0D8F80C308D
:103810000133C8F80C30002E5ED0337F33B9336AE1
:10382000726A13EB0B039B4642EB0707CDF808B017
:10383000039705F1180393E803008DE8030005F1F1
:1038400010030CCB04A806F0A3FCD6F82890D6F8F9
:103850002CA0284606F0B0FE0446C0F81C80866105
:1038600096F83030002B3CD1B9F1010F7AF100030A
:1038700042DB337F002B4AD1B76BF26BB2F1004FC2
:1038800008BF002F43D017EB090742EB0A09049B3E
:10389000BB42059B73EB090339DA96F84830012BDC
:1038A00000F09180022B00F097800497CDF81490DF
:1038B000002306932BE0404607F0CAFC5F4808F05F
:1038C0002BFB002051E05A463B465D4808F024FBA4
:1038D0004FF0000B5F4696E7404607F0B9FC00202A
:1038E00043E006F0ABFC10EB0B0047EB0107049044
:1038F000059700230693B7E708AB13E90F0084E8A8
:103900000F002146286B08F036FA00283CD105F15B
:1039100010030FCB8DE80F0008AB13E90F0006F082
:1039200014FC10B9069B0133069304AF97E80F000F
:1039300084E80F0008AB13E903008DE8030097E863
:103940000C00284606F021FE00286BD1383608AB63
:1039500013E90F0086E80F002146286B08F007FAEC
:10396000E86D431CEB65002B65DB09B0BDE8F08F0B
:10397000069B0133069308AB13E90F0084E80F00A0
:103980002146286B08F0F7F90028F1D108AB13E9BC
:1039900003008DE8030004AB0CCB284606F0F5FDD0
:1039A00028B12146284606F0BFFE0020DDE7383664
:1039B00008AB13E90F0086E80F002146286B08F0DA
:1039C000D6F90020D1E7404607F042FC21462846C0
:1039D00006F0AAFE0020C8E7284606F0EDFD824664
:1039E000866106F138030FCB8AE80F005146286B39
:1039F00008F0C1F960B1414606F058FF214628465B
:103A000006F092FE5146284606F08EFE0020ACE7F6
:103A10005146284606F088FE0497CDF814900023FE
:103A2000069374E7404607F013FC2146284606F04B
:103A30007BFE002099E70123EB6596E77CDE00081A
:103A4000A4DE0008836D9A6A014B1A60704700BFBC
:103A50003803002010B483B0D0F8B4400094D0F8FC
:103A6000B8300193002307E054F82320916A054AF7
:103A700002EB830211600133062BF5DD03B05DF824
:103A8000044B70473C030020F0B589B00024039438
:103A900004940594069407940094244B1A6B42F006
:103AA00001021A631A6B02F001020092009A01945B
:103AB0001A6B42F002021A631A6B02F002020192C0
:103AC000019A02941A6B42F080021A631B6B03F096
:103AD00080030293029B164E224603213046FEF7D6
:103AE0007EFA03250395012704970594069403A9FC
:103AF0003046FEF77DF9A6F5E05622464FF4004128
:103B00003046FEF76CFA4FF4004303930497059494
:103B1000069403A93046FEF76BF9039504940594C7
:103B200003A90448FEF764F909B0F0BD003802406B
:103B3000001C02400008024008B50848084B03601A
:103B40004FF4E133436000238360C36003610C22C0
:103B500042618361C361FFF7ACFA08BD0404002031
:103B6000004C004008B50848084B03604FF4E133AF
:103B7000436000238360C36003610C224261836160
:103B8000C361FFF796FA08BDBC0300200050004057
:103B900008B50848084B03604FF4E1334360002345
:103BA0008360C36003610C2242618361C361FFF7DC
:103BB00080FA08BD740300200014014008B5FFF727
:103BC00063FFFFF7B9FFFFF7CDFFFFF7E1FF08BD88
:103BD000F0B585B0D0F81C710097D0F82031019372
:103BE000D0F824610296D0F828310393002400E035
:103BF0000134062C23DCA50057F82430002283F87A
:103C0000282057F8240007F00BFD57F82400C3685C
:103C10001BB10122816A07F046FB7259094B03EB85
:103C200084031B689362705907F0FAFC7059C368EB
:103C3000002BDDD00122816A07F035FBD8E705B003
:103C4000F0BD00BF3C0300202DE9F04186B0D0F864
:103C50001C510095D0F820310193D0F82C610296C8
:103C6000D0F830310393D0F82481CDF81080D0F80B
:103C700028310593046A7CB173682C4A9A62706893
:103C800007F0CEFC7068C368002B34D00122816A33
:103C900007F009FB2FE00134062C1FDCA70058F8C1
:103CA0002430234A9A6258F8240007F0B9FC58F8E7
:103CB0002400C3681BB10122816A07F0F4FAF359AA
:103CC00000229A62F05907F0ABFCF059C368002B50
:103CD000E1D00122816A07F0E6FADCE7736800228E
:103CE0009A62706807F09CFC7068C3681BB101227F
:103CF000816A07F0D8FA002400E00134062C12DCB7
:103D000055F82430012283F8282055F8240007F0C4
:103D100087FC55F82400C368002BEED00122816A8D
:103D200007F0C1FAE9E706B0BDE8F081DF4F7B415B
:103D30000000C842F8B5044600F1240500F5BA6752
:103D400000F5B766012380F84C30284607F068FC80
:103D5000236B23B10122E16C284607F0A4FA01216C
:103D60001148FEF735F978B1104809F0DDFC10482C
:103D700009F0DAFC0F4809F0D7FC0F4809F0D4FC31
:103D8000A76101232377F8BD084809F0CDFC084856
:103D900009F0CAFC094809F0C7FC074809F0C4FC4F
:103DA000A66101232377EEE7000802404CDF0008FC
:103DB000ECDE00080CDF00082CDF000850DF0008F4
:103DC000134B1B68E3B97047124A02EB83020021D0
:103DD00011600133062BF7DD012385F828302846D2
:103DE00007F01EFCEB6823B10122A96A284607F000
:103DF0005AFAA66101232377074809F095FC70BDA4
:103E000070B5044600F1240500F5BA660023E1E729
:103E1000380300205803002070DF000810B5044666
:103E2000016A074809F018FC02210648FEF7DDF890
:103E3000236A13B90123236210BD00232362FBE729
:103E40008CDF0008001C0240F8B54FF4BD6006F09E
:103E500013FB6FF001040465C0F8184100F51671FA
:103E6000024642F8B01F42679FED8F7B80ED267BB4
:103E70000022C0F8A0200121816700F52E75C0F84E
:103E8000105100F58875C0F8D45080ED3E7BC0F825
:103E90000021C0F8D810C0F83441C0F84021844C4B
:103EA000C0F83841C0F83C01C0F87C21C0F880213E
:103EB000804CC0F88C41C0F89021C0F8A0117E4D14
:103EC000C0F89851C0F89C01C0F8DC21C0F8E0218E
:103ED000C0F8EC4100F5B466C0F8F0610225C0F806
:103EE0000052764DC0F8F851C0F8FC01C0F83C22F1
:103EF000C0F84022C0F84C4200F5B765C0F85052F7
:103F00000327C0F86072DFF8C8C1C0F858C2C0F813
:103F10005C02C0F89C22C0F8A022C0F8AC42C0F8F5
:103F2000B0524FF0040CC0F8C0C2DFF8A8C1C0F80E
:103F3000B8C2C0F8BC02C0F8FC22C0F80023C0F828
:103F40000C43C0F810534FF0050CC0F820C3DFF845
:103F500088C1C0F818C3C0F81C03C0F85C23C0F8BF
:103F60006023C0F86C43C0F870530625C0F8805336
:103F7000534DC0F87853C0F87C03C0F8BC23C0F898
:103F8000C023C0F8CC4300F5BA65C0F8D0534FF059
:103F9000070CC0F8E0C3DFF844C1C0F8D8C3C0F8CC
:103FA000DC03C0F81C24C0F82024C0F82C44C0F85E
:103FB000305400F58E6484ED007BC0F8782400F561
:103FC000CC74C0F8884400F54674C0F88C4400F501
:103FD0007674C0F8904400F59164C0F84C44C0F881
:103FE000507480F8541400F59A6484ED007BC0F896
:103FF000D82400F55E74C0F8E84400F59D64C0F86C
:10400000AC44C0F8B01480F8B41400F5A66404ED14
:10401000027BC0F8302500F5FC74C0F8404500F57F
:10402000A864C0F80445C0F8081580F80C1500F520
:104030009C74C0F8984500F5B06484ED007BC0F82E
:10404000882500F5B364C0F85C45C0F8601580F8B9
:10405000642500F10C01C0F8A0151A4CC0F8A44565
:1040600000F5B6670024002547E9024580F8B02531
:10407000C0F8B815144FC0F8BC7500F5B867C7E9AB
:10408000004580F8C825C0F8D0151049C0F8D415EF
:1040900000F5BC6141E9024580F8E025C260066197
:1040A000466182610277F8BD0000000000000080D8
:1040B000BD3B0008A0DF0008353D0008C13D0008F9
:1040C0001D3E0008A4DF0008ACDF0008B4DF0008D4
:1040D000453A0008553A0008D13B0008493C000821
:1040E00008B54FF0FF33012202490348FFF711F8EA
:1040F00008BD00BFCC000020D404002000B583B070
:104100008DF807004FF0FF3301220DF10701114830
:10411000FEF7FFFF002117E0C1EBC1020E48835CF0
:1041200002F1010C10F80CC003EB0C2302F1020C9D
:1041300010F80CC003EB0C430332825C03EB026308
:10414000064A42F8213001310629E5DD03B05DF869
:1041500004FB00BFD40400206C04002050040020A5
:1041600008B50848084B03604FF4612343600023FF
:104170008360C36003610C2242618361C361FEF707
:1041800098FF08BDD40400200048004030B587B037
:104190000024019402940394049405940094134B16
:1041A0001A6B42F002021A631B6B03F002030093C6
:1041B000009B0F4D22464FF400412846FDF70FFFAC
:1041C0004FF400430193012302930394049401A943
:1041D0002846FDF70DFE04230193029403940DEB92
:1041E00003010448FDF704FE07B030BD003802406B
:1041F000000002400008024010B5FFF7B1FFFFF7D2
:10420000C5FF084C4FF0FF33012207492046FEF757
:1042100080FF4FF0FF33012204492046FEF779FF6B
:1042200010BD00BFD4040020CC000020C40000203A
:104230002DE9F041456E076FFDF7E2FA0646574B50
:104240001878FFF75BFF002404E0554B1B68632BD5
:1042500036DC0134062C43DC524BD3ED007A77EE8A
:10426000A77A514B03EB840393ED007AB8EEC77A3B
:104270004FEA84084D4B03EB840393ED006AC7EECD
:10428000066A67EEA67A4A4B03EB840393ED006A55
:10429000DFED486A86EE267A57F8243077EEC77A43
:1042A000C3ED0A7A57F8240007F0BAF957F824004A
:1042B000C368002BC9D00122816A06F0F4FFC4E76D
:1042C00057F80830D3ED0A7A9FED3A7A67EE877A8D
:1042D000FDEEE77A17EE901A374809F0BDF9B8E716
:1042E0002E4B5878FFF70AFF002404E02C4B1B6884
:1042F000632B2ADC0134062C36DC2A4BD3ED007A02
:1043000077EEA77A284B03EB840393ED007AB8EE9F
:10431000C77AA700294B03EB840393ED006AC7EE2D
:10432000066A55F8243067EEA67AC3ED0A7A55F886
:10433000240007F075F955F82400C368002BD5D088
:104340000122816A06F0AFFFD0E7EB59D3ED0A7A7C
:104350009FED187A67EE877AFDEEE77A17EE901AEE
:10436000154809F079F9C5E7FDF74AFA0C4B1B68C7
:10437000632B08DC0A4B1B68632B0CDC0133084AF7
:104380001360BDE8F081811B0D4809F065F90D4807
:1043900009F0CAF9EEE70023F1E700BFC0000020F2
:1043A000D004002068000020500400208800002075
:1043B0006C0000200000C842B8DF0008A400002004
:1043C000C0DF0008C8DF000800B583B0042118482A
:1043D000FDF7FEFD0190019AD2B24FF4004115485D
:1043E000FDF7FDFD019B13B1134B1B6853B1019BFE
:1043F00013B9114B1B6883B9019A0F4B1A6003B0B4
:104400005DF804FB4FF0FF3301220C490C48FEF726
:1044100080FE0C4809F088F9EEE74FF0FF330122E7
:1044200009490748FEF775FE084809F07DF9E3E7FA
:1044300000080240000002404C040020C800002098
:10444000D4040020CCDF0008C4000020E0DF000816
:1044500038B54FF4567006F00FF800F13002826262
:1044600040650022C0F8802041498167C067C0F8DC
:10447000BC20C0F8C0203F4CC0F8CC40C0F8D020D1
:104480000121C0F8E0103C4DC0F8D850C0F8DC0065
:10449000C0F81C21C0F82021C0F82C41C0F8302100
:1044A0000225C0F84051354DC0F83851C0F83C01E4
:1044B000C0F87C21C0F88021C0F88C41C0F8902160
:1044C0000325C0F8A0512E4DC0F89851C0F89C01AA
:1044D000C0F8DC21C0F8E021C0F8EC41C0F8F021C0
:1044E0009FED217B80ED8C7BC0F8382200F59C7419
:1044F000C0F8484200F51274C0F80C42C0F810121F
:1045000080F8141280EDA27BC0F8902200F5CC74E4
:10451000C0F8A04200F52874C0F86442C0F86812E0
:1045200080F86C1200F17804C0F8F84280EDB87B96
:10453000C0F8E82200F53E74C0F8BC42C0F8C012D2
:1045400080F8C42280EDCE7BC0F8402300F1D80271
:10455000C0F8502300F55472C0F81423C0F81813A3
:10456000C0F8001338BD00BF00000000000000804C
:10457000F9410008A0DF0008E140000831420008CE
:10458000C9430008F0B482B0D0F8B871D0F8206206
:10459000D0F88852D0F8F042D0F85813D0F8C023A1
:1045A000036B0193D0F85031D3F828C0019BC3F8B6
:1045B00000C0036BD7F828C0C3F804C0036BD6F85B
:1045C00028C0C3F808C0036BD5F828C0C3F80CC0D6
:1045D000036BD4F828C0C3F810C0036B896A596113
:1045E000036B926A9A6102B0F0BC704730B4456BBD
:1045F000C46E00230DE055F82310826A91F828104C
:10460000D15454F82310C26A02EB8302896A116004
:104610000133062BEFDD30BC704730B583B0054663
:10462000D0F824440094D0F828340193836A1B788E
:10463000002B7AD0036B1A6823689A62206806F010
:10464000EFFF2068C3681BB10122816A06F02BFED0
:10465000AB6A5B78002B6BD02B6B5A6863689A62ED
:10466000606806F0DDFF6068C3681BB10122816AE3
:1046700006F019FEAB6A9B78002B5CD02B6B9A6816
:10468000A3689A62A06806F0CBFFA068C3681BB15C
:104690000122816A06F007FEAB6ADB78002B4DD061
:1046A0002B6BDA68E3689A62E06806F0B9FFE068AD
:1046B000C3681BB10122816A06F0F5FDAB6A1B7964
:1046C000002B3ED02B6B1A6923699A62206906F091
:1046D000A7FF2069C3681BB10122816A06F0E3FDD0
:1046E000AB6A5B79002B2FD02B6B5A6963699A6296
:1046F000606906F095FF6069C3681BB10122816A99
:1047000006F0D1FDAB6A9B790BB32B6B9A69A36959
:104710009A62A06906F084FFA069C3681BB10122F8
:10472000816A06F0C0FD03B030BDC36A1A6883E732
:10473000EB6A5A6892E7EB6A9A68A1E7EB6ADA6873
:10474000B0E7EB6A1A69BFE7EB6A5A69CEE7EB6A32
:104750009A69DCE70000000070B54FF4E96005F0ED
:104760008BFE0066C0F89800C0F8D000C0F80801C1
:10477000C0F840016FF00104C0F8B04100F5866553
:10478000C0F8A85100F5D472C0F86C219FED707B81
:1047900080ED647B0022C0F898210121C0F87011DF
:1047A000C0F81842C0F8105200F50476C0F8D46181
:1047B00080ED7E7BC0F80022C0F8D811C0F880429E
:1047C000C0F8785200F51E76C0F83C6280ED987B08
:1047D000C0F86822C0F84012C0F8E842C0F8E052C1
:1047E00000F53876C0F8A46280EDB27BC0F8D02224
:1047F000C0F8A812C0F85043C0F8485300F55276EC
:10480000C0F80C6380EDCC7BC0F83823C0F81013DF
:10481000C0F8B843C0F8B05300F56C76C0F87463C4
:1048200080EDE67BC0F8A023C0F87813C0F82044E0
:10483000C0F8185400F58365C0F8DC5300F58065B6
:1048400085ED007BC0F80824C0F8E013C0F82C44C4
:10485000C0F83824404CC0F83044C0F83404C0F8E4
:104860007424C0F878243D4CC0F88444C0F88824EF
:10487000C0F898143A4DC0F89054C0F89404C0F8A9
:10488000D424C0F8D824C0F8E444C0F8E8240225B1
:10489000C0F8F854334DC0F8F054C0F8F404C0F830
:1048A0003425C0F83825C0F84445C0F8482500F53F
:1048B000B26404ED027BC0F8902500F59E64C0F858
:1048C000A04500F5B464C0F86445C0F8681580F8E8
:1048D0006C1500F5BC6484ED007BC0F8E82500F59C
:1048E0009264C0F8F84500F5BF65C0F8BC55C0F843
:1048F000C015C0F8A81500F5C86505ED027BC0F825
:104900004026C0F8504600F5CA64C0F81446C0F806
:1049100018160421C0F8001600F5D26484ED007B5F
:10492000C0F89826C0F8581600F5DC6484ED007BCA
:10493000C0F8E826C0F8A81600F5E66484ED007B10
:10494000C0F83827C0F8F81670BD00BFAFF300807C
:10495000000000000000008085450008A0DF00087E
:10496000ED4500081B4600088842A8BF084670476E
:104970008842B8BF0846704710B507EE900A0C464B
:10498000F5EEC07AF1EE10FA23D4FDEEE77A17EED9
:10499000901A0320FFF7ECFF4FF47A7303FB00F348
:1049A00007EE903A1E4B03EB840393ED007AF8EE8A
:1049B000E77A67EE877ADFED1B6A87EEA67A1A4BF5
:1049C00053F82410FDEEC77A17EE900AFFF7CCFFDC
:1049D00010BDF1EE677AFDEEE77A17EE901A03202C
:1049E000FFF7C6FF4FF47A7303FB00F307EE903A2C
:1049F0000B4B03EB840393ED007AF8EEE77A67EE56
:104A0000877ADFED086A87EEA67A074B53F8241001
:104A1000FDEEC77A17EE900AFFF7A6FFD8E700BFB2
:104A2000F00000200000C8420C01002038B5144CF2
:104A300000212068FFF7A0FF124D68630121606824
:104A4000FFF79AFFA8630221A068FFF795FFE863CC
:104A50000321E068FFF790FF286404212069FFF735
:104A60008BFF05F58065686305216069FFF784FFAA
:104A7000A8630621A069FFF77FFFE86338BD00BF88
:104A8000200500200004004070B5324CD4ED007ABF
:104A9000F5EEC07AF1EE10FA2F4DACBF01220022E4
:104AA0004FF400512846FDF79AFAD4ED017AF5EE5D
:104AB000C07AF1EE10FA294EACBF0122002220216B
:104AC0003046FDF78CFAD4ED027AF5EEC07AF1EEBD
:104AD00010FAACBF0122002210213046FDF77FFA08
:104AE000D4ED037AF5EEC07AF1EE10FAACBF0122F4
:104AF000002210212846FDF772FAD4ED047AF5EE73
:104B0000C07AF1EE10FAACBF012200222021284623
:104B1000FDF765FAD4ED057AF5EEC07AF1EE10FAFC
:104B2000A5F58065ACBF012200224FF40041284664
:104B3000FDF755FAD4ED067AF5EEC07AF1EE10FAEB
:104B4000ACBF012200224FF480412846FDF747FA0E
:104B500070BD00BF20050020000802400000024098
:104B600008B5614B93ED007A604BD3ED007AB4EE5B
:104B7000E77AF1EE10FA08DCF1EE677AB4EEE77A44
:104B8000F1EE10FA1AD5012200E001220221584864
:104B9000FDF725FA544B93ED017A544BD3ED007A8F
:104BA000B4EEE77AF1EE10FA0ADCF1EE677AB4EED1
:104BB000E77AF1EE10FA1CD5012202E00022E5E7C7
:104BC000012204214A48FDF70AFA474B93ED027A85
:104BD000464BD3ED007AB4EEE77AF1EE10FA0ADC38
:104BE000F1EE677AB4EEE77AF1EE10FA1CD5012205
:104BF00002E00022E5E7012208213D48FDF7EFF938
:104C0000394B93ED037A394BD3ED007AB4EEE77A62
:104C1000F1EE10FA0ADCF1EE677AB4EEE77AF1EE23
:104C200010FA1DD5012202E00022E5E701224FF42F
:104C300000712F48FDF7D3F92B4B93ED047A2B4BE2
:104C4000D3ED007AB4EEE77AF1EE10FA0ADCF1EE79
:104C5000677AB4EEE77AF1EE10FA1DD5012202E090
:104C60000022E4E701224FF480612148FDF7B7F903
:104C70001D4B93ED057A1D4BD3ED007AB4EEE77A28
:104C8000F1EE10FA0ADCF1EE677AB4EEE77AF1EEB3
:104C900010FA1DD5012202E00022E4E701224FF4C0
:104CA00080511348FDF79BF90F4B93ED067A0F4B9C
:104CB000D3ED007AB4EEE77AF1EE10FA0ADCF1EE09
:104CC000677AB4EEE77AF1EE10FA0AD5012202E033
:104CD0000022E4E701224FF400510548FDF77FF977
:104CE00008BD0022F7E700BF20050020D00000200B
:104CF0000004024030B58FB000240A940B940C9449
:104D00000D940894099401940294039404940594D6
:104D1000069407941D4D1E4B2B606C60AC604FF4E5
:104D20007A73EB602C61AC612846FDF727FE4FF4E7
:104D300080530A930AA92846FDF72BFF2846FDF762
:104D400049FE0894099408A92846FEF733F8602321
:104D50000193029403940594224601A92846FDF785
:104D60009DFE04220DEB02012846FDF797FE082266
:104D700001A92846FDF792FE0C2201A92846FDF75D
:104D80008DFE2846FCF7AAFA0FB030BD840500203E
:104D90000004004030B58FB000240A940B940C94AA
:104DA0000D94089409940194029403940494059436
:104DB000069407941B4D1C4B2B606C60AC604FF449
:104DC0007A73EB602C61AC612846FDF7D7FD4FF498
:104DD00080530A930AA92846FDF7DBFE2846FDF713
:104DE000F9FD0894099408A92846FDF7E3FF60231C
:104DF0000193029403940594224601A92846FDF7E5
:104E00004DFE04220DEB02012846FDF747FE082265
:104E100001A92846FDF742FE2846FCF75FFA0FB0CD
:104E200030BD00BF3C050020000800402DE9F041E6
:104E300088B0002403940494059406940794019484
:104E4000314B1A6B42F002021A631A6B02F0020233
:104E50000192019A02941A6B42F004021A631B6BCE
:104E600003F004030293029B284E22463021304671
:104E7000FDF7B5F830230393012504954FF00208A0
:104E8000CDF81480069403A93046FCF7B1FF06F56F
:104E9000806622464FF20E613046FDF7A0F84FF2D1
:104EA0000E6303930495CDF81480069403A930464D
:104EB000FCF79EFF164F22464EF230013846FDF7B2
:104EC0008EF84EF2300303930495CDF814800694C7
:104ED00003A93846FCF78CFF082303930494059438
:104EE00003A93846FCF784FF224629463046FDF7E1
:104EF00076F8039504950594069403A93046FCF7CB
:104F000077FF08B0BDE8F0810038024000000240A1
:104F10000008024030B585B000240194354B1A6B6F
:104F200042F001021A631A6B02F001020192019A27
:104F300002941A6B42F002021A631A6B02F0020228
:104F40000292029A03941A6B42F004021A631B6BDA
:104F500003F004030393039BFFF7CCFEFFF71AFF54
:104F6000FFF764FF244D224602212846FDF737F85B
:104F7000224604212846FDF732F822460821284619
:104F8000FDF72DF822464FF400712846FDF727F86B
:104F900022464FF480612846FDF721F822464FF45F
:104FA00080512846FDF71BF822464FF40051284651
:104FB000FDF715F8114D21462846FDF779FE04212D
:104FC0002846FDF775FE08212846FDF771FE0C21E5
:104FD0002846FDF76DFE0A4D21462846FDF768FE7E
:104FE00004212846FDF764FE08212846FDF760FEEF
:104FF00005B030BD003802400004024084050020A6
:105000003C05002010B5046A08211948FCF7E0FFB0
:1050100050B90022174B1A601A68D2B20121164803
:10502000FCF7DDFF002310E004211148FCF7D0FF5E
:1050300008B90122EEE70022ECE7DFED107A104A12
:1050400002EB8302C2ED007A0133062B0FDC094A22
:105050001268002AF1D054F82320D2ED0A7A094AC6
:1050600002EB830292ED007A67EE877AE7E710BDE4
:10507000000802401C05002000040240000000005F
:1050800020050020D400002070B54FF47C7005F09E
:10509000F3F9C0640022026651498165C065C0F819
:1050A0009C20C0F8A0204F4CC0F8AC40C0F8B02005
:1050B0000121C0F8C0104C4DC0F8B850C0F8BC0079
:1050C000C0F8FC20C0F80021C0F80C41C0F8102145
:1050D0000225C0F82051454DC0F81851C0F81C01F8
:1050E000C0F85C21C0F86021C0F86C41C0F87021A4
:1050F0000325C0F880513E4DC0F87851C0F87C01BE
:10510000C0F8BC21C0F8C021C0F8CC41C0F8D02103
:105110000425C0F8E051374EC0F8D861C0F8DC0172
:10512000C0F81C22C0F82022C0F82C42C0F830225F
:105130009FED297B80ED9C7BC0F8782200F58C7474
:10514000C0F8884200F52274C0F84C42C0F85012F2
:1051500080F8541280EDB27BC0F8D02200F5BC7408
:10516000C0F8E04200F53874C0F8A442C0F8A812B4
:1051700080F8AC1280EDC87BC0F8282300F5EC74F1
:10518000C0F8384300F54E74C0F8FC42C0F8001374
:1051900080F8041300F15804C0F8904380EDDE7BE2
:1051A000C0F8802300F56474C0F85443C0F8581365
:1051B00080F85C2380EDF47BC0F8D82300F1B802BE
:1051C000C0F8E82300F57A72C0F8AC23C0F8B01339
:1051D000C0F8985370BD00BF0000000000000080C0
:1051E000154F0008A0DF000805500008894A000894
:1051F0002D4A0008614B000838B50446D0F89030BD
:10520000D0F8C450D3ED0A7A90ED137A37EEC77A0E
:10521000C0ED137AD0ED0C6AF4EEE67AF1EE10FAF6
:1052200008DCF1EE666AF4EEE67AF1EE10FA13D5D8
:10523000012100E001210846D4ED0D6AF4EEC76AB1
:10524000F1EE10FA0AD4F1EE666AF4EEC76AF1EEF6
:1052500010FA17DD012302E00021ECE70123D4ED71
:10526000126A95ED0A7AF4EE476AF1EE10FA02D06E
:10527000002262646265626C32B1012A15D0AB6AA9
:10528000A36438BD0023EAE708B9002BF7D0022356
:1052900063649FED0F7A67EE877AFDEEE77A17EE8B
:1052A000902A0C4808F0D8F9E9E7636D013363658B
:1052B00010B102236364E2E707EE903AF8EEE77A72
:1052C000F5EEC07AF1EE10FAD9DB00236364D6E77D
:1052D00000401C46F4DF000838B52DED028B044673
:1052E000D0F82821D0F8901100F1F805436C9BB15B
:1052F000022B3BD1936AC0F82031284606F090F982
:10530000D4F804312BB10122D4F82011284605F03D
:10531000CAFF0023236529E091ED0A8A90ED147AF3
:1053200078EE477AF3EE046AF4EEE67AF1EE10FADC
:1053300001DD37EE268AFBEE046AF4EEE67AF1EE42
:1053400010FA03D5B3EE048A37EE488A84ED488A12
:10535000284606F065F9D4F804312BB10122D4F8BF
:105360002011284605F09FFF84ED148ABDEC028BC6
:1053700038BD00000000000070B54FF46E7005F0FD
:105380007BF800F16402C265C0F8880000F1980261
:10539000C0F89020C0F8BC0000F1CC02C0F8C420D6
:1053A000C0F8F0006FF00105C0F8885100F51674E0
:1053B000C0F8804100F5C072C0F844219FED2E7BFB
:1053C00080ED5A7B0022C0F870210121C0F84811FD
:1053D000C0F8F051C0F8E84100F5F474C0F8AC41F1
:1053E00080ED747BC0F8D821C0F8B011C0F800225D
:1053F000234CC0F8F841C0F8FC01C0F83C22C0F8CA
:105400004022204CC0F84C42C0F85022C0F8601234
:105410001D4DC0F85852C0F85C02C0F89C22C0F87C
:10542000A022C0F8AC42C0F8B02280EDBC7BC0F82E
:10543000F8220424C0F8B84280EDD07BC0F848239D
:1054400000F5FC75C0F8585300F55676C0F81C639B
:10545000C0F82013C0F8084380EDE67BC0F8A02315
:10546000C0F8B05300F56C72C0F87423C0F878131C
:10547000C0F8604370BD00BF000000000000008065
:10548000F9510008A0DF0008D952000838B50446D9
:10549000C36E00F1D405D3ED0A7A90ED0D7A37EEA4
:1054A000C77AC0ED0D7A90ED0A6AB4EEE76AF1EEC4
:1054B00010FA08D4B1EE466AB4EEE76AF1EE10FADB
:1054C00013DD012300E001231A4694ED0B6AB4EECC
:1054D000C76AF1EE10FA0AD4B1EE466AB4EEC76AB2
:1054E000F1EE10FA27DD012302E00023ECE70123AF
:1054F0001946236B0BB3012B13D1D4ED086A66EE6A
:10550000A76A94ED097AB4EEE77AF1EE10FA07D4BF
:10551000B1EE477AB4EEE77AF1EE10FA00DC002340
:105520002363DFED167AF4EEE76AF1EE10FA0CD59C
:10553000DFED126A12E00023DAE712B911B101239C
:1055400000E001232363DFED0E6ADFED0E7AF4EE57
:10555000E76AF1EE10FA01DDF0EE676AC4ED3F6A2A
:10556000284606F05DF8D4F8E0302BB10122D4F8DB
:10557000FC10284605F097FE38BD00BF0000C8C2E9
:10558000000000000000C84270B54FF41C7004F029
:1055900073FF00F140028263406600F17402C2664C
:1055A000C0F8980000F1A802C0F8A020C0F8CC0014
:1055B0000022C0F810212249C0F80811C0F80C01DF
:1055C000C0F84C21C0F850211E49C0F85C11C0F849
:1055D00060219FED197B80ED687BC0F8A82100F564
:1055E0008475C0F8B85100F5DC71C0F87C11012455
:1055F000C0F880410421C0F8681180ED7E7BC0F8BE
:105600000022C0F8105200F50476C0F8D461C0F84A
:10561000D841C0F8C01180ED947BC0F85822C0F882
:10562000685200F51A72C0F82C22C0F83042C0F857
:10563000181270BDAFF30080000000000000008071
:105640008D540008A0DF00082DE9F8432DED028BF2
:105650000446D0F8A890076C00F1DC08806804F0DC
:10566000DDFD05460E46206B616B281A99ED0A8A0E
:10567000D7ED0A7A38EE678A94ED0B7A77EEC78A0F
:1056800066EB0101FBF7B8F807EE900AC8EEA76ACF
:10569000D4ED0E7A94ED0F7A67EE877A77EE887AFA
:1056A000C4ED0F7AD4ED087A67EE887A94ED0A7A21
:1056B00027EE267A77EE877A9FED147AF4EEC77A92
:1056C000F1EE10FA09DC9FED127AF4EEC77AF1EEF2
:1056D00010FA04D5DFED0E7A01E0DFED0C7AC4EDAF
:1056E000417A404605F09CFFD4F8E8302BB1012206
:1056F000D4F80411404605F0D6FDBB6AE362256389
:105700006663BDEC028BBDE8F88300BF0000C842B1
:105710000000C8C20000000038B54FF41C7004F04F
:10572000ABFE00F148020264C06600F17C024267F1
:10573000C0F8A00000F1B002C0F8A820C0F8D40062
:105740000022C0F818211E49C0F81011C0F8140139
:10575000C0F85421C0F858211A49C0F86411C0F8A3
:1057600068219FED157B80ED6A7BC0F8B02100F5C4
:105770008875C0F8C05100F5E071C0F884110124AB
:10578000C0F888410421C0F8701180ED807BC0F81A
:105790000822C0F8C81180ED947BC0F85822C0F8E8
:1057A000685200F51A72C0F82C22C0F83042C0F8D6
:1057B000181238BDAFF30080000000000000008028
:1057C00049560008A0DF000838B50446D0F89030EC
:1057D000D0F8C450D3ED0A7A90ED137A37EEC77A39
:1057E000C0ED137AD0ED0C6AF4EEE67AF1EE10FA21
:1057F00008DCF1EE666AF4EEE67AF1EE10FA13D503
:10580000012100E001210846D4ED0D6AF4EEC76ADB
:10581000F1EE10FA0AD4F1EE666AF4EEC76AF1EE20
:1058200010FA17DD012302E00021ECE70123D4ED9B
:10583000126A95ED0A7AF4EE476AF1EE10FA02D098
:10584000002262646265626C32B1012A15D0AB6AD3
:10585000A36438BD0023EAE708B9002BF7D0022380
:1058600063649FED0F7A67EE877AFDEEE77A17EEB5
:10587000902A0C4807F0F0FEE9E7636D0133636599
:1058800010B102236364E2E707EE903AF8EEE77A9C
:10589000F5EEC07AF1EE10FAD9DB00236364D6E7A7
:1058A00000401C46F4DF000838B52DED028B04469D
:1058B000D0F82821D0F8901100F1F805436C9BB185
:1058C000022B3BD1936AC0F82031284605F0A8FE90
:1058D000D4F804312BB10122D4F82011284605F068
:1058E000E2FC0023236529E091ED0A8A90ED147A09
:1058F00078EE477AF3EE046AF4EEE67AF1EE10FA07
:1059000001DD37EE268AFBEE046AF4EEE67AF1EE6C
:1059100010FA03D5B3EE048A37EE488A84ED488A3C
:10592000284605F07DFED4F804312BB10122D4F8CD
:105930002011284605F0B7FC84ED148ABDEC028BDB
:1059400038BD00000000000070B54FF46E7004F028
:1059500093FD00F16402C265C0F8880000F198026E
:10596000C0F89020C0F8BC0000F1CC02C0F8C42000
:10597000C0F8F0006FF00105C0F8885100F516740A
:10598000C0F8804100F5C072C0F844219FED2E7B25
:1059900080ED5A7B0022C0F870210121C0F8481127
:1059A000C0F8F051C0F8E84100F5F474C0F8AC411B
:1059B00080ED747BC0F8D821C0F8B011C0F8002287
:1059C000234CC0F8F841C0F8FC01C0F83C22C0F8F4
:1059D0004022204CC0F84C42C0F85022C0F860125F
:1059E0001D4DC0F85852C0F85C02C0F89C22C0F8A7
:1059F000A022C0F8AC42C0F8B02280EDBC7BC0F859
:105A0000F8220424C0F8B84280EDD07BC0F84823C7
:105A100000F5FC75C0F8585300F55676C0F81C63C5
:105A2000C0F82013C0F8084380EDE67BC0F8A0233F
:105A3000C0F8B05300F56C72C0F87423C0F8781346
:105A4000C0F8604370BD00BF00000000000000808F
:105A5000C9570008A0DF0008A958000838B5044657
:105A6000D0F89030D0F8C450D3ED0A7A90ED137A84
:105A700037EEC77AC0ED137AD0ED0C6AF4EEE67A11
:105A8000F1EE10FA08DCF1EE666AF4EEE67AF1EE79
:105A900010FA13D5012100E001210846D4ED0D6A6A
:105AA000F4EEC76AF1EE10FA0AD4F1EE666AF4EE8B
:105AB000C76AF1EE10FA17DD012302E00021ECE7DE
:105AC0000123D4ED126A95ED0A7AF4EE476AF1EEFD
:105AD00010FA02D0002262646265626C32B1012A5F
