:020000040800F2
:1000000000000220F52C00084511000847110008E7
:10001000491100084B1100084D11000800000000B4
:100020000000000000000000000000004F11000868
:10003000511100080000000053110008551100087C
:10004000452D0008452D0008452D0008452D0008C8
:10005000452D0008452D0008452D0008452D0008B8
:10006000452D0008452D0008452D0008452D0008A8
:10007000452D0008452D0008452D0008452D000898
:10008000452D0008452D0008452D0008452D000888
:10009000452D0008452D0008452D0008452D000878
:1000A000452D0008452D0008452D0008452D000868
:1000B000452D0008452D0008452D0008452D000858
:1000C000452D0008452D0008452D0008452D000848
:1000D000452D00085D1100086D1100087D11000814
:1000E000452D0008452D0008452D0008452D000828
:1000F000452D0008452D0008452D0008452D000818
:10010000452D0008452D00088DC80008452D000824
:100110008D1100089D110008452D0008452D00088F
:10012000452D0008452D0008452D0008452D0008E7
:10013000452D00080000000000000000452D0008CB
:10014000452D0008452D0008452D0008452D0008C7
:10015000452D0008452D0008452D0008452D0008B7
:10016000452D0008452D0008452D0008452D0008A7
:10017000452D0008452D0008452D00080000000011
:1001800000000000452D00080000000000000000F5
:10019000452D00080000000000000000452D00086B
:1001A000000000000000000000000000452D0008D5
:1001B000452D0008452D0008452D0008452D000857
:0401C000452D0008C1
:1001D00080F0004002E000BF81F0004142001FBFFC
:1001E0005FEA410392EA030F7FEA226C7FEA236C05
:1001F0006AD04FEA1262D2EB1363C1BFD2184140FA
:1002000048404140B8BF5B42192B88BF704710F08F
:10021000004F40F4000020F07F4018BF404211F032
:10022000004F41F4000121F07F4118BF494292EA9A
:10023000030F3FD0A2F1010241FA03FC10EB0C00C6
:10024000C3F1200301FA03F100F0004302D5494253
:1002500060EB4000B0F5000F13D3B0F1807F06D300
:1002600040084FEA310102F10102FE2A51D2B1F1F8
:10027000004F40EBC25008BF20F0010040EA0300ED
:100280007047490040EB0000013A28BFB0F5000F6D
:10029000EDD2B0FA80FCACF1080CB2EB0C0200FA23
:1002A0000CF0AABF00EBC25052421843BCBFD04072
:1002B0001843704792F0000F81F4000106BF80F4EC
:1002C00000000132013BB5E74FEA41037FEA226CAF
:1002D00018BF7FEA236C21D092EA030F04D092F07A
:1002E000000F08BF0846704790EA010F1CBF0020AE
:1002F000704712F07F4F04D1400028BF40F000400B
:10030000704712F100723CBF00F50000704700F02A
:10031000004343F0FE4040F4000070477FEA226251
:1003200016BF08467FEA23630146420206BF5FEA22
:10033000412390EA010F40F4800070474FF0000322
:1003400004E000BF10F0004348BF40425FEA000CE9
:1003500008BF704743F0964301464FF000001CE091
:1003600050EA010208BF70474FF000030AE000BFE7
:1003700050EA010208BF704711F0004302D5404225
:1003800061EB41015FEA010C02BF84460146002097
:1003900043F0B64308BFA3F18053A3F50003BCFAB2
:1003A0008CF2083AA3EBC25310DB01FA02FC63445F
:1003B00000FA02FCC2F12002BCF1004F20FA02F266
:1003C00043EB020008BF20F00100704702F1200259
:1003D00001FA02FCC2F1200250EA4C0021FA02F2BA
:1003E00043EB020008BF20EADC7070477BB972B9AA
:1003F0000029BEBF00204FF0004106E008BF0028E2
:100400001CBF6FF000414FF0FF3000F057B8ADF166
:10041000080C6DE904CE002909DB002B1ADB0CF077
:1004200099FBDDF804E0DDE9022304B070474042A7
:1004300061EB4101002B1BDB0CF08CFBDDF804E0D1
:10044000DDE9022304B0404261EB4101524263EB1B
:1004500043037047524263EB43030CF07BFBDDF830
:1004600004E0DDE9022304B0404261EB4101704742
:10047000524263EB43030CF06DFBDDF804E0DDE971
:10048000022304B0524263EB4303704753B94AB9A5
:10049000002908BF00281CBF4FF0FF314FF0FF308C
:1004A00000F00CB8ADF1080C6DE904CE0CF052FB75
:1004B000DDF804E0DDE9022304B07047704700BFB7
:1004C00010F8012B11F8013B012A28BF9A42F7D0FE
:1004D000D01A70470000000000000000000000007B
:1004E00001F0FF01102A2BDB10F0070F08D010F8E5
:1004F000013B013A8B422DD010F0070F42B3F6D1E9
:10050000F0B441EA012141EA014122F007047FF001
:1005100000070023F0E80256083C85EA010586EA58
:10052000010685FA47F5A3FA87F586FA47F6A5FA94
:1005300087F68EB9EED1F0BC01F0FF0102F00702A0
:1005400032B110F8013B013A83EA010313B1F8D14B
:100550000020704701387047002D06BF354603382C
:10056000073815F0010F07D1013015F4807F02BF65
:10057000013015F4C03F0130F0BC0138704700BFB6
:10058000034613F8012B002AFBD1181A01387047D3
:100590000348044B834202D0034B03B11847704712
:1005A0002C0100202C010020000000000548064B13
:1005B0001B1AD90F01EBA301491002D0034B03B161
:1005C000184770472C0100202C010020000000007B
:1005D00010B5064C237843B9FFF7DAFF044B13B18B
:1005E0000448AFF300800123237010BD30010020C8
:1005F00000000000DCDF000808B5054B1BB1054911
:100600000548AFF30080BDE80840FFF7CFBF00BF4B
:100610000000000034010020DCDF000808B5064BB4
:10062000044613B100210DF083FA044B1B6803B19B
:100630009847204600F0C2FD31DB0008840200200C
:10064000002310B50446C0E90033C0E904338360D9
:1006500081814366C2818361194608225C3000F0C3
:10066000B1F80D4B63620D4BA3620D4BE3620D4B72
:1006700023630D4B24629C4206D003F1680294422E
:1006800002D0D0339C4205D104F15800BDE810409F
:1006900000F0C4B810BD00BF010B0008230B000818
:1006A0005B0B00087F0B00084C010020024A034945
:1006B000034800F069B800BF00000020710A00087C
:1006C0001000002041680C4B994210B5044601D03F
:1006D00000F0CEF9A168094B994202D0204600F003
:1006E000C7F9E168064B994204D02046BDE81040A6
:1006F00000F0BEB910BD00BF4C010020B4010020C5
:100700001C02002010B50B4B0B4C0C4A1A60204603
:1007100000220421FFF794FF04F16800012209215F
:10072000FFF78EFF04F1D0000222BDE81040122135
:10073000FFF786BF840200204C010020AD060008B0
:10074000014800F06CB800BF8A020020014800F0A8
:1007500067B800BF8A02002010B50446FFF7F0FF1B
:10076000236A1BB1BDE81040FFF7F0BF044B2362C2
:10077000044B1B68002BF5D1FFF7C4FFF2E700BF65
:10078000C5060008840200202DE9F8430746884684
:1007900014460026D4E90195B9F1010905D524686C
:1007A000002CF7D13046BDE8F883AB89012B07D97F
:1007B000B5F90E30013303D029463846C047064309
:1007C0006835E9E702440346934200D1704703F8D5
:1007D000011BF9E770B50D4D0D4C641BA4100026EC
:1007E000A64209D10B4D0C4C0DF0F8FB641BA41074
:1007F0000026A64205D170BD55F8043B9847013646
:10080000EEE755F8043B98470136F2E794EB000811
:1008100094EB000894EB000898EB000870477047D1
:100820007047000070B50F4E0C463168054611B98F
:1008300000F0CEF930602146284600F0C9F9431C8B
:1008400003D14FF0FF34204670BDC41C24F00304D4
:10085000A042F8D0211A284600F0BAF90130F2D1AE
:10086000EFE700BF8C0200202DE9F843CD1C25F0F6
:10087000030508350C2D38BF0C25002D064601DB7D
:10088000A94204D90C2333600020BDE8F883DFF8C7
:10089000D48000F029F9D8F800301C4644BB294622
:1008A0003046FFF7BFFF431C044658D1D8F800403C
:1008B0002746002F43D1002C4BD0236839463046C1
:1008C00004EB030900F084F9814542D121686D1AD7
:1008D00029463046FFF7A6FF01303AD023682B4463
:1008E0002360D8F800305A6862BBC8F800700FE087
:1008F0002268521B20D40B2A17D96119A342256004
:1009000018BF5960636808BFC8F8001062514B6097
:10091000304600F0EFF804F10B00231D20F0070033
:10092000C21A1CBF1B1AA350AFE76268A3420CBFD8
:10093000C8F800205A60EBE723466468AEE73C46FF
:100940007F68B6E71A465B68A342FBD10023536079
:10095000DEE70C233360304600F0CCF894E7056006
:10096000D6E700BF90020020B1F90C202DE9F0413C
:10097000160705460C4654D44B68002B02DC0B6C62
:10098000002B48DDE66A002E45D0002312F4805289
:100990002F68216A2B6030D0626DA389590705D575
:1009A0006368D21A636B0BB1236CD21A0023E66A18
:1009B000216A2846B047431CA38906D129681D290E
:1009C0002BD82A4ACA40D60727D500226260D9040C
:1009D0002269226004D5421C01D12B6803B96065ED
:1009E000616B2F60B9B104F14403994202D02846EB
:1009F00000F020F9002363630DE001232846B0478F
:100A00000246501CC9D12B68002BC6D01D2B01D02B
:100A1000162B1ED12F60002022E043F040031BB2B2
:100A20001BE00F69002FF6D093070E6808BF4B69D3
:100A30000F6018BF0023A6EB07088B60B8F1000F0A
:100A4000E9DD216AA66A43463A462846B0470028AF
:100A500008DCB4F90C3043F04003A3814FF0FF30C1
:100A6000BDE8F0810744A8EB0008E7E7010040205B
:100A700038B50B6905460C4613B90025284638BD24
:100A800018B1036A0BB9FFF767FEB4F90C30002BFD
:100A9000F3D0626ED00704D4990502D4A06DFFF79D
:100AA000BEFE28462146FFF75FFF636EDA07054664
:100AB000E4D4A3899B05E1D4A06DFFF7B1FEDDE787
:100AC000014620B9044A05490548FFF75DBE054BBC
:100AD0001868FFF7CDBF00BF00000020710A0008B2
:100AE000100000200C0000200148FFF798BE00BF56
:100AF000880200200148FFF793BE00BF8802002053
:100B000010B50C46B1F90E1000F050F80028ABBF3C
:100B1000636DA3891B1823F48053ACBF6365A38165
:100B200010BD2DE9F0411F468B89DB0505460C46BB
:100B3000164605D5B1F90E100223002200F024F864
:100B4000A389B4F90E1023F48053A38132463B46A7
:100B50002846BDE8F04100F04BB810B50C46B1F99D
:100B60000E1000F011F8431CA38915BF606523F433
:100B7000805343F48053A38118BFA38110BDB1F902
:100B80000E1000F047B8000038B5074D044608467F
:100B9000114600222A601A4600F030FB431C02D1A5
:100BA0002B6803B1236038BD9402002038B5074D8F
:100BB00004460846114600222A601A4600F004FB4B
:100BC000431C02D12B6803B1236038BD940200207E
:100BD00038B5064D0023044608462B6000F010FB94
:100BE000431C02D12B6803B1236038BD940200205E
:100BF00038B5074D04460846114600222A601A46B9
:100C000000F07CF8431C02D12B6803B1236038BD8F
:100C10009402002038B5064D0023044608462B6098
:100C200000F0E2FA431C02D12B6803B1236038BD07
:100C30009402002038B50546002941D051F8043C03
:100C40000C1F002BB8BFE418FFF74EFF1D4A1368B6
:100C500033B9636014602846BDE83840FFF74ABFE7
:100C6000A34208D9206821188B4201BF19685B682C
:100C700009182160EDE71A465B680BB1A342FAD967
:100C800011685018A0420BD12068014450188342CB
:100C90001160E0D118685B68536008441060DAE7BF
:100CA00002D90C232B60D6E7206821188B4204BFA1
:100CB00019685B68636004BF091821605460CAE763
:100CC00038BD00BF9002002008B50A480A4B0360F7
:100CD0004FF46133436000238360C36003610C22DF
:100CE00042618361C36101F038FD08B172B6FEE76D
:100CF00008BD00BF980200200044004010B5144613
:100D00004FF0FF3392B2024801F057FD204610BD6C
:100D10009802002000B595B03422002107A8FFF703
:100D200051FD0023029303930493059306930093CC
:100D30001A4A116C41F080511164126C02F0805219
:100D40000092009A019316490A6822F4404242F444
:100D500080420A600A6802F440420192019A02222B
:100D6000079201220A9210220B920D9307A800F01D
:100D700013FE68B90F23029300210391049105919A
:100D8000069102A800F09EFC28B915B05DF804FB9E
:100D90000BF034FEEEE70BF031FEF6E700380240D0
:100DA0000070004008B5FFF78FFFFFF7B3FF03485F
:100DB0000CF0ACFD05F05AFC08BD00BF48E000088F
:100DC00082B0002100910B4B5A6C42F480425A646D
:100DD0005A6C02F480420092009A01911A6C42F01F
:100DE00080521A641B6C03F080530193019B02B084
:100DF000704700BF0038024082B00368104A934237
:100E000004D0104A93420ED002B0704700230093E2
:100E10000D4B1A6C42F002021A641B6C03F00203C1
:100E20000093009BF0E700230193074B1A6C42F0FC
:100E300004021A641B6C03F004030193019BE3E7B3
:100E400000040040000800400038024030B589B07E
:100E50000023039304930593069307930368254A9D
:100E6000934204D0244A93422CD009B030BD0025CF
:100E70000095224B1A6B42F004021A631A6B02F0BF
:100E800004020092009A01951A6B42F002021A6362
:100E90001B6B03F002030193019B4FF44073039318
:100EA00002240494079403A9154800F005FB30239D
:100EB0000393049405950695079403A9114800F03F
:100EC000FBFAD2E7002302930C4B1A6B42F00202AA
:100ED0001A631B6B03F002030293029B4FF4E0734F
:100EE000039302230493079303A9064800F0E4FA4E
:100EF000BBE700BF0004004000080040003802408B
:100F00000008024000040240F0B593B000230D93A6
:100F10000E930F93109311930368804A934213D05A
:100F20007F4A934232D07F4A934267D07E4A9342AF
:100F300000F088807D4A934200F0A7807C4A93426B
:100F400000F0C98013B0F0BD00210091794B1A6CFC
:100F500042F400221A641A6C02F400220092009AF1
:100F600001911A6B42F001021A631B6B03F001033B
:100F70000193019B03230D9302220E9210930823E9
:100F800011930DA96C4800F097FADBE70024029456
:100F9000684B1A6C42F480121A641A6C02F48012C4
:100FA0000292029A03941A6B42F004021A631A6BBB
:100FB00002F004020392039A04941A6B42F00802AE
:100FC0001A631B6B03F008030493049B4FF48053D4
:100FD0000D9302270E9703261096082511950DA94B
:100FE000564800F069FA04230D930E970F9410965B
:100FF00011950DA9524800F05FFAA3E70021059171
:101000004C4B5A6C42F010025A645A6C02F01002B7
:101010000592059A06911A6B42F001021A631B6B46
:1010200003F001030693069B4FF4C0630D93022364
:101030000E9303231093072311930DA93E4800F04C
:101040003BFA7FE7002107913A4B1A6C42F40032D9
:101050001A641A6C02F400320792079A08911A6B0C
:1010600042F001021A631B6B03F001030893089B13
:101070000C230D9302230E93032310930723119344
:101080000DA92D4800F018FA5CE700210991294BC1
:101090001A6C42F480221A641A6C02F480220992BB
:1010A000099A0A911A6B42F004021A631B6B03F04F
:1010B00004030A930A9B4FF440630D9302230E939B
:1010C00001230F9303231093072311930DA91B48AA
:1010D00000F0F2F936E700210B91164B5A6C42F002
:1010E00020025A645A6C02F020020B920B9A0C9167
:1010F0001A6B42F004021A631B6B03F004030C9397
:101100000C9BC0230D9302230E93032310930823FB
:1011100011930DA9094800F0CFF913E7004C0040E6
:1011200000500040001001400044004000480040D2
:101130000014014000380240000002400008024054
:10114000000C0240FEE7FEE7FEE7FEE7FEE7704721
:101150007047704708B500F0C1F808BD08B50248EF
:1011600001F086FC08BD00BF0806002008B5024853
:1011700001F07EFC08BD00BF9802002008B50248BF
:1011800001F076FC08BD00BF7C04002008B50248D1
:1011900001F06EFC08BD00BFB003002008B5024896
:1011A00001F066FC08BD00BF6803002008B50CF024
:1011B00039FC162303604FF0FF3008BD08B54FF02F
:1011C000FF31FFF7F3FFFEE770B50C46164600252A
:1011D00006E0AFF30080214601F8010B01350C4613
:1011E000B542F6DB304670BD4FF0FF3070474FF42C
:1011F00000534B600020704701207047002070476B
:1012000010B503460C4A0D490D48006840B10C4822
:1012100000680344521A934206D8094A136010BD6D
:101220000748084C0460F2E70CF0FCFB0C23036059
:101230004FF0FF30F3E700BF000002200004000081
:10124000E002002090080020034AD2F8883043F4DE
:101250007003C2F88830704700ED00E010B5044616
:101260000E4B1A784FF47A73B3FBF2F30C4A106802
:10127000B0FBF3F000F0AEF868B90F2C01D90120F3
:101280000AE0002221464FF0FF3000F093F8054BB2
:101290001C60002000E0012010BD00BF60000020A5
:1012A0005C0000206400002008B50B4B1A6842F473
:1012B00000721A601A6842F480621A601A6842F476
:1012C00080721A60032000F063F80F20FFF7C6FF5A
:1012D000FFF776FD002008BD003C0240034A11687C
:1012E000034B1B780B441360704700BFE4020020DF
:1012F00060000020014B1868704700BFE402002026
:1013000038B50446FFF7F6FF0546B4F1FF3F02D0BB
:10131000044B1B781C44FFF7EDFF401BA042FAD39F
:1013200038BD00BF60000020002808DB0901C9B2F9
:1013300000F1604000F5614080F80013704700F054
:101340000F000901C9B2014B1954704714ED00E0B8
:1013500000B500F00700C0F1070CBCF1040F28BF76
:101360004FF0040C031D062B0FD9C31E4FF0FF3E98
:101370000EFA0CF021EA000199400EFA03FE22EA6F
:101380000E0241EA02005DF804FB0023EEE70000D4
:10139000074AD36823F4E0631B041B0C000200F42B
:1013A000E060034343F0BF6343F40033D36070470E
:1013B00000ED00E010B50446054BD868C0F30220EC
:1013C000FFF7C6FF01462046FFF7AEFF10BD00BF86
:1013D00000ED00E00138B0F1807F0BD24FF0E02348
:1013E0005861054AF02182F82310002098610722F5
:1013F0001A6170470120704700ED00E070B50446A7
:10140000866DFFF777FF94F83530DBB2022B06D0FC
:1014100080236365002384F83430012070BD0546C5
:101420002268136823F0160313602268536923F0BF
:1014300080035361236CE3B12268136823F008032F
:1014400013602268136823F00103136023681B688C
:1014500013F0010F11D0FFF74DFF431B052BF5D9FA
:1014600020236365032084F83500002384F834309A
:10147000D4E7A36C002BDFD1E3E7E26D3F23934079
:10148000B360012384F83530002084F83400C5E7C8
:1014900090F83530DBB2022B03D080234365012066
:1014A0007047052380F835300268136823F0010384
:1014B000136000207047000000230F2B00F2E38030
:1014C00070B582B065E085684FEA430E032404FAE4
:1014D0000EF425EA0405CC6804FA0EF42C4384606B
:1014E000446824EA02044A68C2F300129A40224384
:1014F00042605CE0DC08083450F8242003F0070563
:10150000AD004FF00F0E0EFA05FE22EA0E0E0A692C
:10151000AA4042EA0E0240F824205CE0062200E0E5
:10152000002202FA0EF22A430234574D45F82420D5
:10153000564A94686FEA0C0224EA0C054E6816F4C9
:10154000801F01D04CEA0405504CA560E46802EA13
:1015500004054E6816F4001F01D04CEA04054B4CFC
:10156000E560646802EA04054E6816F4003F01D0A5
:101570004CEA0405454C6560246822404D6815F42A
:10158000803F01D04CEA0402404C226001330F2B13
:1015900077D801229A400C6804EA020C32EA04046B
:1015A000F4D14C6804F00304013C012C8BD94A6847
:1015B00002F00302032A09D0C4685D000322AA4096
:1015C00024EA02048A68AA402243C2604A6802F000
:1015D0000302022A8ED004684FEA430E032202FA65
:1015E0000EF224EA02044A6802F0030202FA0EF242
:1015F000224302604A6812F4403FC7D000220192A1
:10160000234A546C44F480445464526C02F4804283
:101610000192019A9C08A51C1B4A52F8255003F020
:10162000030E4FEA8E0E0F2202FA0EF225EA020591
:10163000184A90423FF474AF02F58062904216D08F
:1016400002F58062904214D002F58062904212D07E
:1016500002F58062904210D002F5806290420ED076
:1016600002F5806290423FF459AF072259E7012208
:1016700057E7022255E7032253E7042251E70522E8
:101680004FE702B070BD704700380140003C014098
:1016900000380240000002400369194201D00120D5
:1016A0007047002070470AB1816170470904816169
:1016B0007047436901EA030221EA030141EA02415A
:1016C00081617047002800F09B8070B50D4604468C
:1016D0004F4B1B6803F00F038B4208D2CBB24C4A2E
:1016E0001370136803F00F038B4240F08B80236864
:1016F00013F0020F17D013F0040F04D0454A93687B
:1017000043F4E0539360236813F0080F04D0414A78
:10171000936843F4604393603E4A936823F0F00378
:10172000A1680B439360236813F0010F32D0636804
:10173000012B21D09A1E012A25D9364A126812F0AF
:10174000020F61D033498A6822F0030213438B6091
:10175000FFF7D0FD06462F4B9B6803F00C03626831
:10176000B3EB820F16D0FFF7C5FD801B41F2883323
:101770009842F0D9032042E0264A126812F4003F52
:10178000E0D101203BE0234A126812F0007FD9D15A
:10179000012034E01E4B1B6803F00F03AB4207D956
:1017A000EAB21B4B1A701B6803F00F03AB422DD13A
:1017B000236813F0040F06D0164A936823F4E0530D
:1017C000E1680B439360236813F0080F07D0114AB8
:1017D000936823F46043216943EAC103936000F0F6
:1017E00047F80C4B9B68C3F303130B4AD35CD840F8
:1017F0000A4B18600A4B1868FFF730FD002070BDD7
:10180000012070470120FAE70120F8E70120F6E700
:10181000003C02400038024048EA00085C0000201A
:1018200064000020014B1868704700BF5C00002076
:1018300008B5FFF7F7FF044B9B68C3F38223034A05
:10184000D35CD84008BD00BF0038024040EA000821
:1018500008B5FFF7E7FF044B9B68C3F34233034A25
:10186000D35CD84008BD00BF0038024040EA000801
:1018700008B5464B9B6803F00C03082B05D00C2BD6
:1018800043D0042B7FD1424819E0404B5A6802F004
:101890003F025B6813F4800F12D03C4B5968C1F3D0
:1018A00088113B480023A1FB0001FEF7EFFD374BF9
:1018B0005B68C3F3014301335B00B0FBF3F008BD89
:1018C000324B5868C0F388104FEA401CBCEB000C48
:1018D0006EEB0E0E4FEA8E1343EA9C634FEA8C11B7
:1018E000B1EB0C0163EB0E03DB0043EA5173C9005B
:1018F00011EB000C43F10003990200234FEA8C2006
:1019000041EA9C51FEF7C2FDD1E7204B5A6802F034
:101910003F025B6813F4800F10D01C4B5968C1F371
:1019200088111B480023A1FB0001FEF7AFFD174BF8
:101930005B68C3F30273B0FBF3F0C0E7134B586866
:10194000C0F388104FEA401CBCEB000C6EEB0E0E8F
:101950004FEA8E1343EA9C634FEA8C11B1EB0C0102
:1019600063EB0E03DB0043EA5173C90011EB000C7B
:1019700043F10003990200234FEA8C2041EA9C5175
:10198000FEF784FDD3E7034899E700BF0038024023
:1019900040787D010024F400002800F0018270B539
:1019A00082B00446036813F0010F41D0994B9B6845
:1019B00003F00C03042B32D0964B9B6803F00C030E
:1019C000082B27D0934B9B6803F00C030C2B59D0AA
:1019D0006368B3F5803F5BD0B3F5A02F5ED08D4B2D
:1019E0001A6822F480321A601A6822F480221A607F
:1019F0006368002B5CD0FFF77DFC0546854B1B68B8
:101A000013F4003F14D1FFF775FC401B6428F5D98F
:101A10000320CCE17F4B5B6813F4800FD2D07D4B69
:101A20001B6813F4003F03D06368002B00F0BA81F9
:101A3000236813F0020F60D0764B9B6813F00C0FF5
:101A40004AD0744B9B6803F00C03082B3FD0714BBA
:101A50009B6803F00C030C2B69D0E368002B75D056
:101A60006D4B01221A60FFF745FC0546694B1B6868
:101A700013F0020F61D1FFF73DFC401B0228F5D99E
:101A8000032094E1634B5B6813F4800FA0D0C6E79A
:101A9000604A136843F480331360A9E75D4B1A680A
:101AA00042F480221A601A6842F480321A609FE77A
:101AB000FFF720FC0546574B1B6813F4003FB7D0D7
:101AC000FFF718FC401B6428F5D903206FE1514B48
:101AD0005B6813F4800FBAD14E4B1B6813F0020FF2
:101AE00003D0E368012B40F05F814A4A136823F07A
:101AF000F803216943EAC1031360236813F0080F58
:101B000049D06369002B33D0434B0122C3F8802EA8
:101B1000FFF7F0FB05463F4B5B6F13F0020F3AD126
:101B2000FFF7E8FB401B0228F5D903203FE1394BC2
:101B30005B6813F4800F90D1CEE7364A136823F028
:101B4000F803216943EAC1031360D6E7324B002250
:101B50001A60FFF7CFFB05462E4B1B6813F0020FF0
:101B6000CBD0FFF7C7FB401B0228F5D903201EE1AD
:101B7000294B0022C3F8802EFFF7BCFB0546254BFE
:101B80005B6F13F0020F06D0FFF7B4FB401B022877
:101B9000F5D903200BE1236813F0040F76D01D4B19
:101BA0001B6C13F0805F33D100230193194B1A6C27
:101BB00042F080521A641B6C03F080530193019B26
:101BC0000125164B1B6813F4807F29D0A368012BD5
:101BD0003AD0052B3ED00F4B1A6F22F001021A6744
:101BE0001A6F22F004021A67A368002B3CD0FFF79B
:101BF00081FB0646074B1B6F13F0020F45D1FFF721
:101C000079FB801B41F288339842F3D90320CEE060
:101C10000025D6E70038024000004742007000402F
:101C20006B4A136843F480731360FFF763FB064647
:101C3000674B1B6813F4807FC8D1FFF75BFB801BE9
:101C40000228F5D90320B2E0624A136F43F0010382
:101C50001367C9E75F4B1A6F42F004021A671A6FE5
:101C600042F001021A67BFE7FFF744FB0646594BF3
:101C70001B6F13F0020F08D0FFF73CFB801B41F2F3
:101C800088339842F3D9032091E0EDB9A369002B82
:101C900000F08C804F4A926802F00C02082A54D05F
:101CA000022B17D04C4B00221A66FFF723FB044689
:101CB000484B1B6813F0007F45D0FFF71BFB001B50
:101CC0000228F5D9032072E0424A136C23F08053B6
:101CD0001364DBE7404B00221A66FFF70BFB054657
:101CE0003C4B1B6813F0007F06D0FFF703FB401B43
:101CF0000228F5D903205AE0E369226A1343626A95
:101D000043EA8213A26A5208013A43EA0243E26AB2
:101D100043EA0263226B43EA02732E4A53602E4B5E
:101D200001221A66FFF7E6FA04462A4B1B6813F0F5
:101D3000007F06D1FFF7DEFA001B0228F5D9032049
:101D400035E0002033E0002031E0012B31D0214B81
:101D50005B6803F48001E26991422CD103F03F02F9
:101D6000216A8A4229D1616A47F6C0721A40B2EBF1
:101D7000811F24D103F44031A26A5208013AB1EB29
:101D8000024F1ED103F07062E16AB2EB016F1AD10B
:101D900003F0E043226BB3EB027F16D1002006E094
:101DA00001207047012002E0012000E0002002B085
:101DB00070BD0120FBE70120F9E70120F7E70120D2
:101DC000F5E70120F3E70120F1E70120EFE700BF8D
:101DD00000700040003802400000474230B4036AFF
:101DE000026A22F0010202624268846924F0730CE4
:101DF0000C6844EA0C0423F0020C8B6843EA0C03E1
:101E0000114DA84203D005F58065A84205D123F005
:101E10000803CD682B4323F004030B4DA84203D0E5
:101E200005F58065A84207D122F440724D6945EA64
:101E3000020C8A6942EA0C02426084614A68426389
:101E4000036230BC704700BF0000014030B4036A39
:101E5000026A22F4807202624268C46924F0730C40
:101E60000C6844EA0C0523F400738C6843EA0423ED
:101E7000114CA04203D004F58064A04206D123F4A3
:101E80000063CC6843EA042323F480630A4CA04235
:101E900003D004F58064A04207D122F440524C697B
:101EA00042EA04128C6942EA04124260C5614A683F
:101EB000C263036230BC70470000014030B4036A63
:101EC000026A22F4805202624468C26922F4E64245
:101ED0000D6842EA052223F400538D6843EA053376
:101EE000094DA84203D005F58065A84204D124F429
:101EF00080444D6944EA85144460C2614A680264C2
:101F0000036230BC704700BF0000014010B4036A98
:101F1000046A24F001040462846924F0F00C4CEAA1
:101F2000021223F00A030B43826103625DF8044B43
:101F3000704710B4036A046A24F0100404628469D0
:101F400024F4704C4CEA023223F0A00343EA01135C
:101F5000826103625DF8044B7047836823F070036D
:101F60000B4343F007038360704770470368344AAC
:101F7000904212D0B0F1804F0FD0A2F57C42904237
:101F80000BD002F58062904207D002F58062904249
:101F900003D002F57842904203D123F070034A68DF
:101FA0001343274A90422AD0B0F1804F27D0A2F5A0
:101FB0007C42904223D002F5806290421FD002F50D
:101FC000806290421BD002F57842904217D002F511
:101FD0007052904213D002F5806290420FD002F509
:101FE000806290420BD0A2F59832904207D002F561
:101FF0008062904203D002F58062904203D123F4C4
:102000004073CA68134323F080034A691343036093
:102010008B68C3620B688362094B984203D003F557
:102020008063984201D10B69036301234361036913
:1020300013F0010F03D0036923F00103036170471C
:102040000000014040B310B5044690F83D30F3B1B4
:10205000022384F83D30214651F8040BFFF786FF38
:10206000012384F8463084F83E3084F83F3084F809
:10207000403084F8413084F8423084F8433084F8AA
:10208000443084F8453084F83D30002010BD80F89D
:102090003C30FEF7B1FEDBE70120704740B310B5DE
:1020A000044690F83D30F3B1022384F83D302146D8
:1020B00051F8040BFFF75AFF012384F8463084F8E7
:1020C0003E3084F83F3084F8403084F8413084F862
:1020D000423084F8433084F8443084F8453084F842
:1020E0003D30002010BD80F83C30FFF73EFFDBE7BD
:1020F0000120704730B4036A026A22F010020262C3
:102100004468826922F4E6420D6842EA052223F01F
:1021100020038D6843EA0513114DA84203D005F54D
:102120008065A84206D123F08003CD6843EA0513F9
:1021300023F040030A4DA84203D005F58065A8426C
:1021400007D124F440644D6944EA85048D6944EA6A
:102150008504446082614A688263036230BC7047D0
:102160000000014038B590F83C30012B66D00446A1
:102170000D46012380F83C300C2A5AD8DFE802F0E3
:10218000075959591B595959305959594400006830
:10219000FFF724FE2268936943F0080393612268E5
:1021A000936923F0040393612268936929690B43BF
:1021B000936100203EE00068FFF79CFF226893696E
:1021C00043F4006393612268936923F4806393610D
:1021D00022689369296943EA01239361002029E079
:1021E0000068FFF733FE2268D36943F00803D36128
:1021F0002268D36923F00403D3612268D369296973
:102200000B43D361002015E00068FFF757FE2268FA
:10221000D36943F40063D3612268D36923F48063F4
:10222000D3612268D369296943EA0123D36100207D
:1022300000E00120002384F83C3038BD0220FCE798
:1022400010B4846824F47F4C42EA03220A4342EA31
:102250000C0282605DF8044B704790F83C30012B13
:1022600078D010B50446012380F83C30022380F872
:102270003D300268936823F47F4323F07703936033
:102280000B68602B4CD023D8402B54D011D8202B76
:1022900003D00AD80BB1102B05D119462068FFF7DF
:1022A0005CFE002028E0012026E0302BF5D0012044
:1022B00022E0502B0AD1CA6849680068FFF726FE61
:1022C00050212068FFF749FE002015E0012013E0AF
:1022D000B3F5805F3AD0B3F5005F14D0702B37D1DF
:1022E000CB684A6889680068FFF7AAFF226893688C
:1022F00043F0770393600020012384F83D300023EE
:1023000084F83C3010BDCB684A6889680068FFF7E4
:1023100097FF2268936843F4804393600020EBE7C3
:10232000CA6849680068FFF704FE60212068FFF76B
:1023300014FE0020E0E7CA6849680068FFF7E6FD80
:1023400040212068FFF709FE0020D5E70020D3E7F1
:102350000120D1E70220704701F01F014FF0010C6E
:102360000CFA01FC036A23EA0C030362036A8A4045
:10237000134303627047000010B504460846002965
:1023800042D194F83E30DBB2013B18BF0123002B51
:102390006ED1002851D1022384F83E30012201463B
:1023A0002068FFF7D9FF2368334A934203D002F530
:1023B0008062934203D15A6C42F400425A6423680B
:1023C0002D4A934249D0B3F1804F46D0A2F57C42CA
:1023D000934242D002F5806293423ED002F5806281
:1023E00093423AD002F57842934236D002F57052C9
:1023F000934232D0A2F5943293422ED01A6842F022
:1024000001021A60002032E0042908D008290DD00A
:1024100094F84130DBB2013B18BF0123B7E794F8D1
:102420003F30DBB2013B18BF0123B0E794F84030E6
:10243000DBB2013B18BF0123A9E7042805D0082817
:1024400007D0022384F84130A8E7022384F83F3004
:10245000A4E7022384F84030A0E79A6802F007025C
:10246000062A07D01A6842F001021A60002010BD47
:102470000120FCE70020FAE70000014090F83C2032
:10248000012A3DD010B40346012280F83C200222EC
:1024900080F83D2002685068946820F0700C08684D
:1024A00040EA0C0050601A68164882421AD0B2F115
:1024B000804F17D0A0F57C40824213D000F5806099
:1024C00082420FD000F5806082420BD000F5784048
:1024D000824207D000F57050824203D0A0F59430BC
:1024E000824204D124F08004496821439160012292
:1024F00083F83D20002083F83C005DF8044B7047D2
:102500000220704700000140026802F10C0353E80A
:10251000003F23F490730C3242E800310029F3D1DC
:10252000026802F1140353E8003F23F00103143260
:1025300042E800310029F3D1036B012B05D02023A1
:1025400080F84230002303637047026802F10C03F5
:1025500053E8003F23F010030C3242E80031002919
:10256000F3D1ECE790F84130DBB2212B01D002200F
:1025700070478368B3F5805F17D0036A5A1C026204
:102580001A7803685A60C38C9BB2013B9BB2C38428
:102590004BB90268D36823F08003D3600268D36824
:1025A00043F04003D360002070470369002BE4D15F
:1025B000036A1B880268C3F308035360036A02338B
:1025C0000362E0E710B504460268136923F4405340
:1025D000C1680B431361836802691A4343691A4354
:1025E000C3691A430168CB6823F4164323F00C0334
:1025F0001343CB600268536923F4407381690B4332
:1026000053610368314A934206D002F580629342D7
:1026100002D0FFF70DF901E0FFF71AF9E369B3F50E
:10262000004F29D00021031849411B1841F1000136
:10263000C90041EA5371DB00181863684FEA83024E
:102640004FEA937341F10001FDF720FF204AA2FBFE
:1026500000314909642303FB11031B013233A2FB40
:1026600003235B0903F0F00202EB011203F00F03F6
:10267000216813448B6010BD0023021843EB030153
:10268000121841F10001C90041EA5271D20010183C
:1026900041F10001626892185B41FDF7F7FE0C4AB8
:1026A000A2FB00314909642303FB1103DB00323331
:1026B000A2FB03235B095A0002F4F87202EB011239
:1026C00003F00703216813448B60D4E70010014036
:1026D0001F85EB512DE9F04383B005460E461746A2
:1026E0009946DDF828802B681C6836EA04040CBF84
:1026F00001240024BC4228D1B8F1FF3FF3D0FEF7FB
:10270000F9FDA0EB0900404523D8B8F1000F22D015
:102710002B68DA6812F0040FE5D0802EE3D0402E4B
:10272000E1D01A6812F0080FDDD0002401941A6875
:1027300001925B680193019B2846FFF7E5FE0823A1
:102740006B6485F84040012000E0002003B0BDE844
:10275000F0830320FAE70320F8E760B310B50446DE
:1027600090F8413013B3242384F841302268D368B1
:1027700023F40053D3602046FFF724FF2268136937
:1027800023F4904313612268536923F02A035361B1
:102790002268D36843F40053D36000206064202390
:1027A00084F8413084F84230606310BD80F84030D6
:1027B000FEF7AAFBD7E7012070472DE9F04182B070
:1027C0001E4690F84130DBB2202B56D104460D4610
:1027D0009046002955D00AB901204FE000234364F8
:1027E000212380F84130FEF785FD0746A4F82480B8
:1027F000A4F82680A368B3F5805F02D04FF00008EC
:1028000014E023692BB34FF000080FE0202384F875
:102810004130032032E038F8023B2268C3F308035A
:102820005360E28C92B2013A92B2E284E38C9BB2A2
:1028300093B100963B46002280212046FFF74AFFD5
:102840000028E3D1002DE6D015F8012B23685A604B
:10285000E7E7A8460025E9E700963B46002240212D
:102860002046FFF737FF18B9202384F8413005E0F0
:10287000202384F84130032000E0022002B0BDE8AC
:10288000F0810120FAE72DE9F04182B01E4690F870
:102890004230DBB2202B59D104460D469046002928
:1028A00058D00AB9012052E000234364222280F864
:1028B00042200363FEF71EFD0746A4F82C80A4F80F
:1028C0002E80A368B3F5805F02D04FF000081CE0B3
:1028D000236913B14FF0000817E0A846002514E063
:1028E000202384F84230032031E023685B68C3F37F
:1028F000080328F8023B03E023685B682B7001356E
:10290000E28D92B2013A92B2E285E38D9BB2C3B1FD
:1029100000963B46002220212046FFF7DBFE0028E0
:10292000DED1002DE1D0A368B3F5805FE4D013B908
:102930002369002BE0D023685B6803F07F032B70D2
:10294000DDE7202384F84230002000E0022002B0BE
:10295000BDE8F0810120FAE708B50168CA6822F0F5
:102960004002CA60202280F8412003F0D1FD0020FF
:1029700008BD7047704708B5806B0023C385C384CA
:10298000FFF7F8FF08BD704790F84230DBB2222B0A
:1029900069D18368B3F5805F4FD0826AB3F5805FF9
:1029A00004D0002B56D10369002B53D103685B6818
:1029B0001370836A01338362C38D9BB2013B9BB268
:1029C000C385002B51D100B583B00268D36823F0D2
:1029D0002003D3600268D36823F48073D360026855
:1029E000536923F001035361202380F84230002310
:1029F0004363036B012B33D100230363026802F1AD
:102A00000C0353E8003F23F010030C3242E800317E
:102A10000029F3D103681A6812F0100F06D00022C3
:102A200001921A6801925B680193019B818DFFF707
:102A3000AAFF002003B05DF804FB0269002AACD1B4
:102A4000826A03685B68C3F308031380836A0233F6
:102A50008362B1E703685B6803F07F031370A8E744
:102A6000FFF787FFE5E7022070470020704700006E
:102A700010B582B0044602681368D068516913F03B
:102A80000F0F09D113F0200F0CD010F0200F09D038
:102A90002046FFF779FF16E011F0010115D110F47F
:102AA000907F12D1216B012979D013F0800F03D0D0
:102AB00010F0800F40F0148113F0400F03D010F09D
:102AC000400F40F0118102B010BD13F0010F06D08D
:102AD00010F4807F03D0626C42F00102626413F054
:102AE000040F04D019B1626C42F00202626413F068
:102AF000020F04D019B1626C42F00402626413F058
:102B0000080F07D010F0200F00D119B1626C42F00D
:102B100008026264626C002AD5D013F0200F02D044
:102B200010F0200F29D123685B6903F04003626C29
:102B300012F0080F00D163B32046FFF7E5FC2368CD
:102B40005B6913F0400F20D0226802F1140353E8B0
:102B5000003F23F04003143242E800310029F3D152
:102B6000E36B73B1624A1A65E06BFEF791FC0028D3
:102B7000A9D0E06B036D9847A5E72046FFF704FF57
:102B8000D1E72046FFF7F6FE9DE72046FFF7F2FE6D
:102B900099E72046FFF7EEFE0023636493E713F006
:102BA000100F82D010F0100F3FF47FAF002301937D
:102BB0001368019353680193019B536913F0400F0D
:102BC00052D0E26B13685B689BB2002B3FF47BAF83
:102BD000A18D99427FF677AFE385D369B3F5807F06
:102BE00037D0226802F10C0353E8003F23F48073CE
:102BF0000C3242E800310029F3D1226802F11403BB
:102C000053E8003F23F00103143242E80031002969
:102C1000F3D1226802F1140353E8003F23F040038C
:102C2000143242E800310029F3D1202384F84230E5
:102C300000232363226802F10C0353E8003F23F0D2
:102C400010030C3242E800310029F3D1E06BFEF7AB
:102C5000D5FB02236363A18DE38D9BB2C91A89B2B0
:102C60002046FFF790FE2EE7A18DE38D9BB2C91A97
:102C700089B2E38D9BB2002B3FF425AF00293FF4CE
:102C800022AF226802F10C0353E8003F23F4907353
:102C90000C3242E800300028F3D1226802F114031C
:102CA00053E8003F23F00103143242E800300028CB
:102CB000F3D1202384F8423000232363226802F1F9
:102CC0000C0353E8003F23F010030C3242E80030BD
:102CD0000028F3D1022363632046FFF754FEF2E697
:102CE0002046FFF73FFCEEE62046FFF735FEEAE61A
:102CF00077290008DFF834D0FEF7A6FA0C480D4912
:102D00000D4A002302E0D458C4500433C4188C4246
:102D1000F9D30A4A0A4C002301E013600432A242AC
:102D2000FBD3FDF757FDFEF73DF87047000002208A
:102D3000000000202C0100209CEB00083001002046
:102D40008C080020FEE700002DE9F04F89B0054611
:102D50000E4693461F46DDF8488000F1180393E8BD
:102D600003008DE8030005F110030CCB284607F0A3
:102D7000DCFC002859D1002F5FDBB8F1000F04D034
:102D8000D8F80C300133C8F80C30002E5ED0337FF9
:102D900033B9336A726A13EB0B039B4642EB0707A6
:102DA000CDF808B0039705F1180393E803008DE808
:102DB000030005F110030CCB04A807F0B9FAD6F80C
:102DC0002890D6F82CA0284607F0C6FC0446C0F888
:102DD0001C80866196F83030002B3CD1B9F1010F90
:102DE0007AF1000342DB337F002B4AD1B76BF26BE1
:102DF000B2F1004F08BF002F43D017EB090742EB99
:102E00000A09049BBB42059B73EB090339DA96F868
:102E10004830012B00F09180022B00F0978004973E
:102E2000CDF81490002306932BE0404608F0E0FA1A
:102E30005F4809F041F9002051E05A463B465D48A1
:102E400009F03AF94FF0000B5F4696E7404608F06C
:102E5000CFFA002043E007F0C1FA10EB0B0047EB7C
:102E600001070490059700230693B7E708AB13E921
:102E70000F0084E80F002146286B09F04CF8002869
:102E80003CD105F110030FCB8DE80F0008AB13E91F
:102E90000F0007F02AFA10B9069B0133069304AF1E
:102EA00097E80F0084E80F0008AB13E903008DE8F2
:102EB000030097E80C00284607F037FC00286BD188
:102EC000383608AB13E90F0086E80F002146286B5F
:102ED00009F01DF8E86D431CEB65002B65DB09B0BC
:102EE000BDE8F08F069B0133069308AB13E90F0092
:102EF00084E80F002146286B09F00DF80028F1D175
:102F000008AB13E903008DE8030004AB0CCB2846A3
:102F100007F00BFC28B12146284607F0D5FC00201D
:102F2000DDE7383608AB13E90F0086E80F002146CD
:102F3000286B08F0ECFF0020D1E7404608F058FA73
:102F40002146284607F0C0FC0020C8E7284607F0C5
:102F500003FC8246866106F138030FCB8AE80F0036
:102F60005146286B08F0D7FF60B1414607F06EFD6F
:102F70002146284607F0A8FC5146284607F0A4FC45
:102F80000020ACE75146284607F09EFC0497CDF898
:102F900014900023069374E7404608F029FA21466E
:102FA000284607F091FC002099E70123EB6596E79E
:102FB0006CE0000894E0000810B483B0846D0094C5
:102FC000C36D0193002307E054F82320916A054A5A
:102FD00002EB830211600133062BF5DD03B05DF8CF
:102FE000044B7047E802002070B588B000240394B9
:102FF00004940594069407940194204B1A6B42F0B4
:1030000002021A631A6B02F002020192019A029400
:103010001A6B42F080021A631B6B03F08003029369
:10302000029B174D224603212846FEF73CFB032353
:103030000393012604960594069403A92846FEF7F7
:103040003BFAA5F5E05522464FF400412846FEF72D
:103050002AFB4FF40043039304960594069403A9B6
:103060002846FEF729FA072303930494059403A93D
:103070000448FEF721FA08B070BD00BF00380240D6
:10308000001C02400008024008B50A480A4B0360D1
:103090004FF4E133436000238360C36003610C227B
:1030A00042618361C361FFF758FB00B908BD09F0B5
:1030B000A5FCFBE7B0030020004C004008B50A481F
:1030C0000A4B03604FF4E133436000238360C36025
:1030D00003610C2242618361C361FFF73EFB00B9CB
:1030E00008BD09F08BFCFBE768030020005000409E
:1030F00008B50A480A4B03604FF4E13343600023EC
:103100008360C36003610C2242618361C361FFF786
:1031100024FB00B908BD09F071FCFBE72003002087
:103120000014014008B5FFF75FFFFFF7ADFFFFF7A1
:10313000C5FFFFF7DDFF08BDF0B585B0D0F8BC7066
:103140000097D0F8C0300193D0F8C4600296D0F850
:10315000C8300393002400E00134062C23DCA500D2
:1031600057F82430002283F8282057F8240008F06C
:1031700027FB57F82400C3681BB10122816A08F0BD
:1031800062F97259094B03EB84031B68936270590F
:1031900008F016FB7059C368002BDDD00122816A4C
:1031A00008F051F9D8E705B0F0BD00BFE8020020F3
:1031B00030B583B0D0F8CC500095D0F8D030019322
:1031C000002400E00134062C14DC55F824200A4BBE
:1031D00003EB84031B68936255F8240008F0F0FAAF
:1031E00055F82400C368002BECD00122816A08F056
:1031F0002AF9E7E703B030BD0403002070B50446A8
:1032000000F1240500F592660022012301E000236D
:103210000132052A0FDC002BF9D0174B03EB820398
:10322000D3ED007AF5EE407AF1EE10FA01D00023EA
:10323000EEE70123ECE7E3B970BD104A02EB83022D
:10324000002111600133062BF7DD012385F82830BA
:10325000284608F0B5FAEB6823B10122A96A28468E
:1032600008F0F1F8A6610123237705480AF04EFB28
:10327000E2E70023E7E700BFE802002004030020A4
:10328000DCE0000870B584B00646D0F8BC5000956C
:10329000D0F8C0300193D0F8C4400294D0F8C830C0
:1032A0000393016A78480AF0C9FA4FF4004177485D
:1032B000FEF7FFF9336A002B67D1012333622368DD
:1032C000734A9A62206808F07BFA2068C3681BB1D1
:1032D0000122816A08F0B7F863686D4A9A626068F3
:1032E00008F06EFA6068C3681BB10122816A08F0B9
:1032F000AAF8A368664A9A62A06808F061FAA06812
:10330000C3681BB10122816A08F09DF8E368604A36
:103310009A62E06808F054FAE068C3681BB10122C1
:10332000816A08F090F82369594A9A62206908F086
:1033300047FA2069C3681BB10122816A08F083F84B
:103340006369534A9A62606908F03AFA6069C3682F
:103350001BB10122816A08F076F8A3694C4A9A628F
:10336000A06908F02DFAA069C3681BB10122816A27
:1033700008F069F8474B00221A605A609A60DA60D8
:103380001A615A619A61002467E00023336223685E
:10339000414A9A62206808F013FA2068C3681BB19A
:1033A0000122816A08F04FF863683B4A9A626068BC
:1033B00008F006FA6068C3681BB10122816A08F050
:1033C00042F8A368344A9A62A06808F0F9F9A06844
:1033D000C3681BB10122816A08F035F8E3682E4A00
:1033E0009A62E06808F0ECF9E068C3681BB101225A
:1033F000816A08F028F82369274A9A62206908F050
:10340000DFF92069C3681BB10122816A08F01BF84B
:103410006369214A9A62606908F0D2F96069C368F9
:103420001BB10122816A08F00EF8A3691A4A9A6258
:10343000A06908F0C5F9A069C3681BB10122816ABF
:1034400008F001F8134B154A1A605A609A60DA6066
:103450001A615A619A6196E70134062C12DC55F81C
:103460002430002283F8282055F8240008F0A8F919
:1034700055F82400C368002BEED00122816A07F0C2
:10348000E2FFE9E704B070BDF8E000080000024088
:10349000000048C204030020000048420000C04071
:1034A000F8B54FF4956007F0B7F86FF001040465C4
:1034B000C0F8B84000F5CC71024642F8B01F426730
:1034C0009FED6B7B80ED267B0022C0F8A0200121C0
:1034D0008167C0F8D440C0F8E020694CC0F8D840FB
:1034E000C0F8DC00C0F81C21C0F82021654CC0F8F1
:1034F0002C41C0F83021C0F84011634DC0F838515C
:10350000C0F83C01C0F87C21C0F88021C0F88C4193
:1035100000F58F65C0F890510226C0F8A0615B4F9E
:10352000C0F89871C0F89C01C0F8DC21C0F8E02117
:10353000C0F8EC41C0F8F0510327C0F80072544FB6
:10354000C0F8F871C0F8FC01C0F83C22C0F8402275
:10355000C0F84C42C0F850520427C0F860724D4F7A
:10356000C0F85872C0F85C02C0F89C22C0F8A022D3
:10357000C0F8AC4200F59267C0F8B0720527C0F8F9
:10358000C072454FC0F8B872C0F8BC02C0F8FC2247
:10359000C0F80023C0F80C43C0F8102380EDD47BA2
:1035A000C0F8582300F5FC74C0F8684300F52E7489
:1035B000C0F86C4300F55A74C0F82C43C0F830636F
:1035C00080F8341380EDEA7BC0F8B02300F5167460
:1035D000C0F8C04300F57074C0F88443C0F8881385
:1035E00080F88C1300F5806484ED007BC0F808241B
:1035F00000F59C74C0F8184400F58364C0F8DC43FF
:10360000C0F8E01380F8E41300F1D804C0F8704467
:1036100000F58C6404ED027BC0F8602400F58E6434
:10362000C0F83444C0F8381480F83C2400F10C0190
:10363000C0F87814194CC0F87C4400F590649FEDF4
:103640000E7B84ED007B80F88824C0F89014144928
:10365000C0F8941400F5946101ED027B80F8A02479
:10366000C2600561456182610277F8BDAFF30080F9
:1036700000000000000000800000000000000000CA
:10368000253100080CE10008FD310008B92F0008C1
:103690003931000885320008B131000810E1000816
:1036A00018E1000808B54FF0FF3301220249034832
:1036B000FFF783F808BD00BFAC0000207C040020A9
:1036C00008B50A480A4B03604FF4612343600023A6
:1036D0008360C36003610C2242618361C361FFF7B1
:1036E0003CF800B908BD09F089F9FBE77C0400202B
:1036F0000048004010B5FFF7E3FF084C4FF0FF33E0
:10370000012207492046FFF758F84FF0FF33012206
:1037100004492046FFF751F810BD00BF7C0400208B
:10372000AC000020A800002010B582B08DF8070082
:10373000184C4FF0FF3301220DF107012046FFF72F
:103740003CF84FF0FF33312213492046FFF79BF836
:10375000002400E00134062C1ADCC4EBC4030E4A3A
:10376000D15C581C105C01EB0021981C105C01EB33
:1037700000410333D35C01EB0361084B43F8241091
:10378000074B1B68632BE5DD06480AF057F8E1E7B5
:1037900002B010BD7C04002014040020F8030020B7
:1037A000780400201CE10008F8B5456E076FFDF7AE
:1037B000A1FD06463C4B1878FFF7B6FF002400E059
:1037C0000134062C26DC394BD3ED007A77EEA77A4C
:1037D000374B03EB840393ED007AB8EEC77A354B91
:1037E00003EB840393ED006AC7EE066A57F82430B2
:1037F00067EEA67AC3ED0A7A57F8240007F0E0FFD7
:1038000057F82400C368002BDAD00122816A07F040
:103810001AFED5E7244B5878FFF786FF002400E016
:103820000134062C26DC214BD3ED007A77EEA77A03
:103830001F4B03EB840393ED007AB8EEC77A1E4B5F
:1038400003EB840393ED006AC7EE066A55F8243053
:1038500067EEA67AC3ED0A7A55F8240007F0B0FFA8
:1038600055F82400C368002BDAD00122816A07F0E2
:10387000EAFDD5E7FDF73EFD104B1B68632B07DC27
:103880000E4B1B68642B0BDD0C4B00221A60F8BD3D
:10389000811B0B4809F0D2FF0A480AF037F8EFE71E
:1038A0000133064A1360F2E7A400002068000020FC
:1038B000F80300206C00002088000020780400201D
:1038C00024E100082CE1000838B54FF4287006F018
:1038D000A3FE00F13002826240650022C0F8802021
:1038E00031498167C067C0F8BC20C0F8C0202F4CA8
:1038F000C0F8CC40C0F8D0200121C0F8E0102C4D19
:10390000C0F8D850C0F8DC00C0F81C21C0F8202155
:10391000C0F82C41C0F830210225C0F84051254D97
:10392000C0F83851C0F83C01C0F87C21C0F88021B3
:10393000C0F88C41C0F890219FED197B80ED747B1D
:10394000C0F8D82100F59C74C0F8E84100F5F47483
:10395000C0F8AC41C0F8B01180F8B41100F178049F
:10396000C0F8404280ED8A7BC0F8302200F5107428
:10397000C0F80442C0F8081280F80C2280EDA07B49
:10398000C0F8882200F1D802C0F8982200F526720B
:10399000C0F85C22C0F86012C0F8481238BD00BF01
:1039A0000000000000000080F53600080CE100086F
:1039B000A5360008A9370008F0B482B0D0F8B87175
:1039C000D0F82062D0F88852D0F8F042D0F85813DE
:1039D000D0F8C023036B0193D0F85031D3F828C03E
:1039E000019BC3F800C0036BD7F828C0C3F804C01C
:1039F000036BD6F828C0C3F808C0036BD5F828C0FD
:103A0000C3F80CC0036BD4F828C0C3F810C0036B14
:103A1000896A5961036B926A9A6102B0F0BC70477F
:103A200030B4456BC46E00230DE055F82310826A54
:103A300091F82810D15454F82310C26A02EB830283
:103A4000896A11600133062BEFDD30BC70472DE928
:103A5000F04F89B0044600F2244BCDF804B000F5D5
:103A60008A6ACDF808A000F27C49CDF80C9000F5E8
:103A70009568CDF8108000F2D447059700F5A06650
:103A8000069600F22C550795836A1B78002B00F0F0
:103A90008180036B1B68CBF82830584607F090FEF6
:103AA000DBF80C302BB10122DBF82810584607F068
:103AB000CAFCA36A5B78002B6FD0236B5B68CAF8E3
:103AC0002830504607F07CFEDAF80C302BB101228A
:103AD000DAF82810504607F0B6FCA36A9B78002B52
:103AE0005ED0236B9B68C9F82830484607F068FE13
:103AF000D9F80C302BB10122D9F82810484607F02C
:103B0000A2FCA36ADB78002B4DD0236BDB68C8F8DE
:103B10002830404607F054FED8F80C302BB1012273
:103B2000D8F82810404607F08EFCA36A1B79002BBA
:103B30003CD0236B1B69BB62384607F041FEFB6833
:103B400023B10122B96A384607F07DFCA36A5B798C
:103B5000002B2ED0236B5B69B362304607F030FE3A
:103B6000F36823B10122B16A304607F06CFCA36A06
:103B70009B790BB3236B9B69AB62284607F020FE51
:103B8000EB6823B10122A96A284607F05CFC09B062
:103B9000BDE8F08FC36A1B687DE7E36A5B688EE768
:103BA000E36A9B689FE7E36ADB68B0E7E36A1B6947
:103BB000C1E7E36A5B69CFE7E36A9B69DCE7000082
:103BC00070B540F6780006F027FD0066C0F8980052
:103BD000C0F8D000C0F80801C0F840016FF001043F
:103BE000C0F8B04100F5AC65C0F8A85100F5D4723A
:103BF000C0F86C219FED707B80ED647B0022C0F8E3
:103C000098210121C0F87011C0F81842C0F8105274
:103C100000F50476C0F8D46180ED7E7BC0F8002208
:103C2000C0F8D811C0F88042C0F8785200F51E766E
:103C3000C0F83C6280ED987BC0F86822C0F8401262
:103C4000C0F8E842C0F8E05200F53876C0F8A46247
:103C500080EDB27BC0F8D022C0F8A812C0F8504363
:103C6000C0F8485300F55276C0F80C6380EDCC7B69
:103C7000C0F83823C0F81013C0F8B843C0F8B053E8
:103C800000F56C76C0F8746380EDE67BC0F8A02385
:103C9000C0F87813C0F82044C0F8185400F58365C4
:103CA000C0F8DC5300F5806585ED007BC0F8082482
:103CB000C0F8E013C0F85845C0F86825404CC0F87B
:103CC0006045C0F86405C0F8A425C0F8A8253D4C9F
:103CD000C0F8B445C0F8B825C0F8C8153A4DC0F8CA
:103CE000C055C0F8C405C0F80426C0F80826C0F8BE
:103CF0001446C0F818260225C0F82856334DC0F8DF
:103D00002056C0F82406C0F86426C0F86826C0F81B
:103D10007446C0F8782600F5D86404ED027BC0F83C
:103D2000C02600F5C464C0F8D04600F5DA64C0F8D7
:103D30009446C0F8981680F89C1600F5E26484ED6D
:103D4000007BC0F8182700F5B864C0F8284700F5D4
:103D5000E565C0F8EC56C0F8F016C0F8D81600F5C6
:103D6000EE6505ED027BC0F87027C0F8804700F5CE
:103D7000F064C0F84447C0F848170421C0F8301771
:103D800000F5F86484ED007BC0F8C827C0F88817F8
:103D900000F5016484ED007BC0F81828C0F8D8173E
:103DA00000F5066484ED007BC0F86828C0F8281888
:103DB00070BD00BFAFF30080000000000000008075
:103DC000B93900080CE10008213A00084F3A000810
:103DD0008842A8BF084670478842B8BF0846704767
:103DE00010B507EE900A0C46F5EEC07AF1EE10FA27
:103DF00023D4FDEEE77A17EE901A0320FFF7ECFFCD
:103E00004FF47A7303FB00F307EE903A1E4B03EB7B
:103E1000840393ED007AF8EEE77A67EE877ADFEDB8
:103E20001B6A87EEA67A1A4B53F82410FDEEC77A68
:103E300017EE900AFFF7CCFF10BDF1EE677AFDEEAA
:103E4000E77A17EE901A0320FFF7C6FF4FF47A7354
:103E500003FB00F307EE903A0B4B03EB840393ED67
:103E6000007AF8EEE77A67EE877ADFED086A87EE88
:103E7000A67A074B53F82410FDEEC77A17EE900A86
:103E8000FFF7A6FFD8E700BFB00000200000C8423F
:103E9000CC00002000B58FB000230A930B930C9345
:103EA0000D9308930993019302930393049305934D
:103EB000069307932F48304A0260436083604FF4B3
:103EC0007A72C26003618361FEF7BCF8002839D1C1
:103ED0004FF480530A930AA92648FEF7BEF900283A
:103EE00033D12448FEF7DAF8002831D100230893B3
:103EF000099308A91F48FEF7C1FA60BB602301932C
:103F0000002202920392059201A91A48FEF72AF9AB
:103F100020BB04220DEB02011648FEF723F900BB7B
:103F2000082201A91348FEF71DF9E8B90C2201A9DE
:103F30001048FEF717F9D0B90E48FCF787FF0FB00D
:103F40005DF804FB08F05AFDC2E708F057FDC8E72A
:103F500008F054FDCAE708F051FDCFE708F04EFD28
:103F6000D7E708F04BFDDBE708F048FDDEE708F097
:103F700045FDE1E70C0500200004004000B58FB0CE
:103F800000230A930B930C930D93089309930193C9
:103F90000293039304930593069307932A482B4AAD
:103FA0000260436083604FF47A72C2600361836190
:103FB000FEF748F8002831D14FF480530A930AA93C
:103FC0002148FEF74AF960BB1F48FEF767F858BB67
:103FD00000230893099308A91B48FEF74FFA30BB4A
:103FE00060230193002202920392059201A91648D0
:103FF000FEF7B8F8F0B904220DEB02011248FEF703
:10400000B1F8D0B9082201A90F48FEF7ABF8B8B94A
:104010000D48FCF71BFF0FB05DF804FB08F0EEFC49
:10402000CAE708F0EBFCCFE708F0E8FCD0E708F0BF
:10403000E5FCD5E708F0E2FCDDE708F0DFFCE1E7AE
:1040400008F0DCFCE4E700BFC404002000080040E6
:104050002DE9F04188B0002403940494059406945B
:1040600007940194314B1A6B42F002021A631A6BE7
:1040700002F002020192019A02941A6B42F00402C9
:104080001A631B6B03F004030293029B284E224623
:1040900030213046FDF707FB3023039301250495BB
:1040A0004FF00208CDF81480069403A93046FDF7BE
:1040B00003FA06F5806622464FF20E613046FDF7A0
:1040C000F2FA4FF20E6303930495CDF81480069430
:1040D00003A93046FDF7F0F9164F22464EF23001A3
:1040E0003846FDF7E0FA4EF2300303930495CDF81D
:1040F0001480069403A93846FDF7DEF908230393DC
:104100000494059403A93846FDF7D6F922462946BA
:104110003046FDF7C8FA039504950594069403A963
:104120003046FDF7C9F908B0BDE8F081003802401B
:10413000000002400008024030B585B00024019420
:10414000354B1A6B42F001021A631A6B02F001023E
:104150000192019A02941A6B42F002021A631A6BDE
:1041600002F002020292029A03941A6B42F00402D5
:104170001A631B6B03F004030393039BFFF78AFE90
:10418000FFF7FCFEFFF764FF244D2246022128467C
:10419000FDF789FA224604212846FDF784FA2246D3
:1041A00008212846FDF77FFA22464FF40071284681
:1041B000FDF779FA22464FF480612846FDF773FA3D
:1041C00022464FF480512846FDF76DFA22464FF4FF
:1041D00000512846FDF767FA114D21462846FEF7A3
:1041E000CBF804212846FEF7C7F808212846FEF739
:1041F000C3F80C212846FEF7BFF80A4D2146284691
:10420000FEF7BAF804212846FEF7B6F8082128463A
:10421000FEF7B2F805B030BD00380240000402409D
:104220000C050020C40400202DE9F04F83B0D0F825
:1042300020A0476DD0F88860D0F8BC90D0F8F0800E
:10424000D0F82451D0F858310193DAED0A7AF5EE1E
:10425000C07AF1EE10FABD4CACBF012200224FF43F
:1042600000512046FDF71FFAD7ED0A7AF5EEC07A25
:10427000F1EE10FAACBF012200224FF4804120463B
:10428000FDF711FAD6ED0A7AF5EEC07AF1EE10FAE2
:10429000ACBF012200224FF400412046FDF703FA93
:1042A000D7ED0A7AF5EEC07AF1EE10FADFF8B0B287
:1042B000ACBF0122002220215846FDF7F4F9D6EDCB
:1042C0000A7AF5EEC07AF1EE10FAACBF01220022B4
:1042D00010215846FDF7E7F9D9ED0A7AF5EEC07AD4
:1042E000F1EE10FAACBF0122002210212046FDF7AA
:1042F000DAF9D8ED0A7AF5EEC07AF1EE10FAACBF31
:104300000122002220212046FDF7CDF9D5ED0A7AC1
:10431000F5EEC07AF1EE10FA0BF5806BACBF01221E
:1043200000224FF400415846FDF7BDF9D5ED0A7A59
:10433000F5EEC07AF1EE10FAACBF012200224FF484
:1043400080415846FDF7AFF908212046FDF7A4F952
:104350000446024601215846FDF7A5F9DAED0A7A2E
:104360009FED7B7AF4EEC77AF1EE10FA07DC9FED51
:10437000797AF4EEC77AF1EE10FA40F1CA80002C97
:1043800040F0C980002202217348FDF78CF9D7ED77
:104390000A7A9FED6F7AF4EEC77AF1EE10FA07DC35
:1043A0009FED6C7AF4EEC77AF1EE10FA40F1B58029
:1043B000002C40F0B480002204216748FDF773F917
:1043C000D6ED0A7A9FED627AF4EEC77AF1EE10FA32
:1043D00007DC9FED607AF4EEC77AF1EE10FA40F157
:1043E000A080002C40F09F80002208215A48FDF751
:1043F0005AF9D9ED0A7A9FED567AF4EEC77AF1EEC2
:1044000010FA07DC9FED537AF4EEC77AF1EE10FA5A
:1044100040F18B80002C40F08A8000224FF4007124
:104420004D48FDF740F9D8ED0A7A9FED497AF4EE50
:10443000C77AF1EE10FA06DC9FED467AF4EEC77A01
:10444000F1EE10FA75D5002C75D100224FF4806181
:104450004148FDF728F9D5ED0A7A9FED3D7AF4EE53
:10446000C77AF1EE10FA06DC9FED3A7AF4EEC77ADD
:10447000F1EE10FA61D5002C61D100224FF4805189
:104480003548FDF710F9019BD3ED0A7A9FED307A9C
:10449000F4EEC77AF1EE10FA06DC9FED2E7AF4EE18
:1044A000C77AF1EE10FA4CD5002C4CD100224FF413
:1044B00000512948FDF7F7F80021DAF82800FFF746
:1044C0008FFC264C60630121B86AFFF789FCA0636A
:1044D0000221B06AFFF784FCE0630321D9F82800C9
:1044E000FFF77EFC20640421D8F82800FFF778FC51
:1044F00004F5806460630521A86AFFF771FCA0637E
:104500000621019B986AFFF76BFCE06303B0BDE8EE
:10451000F08F002237E7012235E700224CE7012225
:104520004AE7002261E701225FE7002276E70122E5
:1045300074E700228AE7012288E700229EE7012231
:104540009CE70022B3E70122B1E700BF0008024068
:104550000AD7233C0AD723BC0004024000040040D1
:10456000000002400000000070B54FF4A26006F0A9
:1045700053F800F128020262C06400F15C02426557
:10458000C0F8800000F19002C0F88820C0F8B400A4
:1045900000F1C402C0F8BC20C0F8E80000F1F80245
:1045A000C0F8F020C0F81C0100F59672C0F8242174
:1045B000C0F8500100F5B072C0F85821C0F884016D
:1045C0000022C0F898215049C0F89011C0F8940119
:1045D000C0F8D421C0F8D8214C4CC0F8E441C0F850
:1045E000E8210121C0F8F811494DC0F8F051C0F898
:1045F000F401C0F83422C0F83822C0F84442C0F8B0
:10460000482200F5C874C0F8A0429FED3D7B80EDC4
:10461000A27BC0F8902200F52874C0F86442C0F86C
:10462000681280F86C2280EDB87BC0F8E82200F5B3
:10463000F875C0F8F85200F53E74C0F8BC42C0F8F6
:10464000C0120424C0F8A84280EDCE7BC0F84023FD
:10465000C0F8505300F55476C0F81463C0F818132E
:10466000C0F8004380EDE47BC0F89823C0F8A8535D
:1046700000F56A76C0F86C63C0F87013C0F8584350
:1046800080EDFA7BC0F8F023C0F8005400F5806696
:10469000C0F8C463C0F8C813C0F8B04300F588661A
:1046A00086ED007BC0F84824C0F8585400F58B66AE
:1046B000C0F81C64C0F82014C0F8084400F59466E3
:1046C00006ED027BC0F8A024C0F8B05400F5966651
:1046D000C0F87464C0F87814C0F8604400F59E6CAB
:1046E0008CED007BC0F8F824C0F8085500F5A162F5
:1046F000C0F8CC24C0F8D014C0F8B84470BD00BFD6
:104700000000000000000080394100080CE10008B2
:104710002942000838B50446D0F88430D0F8B850A3
:10472000D3ED0A7A90ED107A37EEC77AC0ED107AA1
:10473000D0ED0D6AF4EEE67AF1EE10FA08DCF1EE57
:10474000666AF4EEE67AF1EE10FA12D5012300E083
:104750000123DFED3B6AB4EEE67AF1EE10FA0ADCF3
:10476000DFED386AB4EEE67AF1EE10FA14D50122E4
:1047700002E00023EDE7012294ED0F6AD5ED0A6A0D
:10478000B4EE666AF1EE10FA08D00223A3630023A8
:10479000A364AB6AE36338BD0022EDE7A16B012996
:1047A0000CD00229F5D1A26C0132A264002B38D0C2
:1047B00094F84C304BBB0023A363EAE78AB194F82A
:1047C0004C3013B90023A363E3E7DFED1F7A27EE34
:1047D000277AFDEEC77A17EE901A1C4809F02EF8DA
:1047E000F0E7002BD5D094F84C3013B90023A36325
:1047F000CFE79FED157A67EE877AFDEEE77A17EE41
:10480000901A134809F01AF8F0E79FED127A67EE54
:10481000877AFDEEE77A17EE901A0F4809F00EF846
:10482000C9E707EE902AF8EEE77A9FED0C7AF4EEEE
:10483000C77AF1EE10FAACDB0123A363A9E700BF4E
:104840004260653C426065BC00401C4630E10008A7
:104850003CE1000800007A444CE100080000C84236
:1048600038B52DED028B0446D0F82011D0F8882100
:1048700000F1EC05836B63B392ED0A8AD0ED117AF7
:1048800038EE677AF7EE006AB4EEE67AF1EE10FAE7
:1048900001DD37EEA68AFBEE046AB4EEE67AF1EEAD
:1048A00010FA03D5B3EE048A37EEC88A84ED458A40
:1048B000284606F085FFD4F8F8302BB10122D4F851
:1048C0001411284606F0BFFD84ED118ABDEC028B61
:1048D00038BD8B6AC0F81431284606F071FFD4F851
:1048E000F8302BB10122D4F81411284606F0ABFDA4
:1048F00000236364EAE7000070B54FF46C7005F0C4
:104900008BFE00F158020265C06700F18C02C0F80E
:104910008420C0F8B00000F1C002C0F8B820C0F890
:10492000E4006FF00105C0F8805100F51474C0F880
:10493000784100F5BC72C0F83C219FED2F7B80EDE3
:10494000587B0022C0F868210121C0F84011C0F84E
:10495000E851C0F8E04100F5F074C0F8A44180EDE2
:10496000727BC0F8D021C0F8A811C0F8F821244CFF
:10497000C0F8F041C0F8F401C0F83422C0F8382281
:10498000204CC0F84442C0F84822C0F858121E4DCE
:10499000C0F85052C0F85402C0F89422C0F89822CF
:1049A000C0F8A442C0F8A82280EDBA7BC0F8F0227B
:1049B0000424C0F8B04280EDCE7BC0F8402300F55F
:1049C000F875C0F8505300F55476C0F81463C0F879
:1049D0001813C0F8004380EDE47BC0F89823C0F8BA
:1049E000A85300F56A72C0F86C23C0F87013C0F8C1
:1049F000584370BDAFF3008000000000000000804D
:104A0000154700080CE100086148000838B5044665
:104A1000836E00F1D005D3ED0A7A90ED0C7A37EE73
:104A2000C77AC0ED0C7ADFED356AF4EEE67AF1EE86
:104A300010FA08DCDFED326AF4EEE67AF1EE10FAF5
:104A400012D5012300E00123D4ED0A6AF4EEC76A0F
:104A5000F1EE10FA0AD4F1EE666AF4EEC76AF1EEEE
:104A600010FA1ADD012202E00023EDE70122E16ADB
:104A700019B394ED087A27EE277AD4ED096AF4EE9B
:104A8000E76AF1EE10FA0AD4F1EE666AF4EEE76A2C
:104A9000F1EE10FA0FDD012302E00022E7E7012327
:104AA000E362DFED187AB4EEE77AF1EE10FA0CD596
:104AB0009FED147A12E00023F2E713B912B101213D
:104AC00000E00121E1629FED107ADFED107AB4EE93
:104AD000E77AF1EE10FA01DDB0EE677A84ED3E7A06
:104AE000284606F06DFED4F8DC302BB10122D4F854
:104AF000F810284606F0A7FC38BD00BF0AD7A33C33
:104B00000AD7A3BC0000C8C2000000000000C842D1
:104B100070B54FF41A7005F07FFD00F13C0242635E
:104B2000006600F170028266C0F8940000F1A402F1
:104B3000C0F89C20C0F8C8000022C0F80821224913
:104B4000C0F80011C0F80401C0F84421C0F84821A1
:104B50001E49C0F85411C0F858219FED197B80ED13
:104B6000667BC0F8A02100F58075C0F8B05100F553
:104B7000D871C0F874110124C0F878410421C0F83C
:104B8000601180ED7C7BC0F8F821C0F8085200F578
:104B90000276C0F8CC61C0F8D041C0F8B81180ED01
:104BA000927BC0F85022C0F8605200F51872C0F82D
:104BB0002422C0F82842C0F8101270BDAFF3008064
:104BC00000000000000000800D4A00080CE1000811
:104BD0002DE9F8432DED028B0446D0F8A890076C20
:104BE00000F1DC08806805F0E9FB05460E46206B05
:104BF000616B281A99ED0A8AD7ED0A7A38EE678A2E
:104C000094ED0B7A77EEC78A66EB0101FBF7B0FBF8
:104C100007EE900AC8EEA76AD4ED0E7A94ED0F7AEB
:104C200067EE877A77EE887AC4ED0F7AD4ED087A4A
:104C300067EE887A94ED0A7A27EE267A77EE877AFD
:104C40009FED147AF4EEC77AF1EE10FA09DC9FEDCD
:104C5000127AF4EEC77AF1EE10FA04D5DFED0E7A8F
:104C600001E0DFED0C7AC4ED417A404606F0A8FD84
:104C7000D4F8E8302BB10122D4F80411404606F0F4
:104C8000E2FBBB6AE36225636663BDEC028BBDE8B1
:104C9000F88300BF0000C8420000C8C20000000046
:104CA00038B54FF41C7005F0B7FC00F148020264FF
:104CB000C06600F17C024267C0F8A00000F1B002BB
:104CC000C0F8A820C0F8D4000022C0F818211E495E
:104CD000C0F81011C0F81401C0F85421C0F85821D0
:104CE0001A49C0F86411C0F868219FED157B80ED6A
:104CF0006A7BC0F8B02100F58875C0F8C05100F596
:104D0000E071C0F884110124C0F888410421C0F882
:104D1000701180ED807BC0F80822C0F8C81180EDCA
:104D2000947BC0F85822C0F8685200F51A72C0F897
:104D30002C22C0F83042C0F8181238BDAFF3008002
:104D40000000000000000080D14B00080CE10008CA
:104D500038B50446D0F88430D0F8B850D3ED0A7A8C
:104D600090ED107A37EEC77AC0ED107AD0ED0D6A6B
:104D7000F4EEE67AF1EE10FA08DCF1EE666AF4EE93
:104D8000E67AF1EE10FA12D5012300E00123DFEDFF
:104D90003B6AB4EEE67AF1EE10FA0ADCDFED386A2F
:104DA000B4EEE67AF1EE10FA14D5012202E0002307
:104DB000EDE7012294ED0F6AD5ED0A6AB4EE666A5A
:104DC000F1EE10FA08D00223A3630023A364AB6AB8
:104DD000E36338BD0022EDE7A16B01290CD0022965
:104DE000F5D1A26C0132A264002B38D094F84C307B
:104DF0004BBB0023A363EAE78AB194F84C3013B9A4
:104E00000023A363E3E7DFED1F7A27EE277AFDEEA9
:104E1000C77A17EE901A1C4808F010FDF0E7002B37
:104E2000D5D094F84C3013B90023A363CFE79FED9E
:104E3000157A67EE877AFDEEE77A17EE901A134837
:104E400008F0FCFCF0E79FED127A67EE877AFDEE42
:104E5000E77A17EE901A0F4808F0F0FCC9E707EE62
:104E6000902AF8EEE77A9FED0C7AF4EEC77AF1EE2D
:104E700010FAACDB0123A363A9E700BF0AD7A33B69
:104E80000AD7A3BB00401C465CE1000868E10008AB
:104E900000007A4474E1000800008C4238B52DED22
:104EA000028B0446D0F82011D0F8882100F1EC05DF
:104EB000836B63B392ED0A8AD0ED117A38EE677A8C
:104EC000F7EE006AB4EEE67AF1EE10FA01DD37EEA5
:104ED000A68AF9EE046AB4EEE67AF1EE10FA03D58A
:104EE000B1EE048A37EEC88A84ED458A284606F07A
:104EF00067FCD4F8F8302BB10122D4F814112846FD
:104F000006F0A1FA84ED118ABDEC028B38BD8B6AE4
:104F1000C0F81431284606F053FCD4F8F8302BB111
:104F20000122D4F81411284606F08DFA0023636498
:104F3000EAE700000000000070B54FF46C7005F067
:104F40006BFB00F158020265C06700F18C02C0F8EB
:104F50008420C0F8B00000F1C002C0F8B820C0F84A
:104F6000E4006FF00105C0F8805100F51474C0F83A
:104F7000784100F5BC72C0F83C219FED2F7B80ED9D
:104F8000587B0022C0F868210121C0F84011C0F808
:104F9000E851C0F8E04100F5F074C0F8A44180ED9C
:104FA000727BC0F8D021C0F8A811C0F8F821244CB9
:104FB000C0F8F041C0F8F401C0F83422C0F838223B
:104FC000204CC0F84442C0F84822C0F858121E4D88
:104FD000C0F85052C0F85402C0F89422C0F8982289
:104FE000C0F8A442C0F8A82280EDBA7BC0F8F02235
:104FF0000424C0F8B04280EDCE7BC0F8402300F519
:10500000F875C0F8505300F55476C0F81463C0F832
:105010001813C0F8004380EDE47BC0F89823C0F873
:10502000A85300F56A72C0F86C23C0F87013C0F87A
:10503000584370BDAFF30080000000000000008006
:10504000514D00080CE100089D4E000838B504469B
:10505000D0F88430D0F8B850D3ED0A7A90ED107AB9
:1050600037EEC77AC0ED107AD0ED0D6AF4EEE67A2D
:10507000F1EE10FA08DCF1EE666AF4EEE67AF1EE93
:1050800010FA12D5012300E00123DFED3B6AB4EEF4
:10509000E67AF1EE10FA0ADCDFED386AB4EEE67A71
:1050A000F1EE10FA14D5012202E00023EDE701220F
:1050B00094ED0F6AD5ED0A6AB4EE666AF1EE10FA65
:1050C00008D00223A3630023A364AB6AE36338BD63
:1050D0000022EDE7A16B01290CD00229F5D1A26CC9
:1050E0000132A264002B38D094F84C304BBB002323
:1050F000A363EAE78AB194F84C3013B90023A363A1
:10510000E3E7DFED1F7A27EE277AFDEEC77A17EE89
:10511000901A1C4808F092FBF0E7002BD5D094F8C9
:105120004C3013B90023A363CFE79FED157A67EEE8
:10513000877AFDEEE77A17EE901A134808F07EFBA7
:10514000F0E79FED127A67EE877AFDEEE77A17EEC9
:10515000901A0F4808F072FBC9E707EE902AF8EEA4
:10516000E77A9FED0C7AF4EEC77AF1EE10FAACDB39
:105170000123A363A9E700BF0AD7A33B0AD7A3BBB8
:1051800000401C465CE1000868E1000800007A4429
:1051900074E1000800008C4238B52DED028B044606
:1051A000D0F82011D0F8882100F1EC05836B63B3AF
:1051B00092ED0A8AD0ED117A38EE677AF7EE006A3E
:1051C000B4EEE67AF1EE10FA01DD37EEA68AF9EEDA
:1051D000046AB4EEE67AF1EE10FA03D5B1EE048A71
:1051E00037EEC88A84ED458A284606F0E9FAD4F8F5
:1051F000F8302BB10122D4F81411284606F023F917
:1052000084ED118ABDEC028B38BD8B6AC0F8143175
:10521000284606F0D5FAD4F8F8302BB10122D4F89C
:105220001411284606F00FF900236364EAE7000032
:1052300070B54FF46C7005F0EFF900F1580202659B
:10524000C06700F18C02C0F88420C0F8B00000F103
:10525000C002C0F8B820C0F8E4006FF00105C0F843
:10526000805100F51474C0F8784100F5BC72C0F8A4
:105270003C219FED2F7B80ED587B0022C0F86821F8
:105280000121C0F84011C0F8E851C0F8E04100F534
:10529000F074C0F8A44180ED727BC0F8D021C0F852
:1052A000A811C0F8F821244CC0F8F041C0F8F4016E
:1052B000C0F83422C0F83822204CC0F84442C0F86C
:1052C0004822C0F858121E4DC0F85052C0F854027F
:1052D000C0F89422C0F89822C0F8A442C0F8A822CE
:1052E00080EDBA7BC0F8F0220424C0F8B04280ED13
:1052F000CE7BC0F8402300F5F875C0F8505300F598
:105300005476C0F81463C0F81813C0F8004380ED59
:10531000E47BC0F89823C0F8A85300F56A72C0F87F
:105320006C23C0F87013C0F8584370BDAFF3008011
:1053300000000000000000804D5000080CE1000853
:105340009951000838B50446D0F88430D0F8B850E8
:10535000D3ED0A7A90ED107A37EEC77AC0ED107A65
:10536000D0ED0D6AF4EEE67AF1EE10FA08DCF1EE1B
:10537000666AF4EEE67AF1EE10FA12D5012300E047
:105380000123DFED3B6AB4EEE67AF1EE10FA0ADCB7
:10539000DFED386AB4EEE67AF1EE10FA14D50122A8
:1053A00002E00023EDE7012294ED0F6AD5ED0A6AD1
:1053B000B4EE666AF1EE10FA08D00223A36300236C
:1053C000A364AB6AE36338BD0022EDE7A16B01295A
:1053D0000CD00229F5D1A26C0132A264002B38D086
:1053E00094F84C304BBB0023A363EAE78AB194F8EE
:1053F0004C3013B90023A363E3E7DFED1F7A27EEF8
:10540000277AFDEEC77A17EE901A1C4808F016FAB4
:10541000F0E7002BD5D094F84C3013B90023A363E8
:10542000CFE79FED157A67EE877AFDEEE77A17EE04
:10543000901A134808F002FAF0E79FED127A67EE2F
:10544000877AFDEEE77A17EE901A0F4808F0F6F922
:10545000C9E707EE902AF8EEE77A9FED0C7AF4EEB2
:10546000C77AF1EE10FAACDB0123A363A9E700BF12
:105470000AD7A33B0AD7A3BB00401C465CE1000847
:1054800068E1000800007A4474E1000800008C42E2
:1054900038B52DED028B0446D0F82011D0F88821C4
:1054A00000F1EC05836B63B392ED0A8AD0ED117ABB
:1054B00038EE677AF7EE006AB4EEE67AF1EE10FAAB
:1054C00001DD37EEA68AF9EE046AB4EEE67AF1EE73
:1054D00010FA03D5B1EE048A37EEC88A84ED458A06
:1054E000284606F06DF9D4F8F8302BB10122D4F833
:1054F0001411284605F0A7FF84ED118ABDEC028B3C
:1055000038BD8B6AC0F81431284606F059F9D4F832
:10551000F8302BB10122D4F81411284605F093FF7E
:1055200000236364EAE7000070B54FF46C7005F087
:1055300073F800F158020265C06700F18C02C0F8F0
:105540008420C0F8B00000F1C002C0F8B820C0F854
:10555000E4006FF00105C0F8805100F51474C0F844
:10556000784100F5BC72C0F83C219FED2F7B80EDA7
:10557000587B0022C0F868210121C0F84011C0F812
:10558000E851C0F8E04100F5F074C0F8A44180EDA6
:10559000727BC0F8D021C0F8A811C0F8F821244CC3
:1055A000C0F8F041C0F8F401C0F83422C0F8382245
:1055B000204CC0F84442C0F84822C0F858121E4D92
:1055C000C0F85052C0F85402C0F89422C0F8982293
:1055D000C0F8A442C0F8A82280EDBA7BC0F8F0223F
:1055E0000424C0F8B04280EDCE7BC0F8402300F523
:1055F000F875C0F8505300F55476C0F81463C0F83D
:105600001813C0F8004380EDE47BC0F89823C0F87D
:10561000A85300F56A72C0F86C23C0F87013C0F884
:10562000584370BDAFF30080000000000000008010
:10563000455300080CE100089154000838B50446B1
:10564000D0F88430D0F8B850D3ED0A7A90ED107AC3
:1056500037EEC77AC0ED107AD0ED0D6AF4EEE67A37
:10566000F1EE10FA08DCF1EE666AF4EEE67AF1EE9D
:1056700010FA12D5012300E00123DFED3B6AB4EEFE
:10568000E67AF1EE10FA0ADCDFED386AB4EEE67A7B
:10569000F1EE10FA14D5012202E00023EDE7012219
:1056A00094ED0F6AD5ED0A6AB4EE666AF1EE10FA6F
:1056B00008D00223A3630023A364AB6AE36338BD6D
:1056C0000022EDE7A16B01290CD00229F5D1A26CD3
:1056D0000132A264002B38D094F84C304BBB00232D
:1056E000A363EAE78AB194F84C3013B90023A363AB
:1056F000E3E7DFED1F7A27EE277AFDEEC77A17EE94
:10570000901A1C4808F09AF8F0E7002BD5D094F8CE
:105710004C3013B90023A363CFE79FED157A67EEF2
:10572000877AFDEEE77A17EE901A134808F086F8AC
:10573000F0E79FED127A67EE877AFDEEE77A17EED3
:10574000901A0F4808F07AF8C9E707EE902AF8EEA9
:10575000E77A9FED0C7AF4EEC77AF1EE10FAACDB43
:105760000123A363A9E700BF0AD7A33B0AD7A3BBC2
:1057700000401C465CE1000868E1000800007A4433
:1057800074E1000800008C4238B52DED028B044610
:10579000D0F82011D0F8882100F1EC05836B63B3B9
:1057A00092ED0A8AD0ED117A38EE677AF7EE006A48
:1057B000B4EEE67AF1EE10FA01DD37EEA68AF9EEE4
:1057C000046AB4EEE67AF1EE10FA03D5B1EE048A7B
:1057D00037EEC88A84ED458A284605F0F1FFD4F8F3
:1057E000F8302BB10122D4F81411284605F02BFE15
:1057F00084ED118ABDEC028B38BD8B6AC0F8143180
:10580000284605F0DDFFD4F8F8302BB10122D4F89A
:105810001411284605F017FE00236364EAE7000030
:1058200070B54FF46C7004F0F7FE00F15802026599
:10583000C06700F18C02C0F88420C0F8B00000F10D
:10584000C002C0F8B820C0F8E4006FF00105C0F84D
:10585000805100F51474C0F8784100F5BC72C0F8AE
:105860003C219FED2F7B80ED587B0022C0F8682102
:105870000121C0F84011C0F8E851C0F8E04100F53E
:10588000F074C0F8A44180ED727BC0F8D021C0F85C
:10589000A811C0F8F821244CC0F8F041C0F8F40178
:1058A000C0F83422C0F83822204CC0F84442C0F876
:1058B0004822C0F858121E4DC0F85052C0F8540289
:1058C000C0F89422C0F89822C0F8A442C0F8A822D8
:1058D00080EDBA7BC0F8F0220424C0F8B04280ED1D
:1058E000CE7BC0F8402300F5F875C0F8505300F5A2
:1058F0005476C0F81463C0F81813C0F8004380ED64
:10590000E47BC0F89823C0F8A85300F56A72C0F889
:105910006C23C0F87013C0F8584370BDAFF300801B
:1059200000000000000000803D5600080CE1000867
:105930008957000838B50446D0F88430D0F8B850FC
:10594000D3ED0A7A90ED107A37EEC77AC0ED107A6F
:10595000D0ED0D6AF4EEE67AF1EE10FA08DCF1EE25
:10596000666AF4EEE67AF1EE10FA12D5012300E051
:105970000123DFED3B6AB4EEE67AF1EE10FA0ADCC1
:10598000DFED386AB4EEE67AF1EE10FA14D50122B2
:1059900002E00023EDE7012294ED0F6AD5ED0A6ADB
:1059A000B4EE666AF1EE10FA08D00223A363002376
:1059B000A364AB6AE36338BD0022EDE7A16B012964
:1059C0000CD00229F5D1A26C0132A264002B38D090
:1059D00094F84C304BBB0023A363EAE78AB194F8F8
:1059E0004C3013B90023A363E3E7DFED1F7A27EE02
:1059F000277AFDEEC77A17EE901A1C4807F01EFFB3
:105A0000F0E7002BD5D094F84C3013B90023A363F2
:105A1000CFE79FED157A67EE877AFDEEE77A17EE0E
:105A2000901A134807F00AFFF0E79FED127A67EE2D
:105A3000877AFDEEE77A17EE901A0F4807F0FEFE20
:105A4000C9E707EE902AF8EEE77A9FED0C7AF4EEBC
:105A5000C77AF1EE10FAACDB0123A363A9E700BF1C
:105A60000AD7A33B0AD7A3BB00401C465CE1000851
:105A700068E1000800007A4474E1000800008C42EC
:105A800038B52DED028B0446D0F82011D0F88821CE
:105A900000F1EC05836B63B392ED0A8AD0ED117AC5
:105AA00038EE677AF7EE006AB4EEE67AF1EE10FAB5
:105AB00001DD37EEA68AF9EE046AB4EEE67AF1EE7D
:105AC00010FA03D5B1EE048A37EEC88A84ED458A10
:105AD000284605F075FED4F8F8302BB10122D4F831
