:020000040800F2
:100000000000022075310008C5150008C71500085A
:10001000C9150008CB150008CD1500080000000028
:10002000000000000000000000000000CF150008E4
:10003000D115000800000000D3150008D5150008F0
:10004000C5310008C5310008C5310008C5310008B8
:10005000C5310008C5310008C5310008C5310008A8
:10006000C5310008C5310008C5310008C531000898
:10007000C5310008C5310008C5310008C531000888
:10008000C5310008C5310008C5310008C531000878
:10009000C5310008C5310008C5310008C531000868
:1000A000C5310008C5310008C5310008C531000858
:1000B000C5310008C5310008C5310008C531000848
:1000C000C5310008C5310008C5310008C531000838
:1000D000C5310008DD150008ED150008FD15000804
:1000E000C5310008C5310008C5310008C531000818
:1000F000C5310008C5310008C5310008C531000808
:10010000C5310008C531000895A40008C5310008B4
:100110000D1600081D160008C5310008C53100087D
:10012000C5310008C5310008C5310008C5310008D7
:10013000C53100080000000000000000C5310008C3
:10014000C5310008C5310008C5310008C5310008B7
:10015000C5310008C5310008C5310008C5310008A7
:10016000C5310008C5310008C5310008C531000897
:10017000C5310008C5310008C53100080000000085
:1001800000000000C5310008000000000000000071
:10019000C53100080000000000000000C531000863
:1001A000000000000000000000000000C531000851
:1001B000C5310008C5310008C5310008C531000847
:0401C000C53100083D
:1001D00081F0004102E000BF83F0004330B54FEAF8
:1001E00041044FEA430594EA050F08BF90EA020F65
:1001F0001FBF54EA000C55EA020C7FEA645C7FEAF8
:10020000655C00F0E2804FEA5454D4EB5555B8BF1A
:100210006D420CDD2C4480EA020281EA030382EA8B
:10022000000083EA010180EA020281EA0303362D1D
:1002300088BF30BD11F0004F4FEA01314FF4801CF0
:100240004CEA113102D0404261EB410113F0004F02
:100250004FEA03334CEA133302D0524263EB4303B9
:1002600094EA050F00F0A780A4F10104D5F1200E57
:100270000DDB02FA0EFC22FA05F2801841F10001B2
:1002800003FA0EF2801843FA05F359410EE0A5F186
:1002900020050EF1200E012A03FA0EFC28BF4CF0B7
:1002A000020C43FA05F3C01851EBE37101F000456D
:1002B00007D54FF0000EDCF1000C7EEB00006EEB7A
:1002C0000101B1F5801F1BD3B1F5001F0CD3490804
:1002D0005FEA30004FEA3C0C04F101044FEA44525B
:1002E00012F5800F80F09A80BCF1004F08BF5FEAE2
:1002F000500C50F1000041EB045141EA050130BDC2
:100300005FEA4C0C404141EB0101013C28BFB1F5D3
:10031000801FE9D291F0000F04BF01460020B1FA1E
:1003200081F308BF2033A3F10B03B3F120020CDAF1
:100330000C3208DD02F1140CC2F10C0201FA0CF0CF
:1003400021FA02F10CE002F11402D8BFC2F1200C34
:1003500001FA02F120FA0CFCDCBF41EA0C019040EA
:10036000E41AA2BF01EB0451294330BD6FEA040433
:100370001F3C1CDA0C340EDC04F11404C4F120021E
:1003800020FA04F001FA02F340EA030021FA04F330
:1003900045EA030130BDC4F10C04C4F1200220FA87
:1003A00002F001FA04F340EA0300294630BD21FAC5
:1003B00004F0294630BD94F0000F83F4801306BF8B
:1003C00081F480110134013D4EE77FEA645C18BF7F
:1003D0007FEA655C29D094EA050F08BF90EA020F16
:1003E00005D054EA000C04BF1946104630BD91EA0E
:1003F000030F1EBF0021002030BD5FEA545C05D111
:100400004000494128BF41F0004130BD14F580044F
:100410003CBF01F5801130BD01F0004545F0FE41C3
:1004200041F470014FF0000030BD7FEA645C1ABFF8
:10043000194610467FEA655C1CBF0B46024650EA2F
:10044000013406BF52EA033591EA030F41F400215B
:1004500030BD00BF90F0000F04BF0021704730B5E1
:100460004FF4806404F132044FF000054FF00001B6
:1004700050E700BF90F0000F04BF0021704730B577
:100480004FF4806404F1320410F0004548BF40424C
:100490004FF000013EE700BF42004FEAE2014FEAA1
:1004A00031014FEA02701FBF12F07F4393F07F4F7C
:1004B00081F06051704732F07F4208BF704793F07F
:1004C0007F4F04BF41F40021704730B54FF4607492
:1004D00001F0004521F000411CE700BF50EA010295
:1004E00008BF704730B54FF000050AE050EA01023E
:1004F00008BF704730B511F0004502D5404261EBAE
:1005000041014FF4806404F132045FEA915C3FF4EE
:10051000D8AE4FF003025FEADC0C18BF03325FEA8B
:10052000DC0C18BF033202EBDC02C2F1200300FA3C
:1005300003FC20FA02F001FA03FE40EA0E0021FA61
:1005400002F11444BDE600BF4FF0FF3C06E000BFDF
:100550004FF0010C02E000BF4FF0010C4DF804CD4C
:100560004FEA410C7FEA6C5C4FEA430C18BF7FEA0C
:100570006C5C1BD001B050EA410C0CBF52EA430C3A
:1005800091EA030F02BF90EA020F0020704710F1BA
:10059000000F91EA030F58BF994208BF90422CBF49
:1005A000D8176FEAE37040F0010070474FEA410C42
:1005B0007FEA6C5C02D150EA013C07D14FEA430C60
:1005C0007FEA6C5CD6D152EA033CD3D05DF8040BD1
:1005D000704700BF8446104662468C461946634603
:1005E00000E000BF01B5FFF7B7FF002848BF10F1DA
:1005F000000F01BD4DF808EDFFF7F4FF0CBF01201F
:1006000000205DF808FB00BF4DF808EDFFF7EAFF9A
:1006100034BF012000205DF808FB00BF4DF808ED55
:10062000FFF7E0FF94BF012000205DF808FB00BF4A
:100630004DF808EDFFF7CEFF94BF012000205DF8D4
:1006400008FB00BF4DF808EDFFF7C4FF34BF0120E1
:1006500000205DF808FB00BF80F0004002E000BF12
:1006600081F0004142001FBF5FEA410392EA030F9D
:100670007FEA226C7FEA236C6AD04FEA1262D2EBE7
:100680001363C1BFD218414048404140B8BF5B42EC
:10069000192B88BF704710F0004F40F4000020F085
:1006A0007F4018BF404211F0004F41F4000121F09B
:1006B0007F4118BF494292EA030F3FD0A2F10102E5
:1006C00041FA03FC10EB0C00C3F1200301FA03F123
:1006D00000F0004302D5494260EB4000B0F5000F46
:1006E00013D3B0F1807F06D340084FEA310102F105
:1006F0000102FE2A51D2B1F1004F40EBC25008BFB7
:1007000020F0010040EA03007047490040EB000080
:10071000013A28BFB0F5000FEDD2B0FA80FCACF181
:10072000080CB2EB0C0200FA0CF0AABF00EBC250AE
:1007300052421843BCBFD0401843704792F0000F9C
:1007400081F4000106BF80F400000132013BB5E7EF
:100750004FEA41037FEA226C18BF7FEA236C21D065
:1007600092EA030F04D092F0000F08BF08467047CA
:1007700090EA010F1CBF0020704712F07F4F04D198
:10078000400028BF40F00040704712F100723CBFAB
:1007900000F50000704700F0004343F0FE4040F4D5
:1007A000000070477FEA226216BF08467FEA236393
:1007B0000146420206BF5FEA412390EA010F40F47E
:1007C000800070474FF0000304E000BF10F00043CA
:1007D00048BF40425FEA000C08BF704743F09643B1
:1007E00001464FF000001CE050EA010208BF7047CC
:1007F0004FF000030AE000BF50EA010208BF704753
:1008000011F0004302D5404261EB41015FEA010C67
:1008100002BF84460146002043F0B64308BFA3F15F
:100820008053A3F50003BCFA8CF2083AA3EBC25341
:1008300010DB01FA02FC634400FA02FCC2F1200260
:10084000BCF1004F20FA02F243EB020008BF20F097
:100850000100704702F1200201FA02FCC2F12002FD
:1008600050EA4C0021FA02F243EB020008BF20EAF2
:10087000DC7070477BB972B90029BEBF00204FF011
:10088000004106E008BF00281CBF6FF000414FF098
:10089000FF3000F057B8ADF1080C6DE904CE002927
:1008A00009DB002B1ADB09F059FFDDF804E0DDE974
:1008B000022304B07047404261EB4101002B1BDB77
:1008C00009F04CFFDDF804E0DDE9022304B040420A
:1008D00061EB4101524263EB43037047524263EBC9
:1008E000430309F03BFFDDF804E0DDE9022304B037
:1008F000404261EB41017047524263EB430309F010
:100900002DFFDDF804E0DDE9022304B0524263EB81
:100910004303704753B94AB9002908BF00281CBFD8
:100920004FF0FF314FF0FF3000F00CB8ADF1080C84
:100930006DE904CE09F012FFDDF804E0DDE90223E1
:1009400004B07047704700BF10F8012B11F8013B4D
:10095000012A28BF9A42F7D0D01A70470000000041
:1009600001F0FF01102A2BDB10F0070F08D010F860
:10097000013B013A8B422DD010F0070F42B3F6D164
:10098000F0B441EA012141EA014122F007047FF07D
:1009900000070023F0E80256083C85EA010586EAD4
:1009A000010685FA47F5A3FA87F586FA47F6A5FA10
:1009B00087F68EB9EED1F0BC01F0FF0102F007021C
:1009C00032B110F8013B013A83EA010313B1F8D1C7
:1009D0000020704701387047002D06BF35460338A8
:1009E000073815F0010F07D1013015F4807F02BFE1
:1009F000013015F4C03F0130F0BC0138704700BF32
:100A0000034613F8012B002AFBD1181A013870474E
:100A10000348044B834202D0034B03B1184770478D
:100A20003401002034010020000000000548064B7E
:100A30001B1AD90F01EBA301491002D0034B03B1DC
:100A400018477047340100203401002000000000E6
:100A500010B5064C237843B9FFF7DAFF044B13B106
:100A60000448AFF300800123237010BD380100203B
:100A700000000000E4BB000808B5054B1BB10549A8
:100A80000548AFF30080BDE80840FFF7CFBF00BFC7
:100A9000000000003C010020E4BB000808B5064B44
:100AA000044613B100210AF047FE044B1B6803B152
:100AB0009847204600F0C2FD39B700088C0200209C
:100AC000002310B50446C0E90033C0E90433836055
:100AD00081814366C2818361194608225C3000F03F
:100AE000B1F80D4B63620D4BA3620D4BE3620D4BEE
:100AF00023630D4B24629C4206D003F168029442AA
:100B000002D0D0339C4205D104F15800BDE810401A
:100B100000F0C4B810BD00BF810F0008A30F00088B
:100B2000DB0F0008FF0F000854010020024A0349B0
:100B3000034800F069B800BF00000020F10E000873
:100B40001000002041680C4B994210B5044601D0BA
:100B500000F0CEF9A168094B994202D0204600F07E
:100B6000C7F9E168064B994204D02046BDE8104021
:100B700000F0BEB910BD00BF54010020BC01002030
:100B80002402002010B50B4B0B4C0C4A1A60204677
:100B900000220421FFF794FF04F1680001220921DB
:100BA000FFF78EFF04F1D0000222BDE810401221B1
:100BB000FFF786BF8C020020540100202D0B000897
:100BC000014800F06CB800BF92020020014800F01C
:100BD00067B800BF9202002010B50446FFF7F0FF8F
:100BE000236A1BB1BDE81040FFF7F0BF044B23623E
:100BF000044B1B68002BF5D1FFF7C4FFF2E700BFE1
:100C0000450B00088C0200202DE9F8430746884672
:100C100014460026D4E90195B9F1010905D52468E7
:100C2000002CF7D13046BDE8F883AB89012B07D9FA
:100C3000B5F90E30013303D029463846C047064384
:100C40006835E9E702440346934200D1704703F850
:100C5000011BF9E770B50D4D0D4C641BA410002667
:100C6000A64209D10B4D0C4C0AF0BCFF641BA4102A
:100C70000026A64205D170BD55F8043B98470136C1
:100C8000EEE755F8043B98470136F2E730C8000814
:100C900030C8000830C8000834C8000870477047E2
:100CA0007047000070B50F4E0C463168054611B90B
:100CB00000F0CEF930602146284600F0C9F9431C07
:100CC00003D14FF0FF34204670BDC41C24F0030450
:100CD000A042F8D0211A284600F0BAF90130F2D12A
:100CE000EFE700BF940200202DE9F843CD1C25F06A
:100CF000030508350C2D38BF0C25002D064601DBF9
:100D0000A94204D90C2333600020BDE8F883DFF842
:100D1000D48000F029F9D8F800301C4644BB29469D
:100D20003046FFF7BFFF431C044658D1D8F80040B7
:100D30002746002F43D1002C4BD02368394630463C
:100D400004EB030900F084F9814542D121686D1A52
:100D500029463046FFF7A6FF01303AD023682B44DE
:100D60002360D8F800305A6862BBC8F800700FE002
:100D70002268521B20D40B2A17D96119A34225607F
:100D800018BF5960636808BFC8F8001062514B6013
:100D9000304600F0EFF804F10B00231D20F00700AF
:100DA000C21A1CBF1B1AA350AFE76268A3420CBF54
:100DB000C8F800205A60EBE723466468AEE73C467B
:100DC0007F68B6E71A465B68A342FBD100235360F5
:100DD000DEE70C233360304600F0CCF894E7056082
:100DE000D6E700BF98020020B1F90C202DE9F041B0
:100DF000160705460C4654D44B68002B02DC0B6CDE
:100E0000002B48DDE66A002E45D0002312F4805204
:100E10002F68216A2B6030D0626DA389590705D5F0
:100E20006368D21A636B0BB1236CD21A0023E66A93
:100E3000216A2846B047431CA38906D129681D2989
:100E40002BD82A4ACA40D60727D500226260D90487
:100E50002269226004D5421C01D12B6803B9606568
:100E6000616B2F60B9B104F14403994202D0284666
:100E700000F020F9002363630DE001232846B0470A
:100E80000246501CC9D12B68002BC6D01D2B01D0A7
:100E9000162B1ED12F60002022E043F040031BB22E
:100EA0001BE00F69002FF6D093070E6808BF4B694F
:100EB0000F6018BF0023A6EB07088B60B8F1000F86
:100EC000E9DD216AA66A43463A462846B04700282B
:100ED00008DCB4F90C3043F04003A3814FF0FF303D
:100EE000BDE8F0810744A8EB0008E7E701004020D7
:100EF00038B50B6905460C4613B90025284638BDA0
:100F000018B1036A0BB9FFF767FEB4F90C30002B78
:100F1000F3D0626ED00704D4990502D4A06DFFF718
:100F2000BEFE28462146FFF75FFF636EDA070546DF
:100F3000E4D4A3899B05E1D4A06DFFF7B1FEDDE702
:100F4000014620B9044A05490548FFF75DBE054B37
:100F50001868FFF7CDBF00BF00000020F10E0008A9
:100F6000100000200C0000200148FFF798BE00BFD1
:100F7000900200200148FFF793BE00BF90020020BE
:100F800010B50C46B1F90E1000F050F80028ABBFB8
:100F9000636DA3891B1823F48053ACBF6365A381E1
:100FA00010BD2DE9F0411F468B89DB0505460C4637
:100FB000164605D5B1F90E100223002200F024F8E0
:100FC000A389B4F90E1023F48053A38132463B4623
:100FD0002846BDE8F04100F04BB810B50C46B1F919
:100FE0000E1000F011F8431CA38915BF606523F4AF
:100FF000805343F48053A38118BFA38110BDB1F97E
:101000000E1000F047B8000038B5074D04460846FA
:10101000114600222A601A4600F030FB431C02D120
:101020002B6803B1236038BD9C02002038B5074D02
:1010300004460846114600222A601A4600F004FBC6
:10104000431C02D12B6803B1236038BD9C020020F1
:1010500038B5064D0023044608462B6000F010FB0F
:10106000431C02D12B6803B1236038BD9C020020D1
:1010700038B5074D04460846114600222A601A4634
:1010800000F07CF8431C02D12B6803B1236038BD0B
:101090009C02002038B5064D0023044608462B600C
:1010A00000F0E2FA431C02D12B6803B1236038BD83
:1010B0009C02002038B50546002941D051F8043C77
:1010C0000C1F002BB8BFE418FFF74EFF1D4A136832
:1010D00033B9636014602846BDE83840FFF74ABF63
:1010E000A34208D9206821188B4201BF19685B68A8
:1010F00009182160EDE71A465B680BB1A342FAD9E3
:1011000011685018A0420BD1206801445018834246
:101110001160E0D118685B68536008441060DAE73A
:1011200002D90C232B60D6E7206821188B4204BF1C
:1011300019685B68636004BF091821605460CAE7DE
:1011400038BD00BF9802002008B50A480A4B03606A
:101150004FF46133436000238360C36003610C225A
:1011600042618361C36101F038FD08B172B6FEE7E8
:1011700008BD00BFA00200200044004010B5144686
:101180004FF0FF3392B2024801F057FD204610BDE8
:10119000A002002000B595B03422002107A8FFF777
:1011A00051FD002302930393049305930693009348
:1011B0001A4A116C41F080511164126C02F0805295
:1011C0000092009A019316490A6822F4404242F4C0
:1011D00080420A600A6802F440420192019A0222A7
:1011E000079201220A9210220B920D9307A800F099
:1011F00013FE68B90F230293002103910491059116
:10120000069102A800F09EFC28B915B05DF804FB19
:1012100009F0F8F9EEE709F0F5F9F6E700380240D1
:101220000070004008B5FFF78FFFFFF7B3FF0348DA
:101230000AF070F904F0B2FA08BD00BF38BC00082B
:1012400082B0002100910B4B5A6C42F480425A64E8
:101250005A6C02F480420092009A01911A6C42F09A
:1012600080521A641B6C03F080530193019B02B0FF
:10127000704700BF0038024082B00368104A9342B2
:1012800004D0104A93420ED002B07047002300935E
:101290000D4B1A6C42F002021A641B6C03F002033D
:1012A0000093009BF0E700230193074B1A6C42F078
:1012B00004021A641B6C03F004030193019BE3E72F
:1012C00000040040000800400038024030B589B0FA
:1012D0000023039304930593069307930368254A19
:1012E000934204D0244A93422CD009B030BD00254B
:1012F0000095224B1A6B42F004021A631A6B02F03B
:1013000004020092009A01951A6B42F002021A63DD
:101310001B6B03F002030193019B4FF44073039393
:1013200002240494079403A9154800F005FB302318
:101330000393049405950695079403A9114800F0BA
:10134000FBFAD2E7002302930C4B1A6B42F0020225
:101350001A631B6B03F002030293029B4FF4E073CA
:10136000039302230493079303A9064800F0E4FAC9
:10137000BBE700BF00040040000800400038024006
:101380000008024000040240F0B593B000230D9322
:101390000E930F93109311930368804A934213D0D6
:1013A0007F4A934232D07F4A934267D07E4A93422B
:1013B00000F088807D4A934200F0A7807C4A9342E7
:1013C00000F0C98013B0F0BD00210091794B1A6C78
:1013D00042F400221A641A6C02F400220092009A6D
:1013E00001911A6B42F001021A631B6B03F00103B7
:1013F0000193019B03230D9302220E921093082365
:1014000011930DA96C4800F097FADBE700240294D1
:10141000684B1A6C42F480121A641A6C02F480123F
:101420000292029A03941A6B42F004021A631A6B36
:1014300002F004020392039A04941A6B42F0080229
:101440001A631B6B03F008030493049B4FF480534F
:101450000D9302270E9703261096082511950DA9C6
:10146000564800F069FA04230D930E970F941096D6
:1014700011950DA9524800F05FFAA3E700210591EC
:101480004C4B5A6C42F010025A645A6C02F0100233
:101490000592059A06911A6B42F001021A631B6BC2
:1014A00003F001030693069B4FF4C0630D930223E0
:1014B0000E9303231093072311930DA93E4800F0C8
:1014C0003BFA7FE7002107913A4B1A6C42F4003255
:1014D0001A641A6C02F400320792079A08911A6B88
:1014E00042F001021A631B6B03F001030893089B8F
:1014F0000C230D9302230E930323109307231193C0
:101500000DA92D4800F018FA5CE700210991294B3C
:101510001A6C42F480221A641A6C02F48022099236
:10152000099A0A911A6B42F004021A631B6B03F0CA
:1015300004030A930A9B4FF440630D9302230E9316
:1015400001230F9303231093072311930DA91B4825
:1015500000F0F2F936E700210B91164B5A6C42F07D
:1015600020025A645A6C02F020020B920B9A0C91E2
:101570001A6B42F004021A631B6B03F004030C9312
:101580000C9BC0230D9302230E9303231093082377
:1015900011930DA9094800F0CFF913E7004C004062
:1015A000005000400010014000440040004800404E
:1015B00000140140003802400000024000080240D0
:1015C000000C0240FEE7FEE7FEE7FEE7FEE770479D
:1015D0007047704708B500F0C1F808BD08B502486B
:1015E00001F086FC08BD00BF4806002008B502488F
:1015F00001F07EFC08BD00BFA002002008B5024833
:1016000001F076FC08BD00BF8C04002008B502483C
:1016100001F06EFC08BD00BFBC03002008B5024805
:1016200001F066FC08BD00BF7403002008B509F096
:10163000FDFF162303604FF0FF3008BD08B54FF0E3
:10164000FF31FFF7F3FFFEE770B50C4616460025A5
:1016500006E0AFF30080214601F8010B01350C468E
:10166000B542F6DB304670BD4FF0FF3070474FF4A7
:1016700000534B60002070470120704700207047E6
:1016800010B503460C4A0D490D48006840B10C489E
:1016900000680344521A934206D8094A136010BDE9
:1016A0000748084C0460F2E709F0C0FF0C23036010
:1016B0004FF0FF30F3E700BF0000022000040000FD
:1016C000E8020020B0080020034AD2F8883043F432
:1016D0007003C2F88830704700ED00E010B5044692
:1016E0000E4B1A784FF47A73B3FBF2F30C4A10687E
:1016F000B0FBF3F000F0AEF868B90F2C01D901206F
:101700000AE0002221464FF0FF3000F093F8054B2D
:101710001C60002000E0012010BD00BF6000002020
:101720005C0000206400002008B50B4B1A6842F4EE
:1017300000721A601A6842F480621A601A6842F4F1
:1017400080721A60032000F063F80F20FFF7C6FFD5
:10175000FFF776FD002008BD003C0240034A1168F7
:10176000034B1B780B441360704700BFEC02002052
:1017700060000020014B1868704700BFEC02002099
:1017800038B50446FFF7F6FF0546B4F1FF3F02D037
:10179000044B1B781C44FFF7EDFF401BA042FAD31B
:1017A00038BD00BF60000020002808DB0901C9B275
:1017B00000F1604000F5614080F80013704700F0D0
:1017C0000F000901C9B2014B1954704714ED00E034
:1017D00000B500F00700C0F1070CBCF1040F28BFF2
:1017E0004FF0040C031D062B0FD9C31E4FF0FF3E14
:1017F0000EFA0CF021EA000199400EFA03FE22EAEB
:101800000E0241EA02005DF804FB0023EEE700004F
:10181000074AD36823F4E0631B041B0C000200F4A6
:10182000E060034343F0BF6343F40033D360704789
:1018300000ED00E010B50446054BD868C0F3022067
:10184000FFF7C6FF01462046FFF7AEFF10BD00BF01
:1018500000ED00E00138B0F1807F0BD24FF0E023C3
:101860005861054AF02182F8231000209861072270
:101870001A6170470120704700ED00E070B5044622
:10188000866DFFF777FF94F83530DBB2022B06D078
:1018900080236365002384F83430012070BD054641
:1018A0002268136823F0160313602268536923F03B
:1018B00080035361236CE3B12268136823F00803AB
:1018C00013602268136823F00103136023681B6808
:1018D00013F0010F11D0FFF74DFF431B052BF5D976
:1018E00020236365032084F83500002384F8343016
:1018F000D4E7A36C002BDFD1E3E7E26D3F239340F5
:10190000B360012384F83530002084F83400C5E743
:1019100090F83530DBB2022B03D0802343650120E1
:101920007047052380F835300268136823F00103FF
:10193000136000207047000000230F2B00F2E380AB
:1019400070B582B065E085684FEA430E032404FA5F
:101950000EF425EA0405CC6804FA0EF42C438460E6
:10196000446824EA02044A68C2F300129A402243FF
:1019700042605CE0DC08083450F8242003F00705DE
:10198000AD004FF00F0E0EFA05FE22EA0E0E0A69A8
:10199000AA4042EA0E0240F824205CE0062200E061
:1019A000002202FA0EF22A430234574D45F8242051
:1019B000564A94686FEA0C0224EA0C054E6816F445
:1019C000801F01D04CEA0405504CA560E46802EA8F
:1019D00004054E6816F4001F01D04CEA04054B4C78
:1019E000E560646802EA04054E6816F4003F01D021
:1019F0004CEA0405454C6560246822404D6815F4A6
:101A0000803F01D04CEA0402404C226001330F2B8E
:101A100077D801229A400C6804EA020C32EA0404E6
:101A2000F4D14C6804F00304013C012C8BD94A68C2
:101A300002F00302032A09D0C4685D000322AA4011
:101A400024EA02048A68AA402243C2604A6802F07B
:101A50000302022A8ED004684FEA430E032202FAE0
:101A60000EF224EA02044A6802F0030202FA0EF2BD
:101A7000224302604A6812F4403FC7D0002201921C
:101A8000234A546C44F480445464526C02F48042FF
:101A90000192019A9C08A51C1B4A52F8255003F09C
:101AA000030E4FEA8E0E0F2202FA0EF225EA02050D
:101AB000184A90423FF474AF02F58062904216D00B
:101AC00002F58062904214D002F58062904212D0FA
:101AD00002F58062904210D002F5806290420ED0F2
:101AE00002F5806290423FF459AF072259E7012284
:101AF00057E7022255E7032253E7042251E7052264
:101B00004FE702B070BD704700380140003C014013
:101B100000380240000002400369194201D0012050
:101B20007047002070470AB18161704709048161E4
:101B30007047436901EA030221EA030141EA0241D5
:101B400081617047002800F09B8070B50D46044607
:101B50004F4B1B6803F00F038B4208D2CBB24C4AA9
:101B60001370136803F00F038B4240F08B802368DF
:101B700013F0020F17D013F0040F04D0454A9368F6
:101B800043F4E0539360236813F0080F04D0414AF4
:101B9000936843F4604393603E4A936823F0F003F4
:101BA000A1680B439360236813F0010F32D0636880
:101BB000012B21D09A1E012A25D9364A126812F02B
:101BC000020F61D033498A6822F0030213438B600D
:101BD000FFF7D0FD06462F4B9B6803F00C036268AD
:101BE000B3EB820F16D0FFF7C5FD801B41F288339F
:101BF0009842F0D9032042E0264A126812F4003FCE
:101C0000E0D101203BE0234A126812F0007FD9D1D5
:101C1000012034E01E4B1B6803F00F03AB4207D9D1
:101C2000EAB21B4B1A701B6803F00F03AB422DD1B5
:101C3000236813F0040F06D0164A936823F4E05388
:101C4000E1680B439360236813F0080F07D0114A33
:101C5000936823F46043216943EAC103936000F071
:101C600047F80C4B9B68C3F303130B4AD35CD84073
:101C70000A4B18600A4B1868FFF730FD002070BD52
:101C8000012070470120FAE70120F8E70120F6E77C
:101C9000003C024000380240E4C600085C0000201E
:101CA00064000020014B1868704700BF5C000020F2
:101CB00008B5FFF7F7FF044B9B68C3F38223034A81
:101CC000D35CD84008BD00BF00380240DCC6000825
:101CD00008B5FFF7E7FF044B9B68C3F34233034AA1
:101CE000D35CD84008BD00BF00380240DCC6000805
:101CF00008B5464B9B6803F00C03082B05D00C2B52
:101D000043D0042B7FD1424819E0404B5A6802F07F
:101D10003F025B6813F4800F12D03C4B5968C1F34B
:101D200088113B480023A1FB0001FEF7F3FD374B70
:101D30005B68C3F3014301335B00B0FBF3F008BD04
:101D4000324B5868C0F388104FEA401CBCEB000CC3
:101D50006EEB0E0E4FEA8E1343EA9C634FEA8C1132
:101D6000B1EB0C0163EB0E03DB0043EA5173C900D6
:101D700011EB000C43F10003990200234FEA8C2081
:101D800041EA9C51FEF7C6FDD1E7204B5A6802F0AC
:101D90003F025B6813F4800F10D01C4B5968C1F3ED
:101DA00088111B480023A1FB0001FEF7B3FD174B70
:101DB0005B68C3F30273B0FBF3F0C0E7134B5868E2
:101DC000C0F388104FEA401CBCEB000C6EEB0E0E0B
:101DD0004FEA8E1343EA9C634FEA8C11B1EB0C017E
:101DE00063EB0E03DB0043EA5173C90011EB000CF7
:101DF00043F10003990200234FEA8C2041EA9C51F1
:101E0000FEF788FDD3E7034899E700BF003802409A
:101E100040787D010024F400002800F0018270B5B4
:101E200082B00446036813F0010F41D0994B9B68C0
:101E300003F00C03042B32D0964B9B6803F00C0389
:101E4000082B27D0934B9B6803F00C030C2B59D025
:101E50006368B3F5803F5BD0B3F5A02F5ED08D4BA8
:101E60001A6822F480321A601A6822F480221A60FA
:101E70006368002B5CD0FFF77DFC0546854B1B6833
:101E800013F4003F14D1FFF775FC401B6428F5D90B
:101E90000320CCE17F4B5B6813F4800FD2D07D4BE5
:101EA0001B6813F4003F03D06368002B00F0BA8175
:101EB000236813F0020F60D0764B9B6813F00C0F71
:101EC0004AD0744B9B6803F00C03082B3FD0714B36
:101ED0009B6803F00C030C2B69D0E368002B75D0D2
:101EE0006D4B01221A60FFF745FC0546694B1B68E4
:101EF00013F0020F61D1FFF73DFC401B0228F5D91A
:101F0000032094E1634B5B6813F4800FA0D0C6E715
:101F1000604A136843F480331360A9E75D4B1A6885
:101F200042F480221A601A6842F480321A609FE7F5
:101F3000FFF720FC0546574B1B6813F4003FB7D052
:101F4000FFF718FC401B6428F5D903206FE1514BC3
:101F50005B6813F4800FBAD14E4B1B6813F0020F6D
:101F600003D0E368012B40F05F814A4A136823F0F5
:101F7000F803216943EAC1031360236813F0080FD3
:101F800049D06369002B33D0434B0122C3F8802E24
:101F9000FFF7F0FB05463F4B5B6F13F0020F3AD1A2
:101FA000FFF7E8FB401B0228F5D903203FE1394B3E
:101FB0005B6813F4800F90D1CEE7364A136823F0A4
:101FC000F803216943EAC1031360D6E7324B0022CC
:101FD0001A60FFF7CFFB05462E4B1B6813F0020F6C
:101FE000CBD0FFF7C7FB401B0228F5D903201EE129
:101FF000294B0022C3F8802EFFF7BCFB0546254B7A
:102000005B6F13F0020F06D0FFF7B4FB401B0228F2
:10201000F5D903200BE1236813F0040F76D01D4B94
:102020001B6C13F0805F33D100230193194B1A6CA2
:1020300042F080521A641B6C03F080530193019BA1
:102040000125164B1B6813F4807F29D0A368012B50
:102050003AD0052B3ED00F4B1A6F22F001021A67BF
:102060001A6F22F004021A67A368002B3CD0FFF716
:1020700081FB0646074B1B6F13F0020F45D1FFF79C
:1020800079FB801B41F288339842F3D90320CEE0DC
:102090000025D6E7003802400000474200700040AB
:1020A0006B4A136843F480731360FFF763FB0646C3
:1020B000674B1B6813F4807FC8D1FFF75BFB801B65
:1020C0000228F5D90320B2E0624A136F43F00103FE
:1020D0001367C9E75F4B1A6F42F004021A671A6F61
:1020E00042F001021A67BFE7FFF744FB0646594B6F
:1020F0001B6F13F0020F08D0FFF73CFB801B41F26F
:1021000088339842F3D9032091E0EDB9A369002BFD
:1021100000F08C804F4A926802F00C02082A54D0DA
:10212000022B17D04C4B00221A66FFF723FB044604
:10213000484B1B6813F0007F45D0FFF71BFB001BCB
:102140000228F5D9032072E0424A136C23F0805331
:102150001364DBE7404B00221A66FFF70BFB0546D2
:102160003C4B1B6813F0007F06D0FFF703FB401BBE
:102170000228F5D903205AE0E369226A1343626A10
:1021800043EA8213A26A5208013A43EA0243E26A2E
:1021900043EA0263226B43EA02732E4A53602E4BDA
:1021A00001221A66FFF7E6FA04462A4B1B6813F071
:1021B000007F06D1FFF7DEFA001B0228F5D90320C5
:1021C00035E0002033E0002031E0012B31D0214BFD
:1021D0005B6803F48001E26991422CD103F03F0275
:1021E000216A8A4229D1616A47F6C0721A40B2EB6D
:1021F000811F24D103F44031A26A5208013AB1EBA5
:10220000024F1ED103F07062E16AB2EB016F1AD186
:1022100003F0E043226BB3EB027F16D1002006E00F
:1022200001207047012002E0012000E0002002B000
:1022300070BD0120FBE70120F9E70120F7E701204D
:10224000F5E70120F3E70120F1E70120EFE700BF08
:1022500000700040003802400000474230B4036A7A
:10226000026A22F0010202624268846924F0730C5F
:102270000C6844EA0C0423F0020C8B6843EA0C035C
:10228000114DA84203D005F58065A84205D123F081
:102290000803CD682B4323F004030B4DA84203D061
:1022A00005F58065A84207D122F440724D6945EAE0
:1022B000020C8A6942EA0C02426084614A68426305
:1022C000036230BC704700BF0000014030B4036AB5
:1022D000026A22F4807202624268C46924F0730CBC
:1022E0000C6844EA0C0523F400738C6843EA042369
:1022F000114CA04203D004F58064A04206D123F41F
:102300000063CC6843EA042323F480630A4CA042B0
:1023100003D004F58064A04207D122F440524C69F6
:1023200042EA04128C6942EA04124260C5614A68BA
:10233000C263036230BC70470000014030B4036ADE
:10234000026A22F4805202624468C26922F4E642C0
:102350000D6842EA052223F400538D6843EA0533F1
:10236000094DA84203D005F58065A84204D124F4A4
:1023700080444D6944EA85144460C2614A6802643D
:10238000036230BC704700BF0000014010B4036A14
:10239000046A24F001040462846924F0F00C4CEA1D
:1023A000021223F00A030B43826103625DF8044BBF
:1023B000704710B4036A046A24F01004046284694C
:1023C00024F4704C4CEA023223F0A00343EA0113D8
:1023D000826103625DF8044B7047836823F07003E9
:1023E0000B4343F007038360704770470368344A28
:1023F000904212D0B0F1804F0FD0A2F57C429042B3
:102400000BD002F58062904207D002F580629042C4
:1024100003D002F57842904203D123F070034A685A
:102420001343274A90422AD0B0F1804F27D0A2F51B
:102430007C42904223D002F5806290421FD002F588
:10244000806290421BD002F57842904217D002F58C
:102450007052904213D002F5806290420FD002F584
:10246000806290420BD0A2F59832904207D002F5DC
:102470008062904203D002F58062904203D123F43F
:102480004073CA68134323F080034A69134303600F
:102490008B68C3620B688362094B984203D003F5D3
:1024A0008063984201D10B6903630123436103698F
:1024B00013F0010F03D0036923F001030361704798
:1024C0000000014040B310B5044690F83D30F3B130
:1024D000022384F83D30214651F8040BFFF786FFB4
:1024E000012384F8463084F83E3084F83F3084F885
:1024F000403084F8413084F8423084F8433084F826
:10250000443084F8453084F83D30002010BD80F818
:102510003C30FEF7B1FEDBE70120704740B310B559
:10252000044690F83D30F3B1022384F83D30214653
:1025300051F8040BFFF75AFF012384F8463084F862
:102540003E3084F83F3084F8403084F8413084F8DD
:10255000423084F8433084F8443084F8453084F8BD
:102560003D30002010BD80F83C30FFF73EFFDBE738
:102570000120704730B4036A026A22F0100202623E
:102580004468826922F4E6420D6842EA052223F09B
:1025900020038D6843EA0513114DA84203D005F5C9
:1025A0008065A84206D123F08003CD6843EA051375
:1025B00023F040030A4DA84203D005F58065A842E8
:1025C00007D124F440644D6944EA85048D6944EAE6
:1025D0008504446082614A688263036230BC70474C
:1025E0000000014038B590F83C30012B66D004461D
:1025F0000D46012380F83C300C2A5AD8DFE802F05F
:10260000075959591B5959593059595944000068AB
:10261000FFF724FE2268936943F008039361226860
:10262000936923F0040393612268936929690B433A
:10263000936100203EE00068FFF79CFF22689369E9
:1026400043F4006393612268936923F48063936188
:1026500022689369296943EA01239361002029E0F4
:102660000068FFF733FE2268D36943F00803D361A3
:102670002268D36923F00403D3612268D3692969EE
:102680000B43D361002015E00068FFF757FE226876
:10269000D36943F40063D3612268D36923F4806370
:1026A000D3612268D369296943EA0123D3610020F9
:1026B00000E00120002384F83C3038BD0220FCE714
:1026C00010B4846824F47F4C42EA03220A4342EAAD
:1026D0000C0282605DF8044B704790F83C30012B8F
:1026E00078D010B50446012380F83C30022380F8EE
:1026F0003D300268936823F47F4323F077039360AF
:102700000B68602B4CD023D8402B54D011D8202BF1
:1027100003D00AD80BB1102B05D119462068FFF75A
:102720005CFE002028E0012026E0302BF5D00120BF
:1027300022E0502B0AD1CA6849680068FFF726FEDC
:1027400050212068FFF749FE002015E0012013E02A
:10275000B3F5805F3AD0B3F5005F14D0702B37D15A
:10276000CB684A6889680068FFF7AAFF2268936807
:1027700043F0770393600020012384F83D30002369
:1027800084F83C3010BDCB684A6889680068FFF760
:1027900097FF2268936843F4804393600020EBE73F
:1027A000CA6849680068FFF704FE60212068FFF7E7
:1027B00014FE0020E0E7CA6849680068FFF7E6FDFC
:1027C00040212068FFF709FE0020D5E70020D3E76D
:1027D0000120D1E70220704701F01F014FF0010CEA
:1027E0000CFA01FC036A23EA0C030362036A8A40C1
:1027F000134303627047000010B5044608460029E1
:1028000042D194F83E30DBB2013B18BF0123002BCC
:102810006ED1002851D1022384F83E3001220146B6
:102820002068FFF7D9FF2368334A934203D002F5AB
:102830008062934203D15A6C42F400425A64236886
:102840002D4A934249D0B3F1804F46D0A2F57C4245
:10285000934242D002F5806293423ED002F58062FC
:1028600093423AD002F57842934236D002F5705244
:10287000934232D0A2F5943293422ED01A6842F09D
:1028800001021A60002032E0042908D008290DD086
:1028900094F84130DBB2013B18BF0123B7E794F84D
:1028A0003F30DBB2013B18BF0123B0E794F8403062
:1028B000DBB2013B18BF0123A9E7042805D0082893
:1028C00007D0022384F84130A8E7022384F83F3080
:1028D000A4E7022384F84030A0E79A6802F00702D8
:1028E000062A07D01A6842F001021A60002010BDC3
:1028F0000120FCE70020FAE70000014090F83C20AE
:10290000012A3DD010B40346012280F83C20022267
:1029100080F83D2002685068946820F0700C0868C8
:1029200040EA0C0050601A68164882421AD0B2F190
:10293000804F17D0A0F57C40824213D000F5806014
:1029400082420FD000F5806082420BD000F57840C3
:10295000824207D000F57050824203D0A0F5943037
:10296000824204D124F0800449682143916001220D
:1029700083F83D20002083F83C005DF8044B70474D
:102980000220704700000140026802F10C0353E886
:10299000003F23F490730C3242E800310029F3D158
:1029A000026802F1140353E8003F23F001031432DC
:1029B00042E800310029F3D1036B012B05D020231D
:1029C00080F84230002303637047026802F10C0371
:1029D00053E8003F23F010030C3242E80031002995
:1029E000F3D1ECE790F84130DBB2212B01D002208B
:1029F00070478368B3F5805F17D0036A5A1C026280
:102A00001A7803685A60C38C9BB2013B9BB2C384A3
:102A10004BB90268D36823F08003D3600268D3689F
:102A200043F04003D360002070470369002BE4D1DA
:102A3000036A1B880268C3F308035360036A023306
:102A40000362E0E710B504460268136923F44053BB
:102A5000C1680B431361836802691A4343691A43CF
:102A6000C3691A430168CB6823F4164323F00C03AF
:102A70001343CB600268536923F4407381690B43AD
:102A800053610368314A934206D002F58062934253
:102A900002D0FFF70DF901E0FFF71AF9E369B3F58A
:102AA000004F29D00021031849411B1841F10001B2
:102AB000C90041EA5371DB00181863684FEA8302CA
:102AC0004FEA937341F10001FDF724FF204AA2FB76
:102AD00000314909642303FB11031B013233A2FBBC
:102AE00003235B0903F0F00202EB011203F00F0372
:102AF000216813448B6010BD0023021843EB0301CF
:102B0000121841F10001C90041EA5271D2001018B7
:102B100041F10001626892185B41FDF7FBFE0C4A2F
:102B2000A2FB00314909642303FB1103DB003233AC
:102B3000A2FB03235B095A0002F4F87202EB0112B4
:102B400003F00703216813448B60D4E700100140B1
:102B50001F85EB512DE9F04383B005460E4617461D
:102B60009946DDF828802B681C6836EA04040CBFFF
:102B700001240024BC4228D1B8F1FF3FF3D0FEF776
:102B8000F9FDA0EB0900404523D8B8F1000F22D091
:102B90002B68DA6812F0040FE5D0802EE3D0402EC7
:102BA000E1D01A6812F0080FDDD0002401941A68F1
:102BB00001925B680193019B2846FFF7E5FE08231D
:102BC0006B6485F84040012000E0002003B0BDE8C0
:102BD000F0830320FAE70320F8E760B310B504465A
:102BE00090F8413013B3242384F841302268D3682D
:102BF00023F40053D3602046FFF724FF22681369B3
:102C000023F4904313612268536923F02A0353612C
:102C10002268D36843F40053D3600020606420230B
:102C200084F8413084F84230606310BD80F8403051
:102C3000FEF7AAFBD7E7012070472DE9F04182B0EB
:102C40001E4690F84130DBB2202B56D104460D468B
:102C50009046002955D00AB901204FE00023436473
:102C6000212380F84130FEF785FD0746A4F8248033
:102C7000A4F82680A368B3F5805F02D04FF0000867
:102C800014E023692BB34FF000080FE0202384F8F1
:102C90004130032032E038F8023B2268C3F30803D6
:102CA0005360E28C92B2013A92B2E284E38C9BB21E
:102CB00093B100963B46002280212046FFF74AFF51
:102CC0000028E3D1002DE6D015F8012B23685A60C7
:102CD000E7E7A8460025E9E700963B4600224021A9
:102CE0002046FFF737FF18B9202384F8413005E06C
:102CF000202384F84130032000E0022002B0BDE828
:102D0000F0810120FAE72DE9F04182B01E4690F8EB
:102D10004230DBB2202B59D104460D4690460029A3
:102D200058D00AB9012052E000234364222280F8DF
:102D300042200363FEF71EFD0746A4F82C80A4F88A
:102D40002E80A368B3F5805F02D04FF000081CE02E
:102D5000236913B14FF0000817E0A846002514E0DE
:102D6000202384F84230032031E023685B68C3F3FA
:102D7000080328F8023B03E023685B682B700135E9
:102D8000E28D92B2013A92B2E285E38D9BB2C3B179
:102D900000963B46002220212046FFF7DBFE00285C
:102DA000DED1002DE1D0A368B3F5805FE4D013B984
:102DB0002369002BE0D023685B6803F07F032B704E
:102DC000DDE7202384F84230002000E0022002B03A
:102DD000BDE8F0810120FAE708B50168CA6822F071
:102DE0004002CA60202280F8412002F029FC002025
:102DF00008BD7047704708B5806B0023C385C38446
:102E0000FFF7F8FF08BD704790F84230DBB2222B85
:102E100069D18368B3F5805F4FD0826AB3F5805F74
:102E200004D0002B56D10369002B53D103685B6893
:102E30001370836A01338362C38D9BB2013B9BB2E3
:102E4000C385002B51D100B583B00268D36823F04D
:102E50002003D3600268D36823F48073D3600268D0
:102E6000536923F001035361202380F8423000238B
:102E70004363036B012B33D100230363026802F128
:102E80000C0353E8003F23F010030C3242E80031FA
:102E90000029F3D103681A6812F0100F06D000223F
:102EA00001921A6801925B680193019B818DFFF783
:102EB000AAFF002003B05DF804FB0269002AACD130
:102EC000826A03685B68C3F308031380836A023372
:102ED0008362B1E703685B6803F07F031370A8E7C0
:102EE000FFF787FFE5E702207047002070470000EA
:102EF00010B582B0044602681368D068516913F0B7
:102F00000F0F09D113F0200F0CD010F0200F09D0B3
:102F10002046FFF779FF16E011F0010115D110F4FA
:102F2000907F12D1216B012979D013F0800F03D04B
:102F300010F0800F40F0148113F0400F03D010F018
:102F4000400F40F0118102B010BD13F0010F06D008
:102F500010F4807F03D0626C42F00102626413F0CF
:102F6000040F04D019B1626C42F00202626413F0E3
:102F7000020F04D019B1626C42F00402626413F0D3
:102F8000080F07D010F0200F00D119B1626C42F089
:102F900008026264626C002AD5D013F0200F02D0C0
:102FA00010F0200F29D123685B6903F04003626CA5
:102FB00012F0080F00D163B32046FFF7E5FC236849
:102FC0005B6913F0400F20D0226802F1140353E82C
:102FD000003F23F04003143242E800310029F3D1CE
:102FE000E36B73B1624A1A65E06BFEF791FC00284F
:102FF000A9D0E06B036D9847A5E72046FFF704FFD3
:10300000D1E72046FFF7F6FE9DE72046FFF7F2FEE8
:1030100099E72046FFF7EEFE0023636493E713F081
:10302000100F82D010F0100F3FF47FAF00230193F8
:103030001368019353680193019B536913F0400F88
:1030400052D0E26B13685B689BB2002B3FF47BAFFE
:10305000A18D99427FF677AFE385D369B3F5807F81
:1030600037D0226802F10C0353E8003F23F4807349
:103070000C3242E800310029F3D1226802F1140336
:1030800053E8003F23F00103143242E800310029E5
:10309000F3D1226802F1140353E8003F23F0400308
:1030A000143242E800310029F3D1202384F8423061
:1030B00000232363226802F10C0353E8003F23F04E
:1030C00010030C3242E800310029F3D1E06BFEF727
:1030D000D5FB02236363A18DE38D9BB2C91A89B22C
:1030E0002046FFF790FE2EE7A18DE38D9BB2C91A13
:1030F00089B2E38D9BB2002B3FF425AF00293FF44A
:1031000022AF226802F10C0353E8003F23F49073CE
:103110000C3242E800300028F3D1226802F1140397
:1031200053E8003F23F00103143242E80030002846
:10313000F3D1202384F8423000232363226802F174
:103140000C0353E8003F23F010030C3242E8003038
:103150000028F3D1022363632046FFF754FEF2E612
:103160002046FFF73FFCEEE62046FFF735FEEAE695
:10317000F72D0008DFF834D0FEF7A6FA0C480D4909
:103180000D4A002302E0D458C4500433C4188C42C2
:10319000F9D30A4A0A4C002301E013600432A24228
:1031A000FBD3FDF757FDFEF73DF870470000022006
:1031B000000000203401002038C800083801002039
:1031C000AC080020FEE700002DE9F04F89B005466D
:1031D0000E4693461F46DDF8488000F1180393E839
:1031E00003008DE8030005F110030CCB284605F021
:1031F000A0F8002859D1002F5FDBB8F1000F04D0F0
:10320000D8F80C300133C8F80C30002E5ED0337F74
:1032100033B9336A726A13EB0B039B4642EB070721
:10322000CDF808B0039705F1180393E803008DE883
:10323000030005F110030CCB04A804F07DFED6F8C2
:103240002890D6F82CA0284605F08AF80446C0F845
:103250001C80866196F83030002B3CD1B9F1010F0B
:103260007AF1000342DB337F002B4AD1B76BF26B5C
:10327000B2F1004F08BF002F43D017EB090742EB14
:103280000A09049BBB42059B73EB090339DA96F8E4
:103290004830012B00F09180022B00F097800497BA
:1032A000CDF81490002306932BE0404605F0A4FED1
:1032B0005F4806F005FD002051E05A463B465D4858
:1032C00006F0FEFC4FF0000B5F4696E7404605F027
:1032D00093FE002043E004F085FE10EB0B0047EB6B
:1032E00001070490059700230693B7E708AB13E99D
:1032F0000F0084E80F002146286B06F010FC002820
:103300003CD105F110030FCB8DE80F0008AB13E99A
:103310000F0004F0EEFD10B9069B0133069304AFD5
:1033200097E80F0084E80F0008AB13E903008DE86D
:10333000030097E80C00284604F0FBFF00286BD13F
:10334000383608AB13E90F0086E80F002146286BDA
:1033500006F0E1FBE86D431CEB65002B65DB09B073
:10336000BDE8F08F069B0133069308AB13E90F000D
:1033700084E80F002146286B06F0D1FB0028F1D12C
:1033800008AB13E903008DE8030004AB0CCB28461F
:1033900004F0CFFF28B12146284605F099F8002017
:1033A000DDE7383608AB13E90F0086E80F00214649
:1033B000286B06F0B0FB0020D1E7404605F01CFE6C
:1033C0002146284605F084F80020C8E7284604F086
:1033D000C7FF8246866106F138030FCB8AE80F00EB
:1033E0005146286B06F09BFB60B1414605F032F96F
:1033F0002146284605F06CF85146284605F068F845
:103400000020ACE75146284605F062F80497CDF855
:1034100014900023069374E7404605F0EDFD214625
:10342000284605F055F8002099E70123EB6596E75B
:103430005CBC000884BC0008836D9A6A014B1A606A
:10344000704700BFF002002010B483B0D0F8B44041
:103450000094D0F8B8300193002307E054F82320FB
:10346000916A054A02EB830211600133062BF5DDF8
:1034700003B05DF8044B7047F4020020F0B589B04A
:103480000024039404940594069407940094244B18
:103490001A6B42F001021A631A6B02F001020092E9
:1034A000009A01941A6B42F002021A631A6B02F03E
:1034B00002020192019A02941A6B42F080021A638E
:1034C0001B6B03F080030293029B164E22460321DE
:1034D0003046FEF728FB0325039501270497059442
:1034E000069403A93046FEF727FAA6F5E0562246D1
:1034F0004FF400413046FEF716FB4FF400430393B0
:1035000004970594069403A93046FEF715FA03952F
:103510000494059403A90448FEF70EFA09B0F0BD1F
:1035200000380240001C02400008024008B50A486A
:103530000A4B03604FF4E133436000238360C360B0
:1035400003610C2242618361C361FFF746FB00B94E
:1035500008BD07F057F8FBE7BC030020004C004013
:1035600008B50A480A4B03604FF4E1334360002377
:103570008360C36003610C2242618361C361FFF712
:103580002CFB00B908BD07F03DF8FBE774030020F1
:103590000050004008B50A480A4B03604FF4E1337D
:1035A000436000238360C36003610C224261836136
:1035B000C361FFF712FB00B908BD07F023F8FBE772
:1035C0002C0300200014014008B5FFF757FFFFF758
:1035D000ADFFFFF7C5FFFFF7DDFF08BDF0B585B014
:1035E000D0F81C710097D0F820310193D0F82461F5
:1035F0000296D0F828310393002400E00134062C11
:1036000023DCA50057F82430002283F8282057F83F
:10361000240005F0D9FE57F82400C3681BB101222D
:10362000816A05F014FD7259094B03EB84031B6892
:103630009362705905F0C8FE7059C368002BDDD045
:103640000122816A05F003FDD8E705B0F0BD00BF97
:10365000F402002030B583B0D0F82C510095D0F89A
:1036600030310193002400E00134062C14DC55F8BD
:1036700024200A4B03EB84031B68936255F8240053
:1036800005F0A2FE55F82400C368002BECD00122FF
:10369000816A05F0DCFCE7E703B030BD10030020D1
:1036A000134B1B68E3B97047124A02EB83020021F7
:1036B00011600133062BF7DD012385F828302846F9
:1036C00005F082FEEB6823B10122A96A284605F0C5
:1036D000BEFCA66101232377074807F01BFF70BDDE
:1036E00070B5044600F1240500F5AA660023E1E761
:1036F000F002002010030020CCBC000870B584B09C
:103700000646D0F81C510095D0F820310193D0F82E
:1037100024410294D0F828310393016A784807F0D5
:1037200091FE02217748FEF704FA336A002B67D135
:10373000012333622368744A9A62206805F044FECC
:103740002068C3681BB10122816A05F080FC6368B0
:103750006D4A9A62606805F037FE6068C3681BB105
:103760000122816A05F073FCA368674A9A62A06827
:1037700005F02AFEA068C3681BB10122816A05F02A
:1037800066FCE368604A9A62E06805F01DFEE06846
:10379000C3681BB10122816A05F059FC23695A4AAA
:1037A0009A62206905F010FE2069C3681BB10122EE
:1037B000816A05F04CFC6369534A9A62606905F0BE
:1037C00003FE6069C3681BB10122816A05F03FFCFA
:1037D000A3694E4A9A62A06905F0F6FDA069C36824
:1037E0001BB10122816A05F032FC494B00221A60AC
:1037F0005A609A60DA601A615A619A61002467E03F
:10380000002333622368404A9A62206805F0DCFD99
:103810002068C3681BB10122816A05F018FC636847
:10382000394A9A62606805F0CFFD6068C3681BB1D1
:103830000122816A05F00BFCA368334A9A62A068F2
:1038400005F0C2FDA068C3681BB10122816A05F0C2
:10385000FEFBE3682C4A9A62E06805F0B5FDE0687B
:10386000C3681BB10122816A05F0F1FB2369264A76
:103870009A62206905F0A8FD2069C3681BB1012286
:10388000816A05F0E4FB63691F4A9A62606905F08A
:103890009BFD6069C3681BB10122816A05F0D7FBFB
:1038A000A3691A4A9A62A06905F08EFDA069C368EF
:1038B0001BB10122816A05F0CAFB154B154A1A603B
:1038C0005A609A60DA601A615A619A6196E7013427
:1038D000062C12DC55F82430002283F8282055F8F5
:1038E000240005F071FD55F82400C368002BEED0CC
:1038F0000122816A05F0ABFBE9E704B070BD00BFAF
:10390000E8BC0008001C02400000C8420000204142
:10391000100300200000C040F8B54FF4AD6004F083
:103920007FFC6FF001040465C0F8184100F5FC71DC
:10393000024642F8B01F42679FED7B7B80ED267BFD
:103940000022C0F8A0200121816700F51675C0F89B
:10395000105100F58875C0F8D45080ED3E7BC0F85A
:103960000021C0F8D810C0F83441C0F84021724C92
:10397000C0F83841C0F83C01C0F87C21C0F8802173
:103980006E4CC0F88C41C0F89021C0F8A0116C4D6D
:10399000C0F89851C0F89C01C0F8DC21C0F8E021C3
:1039A000C0F8EC4100F5A765C0F8F0510226C0F858
:1039B0000062644FC0F8F871C0F8FC01C0F83C2206
:1039C000C0F84022C0F84C42C0F850520327C0F85B
:1039D00060725D4FC0F85872C0F85C02C0F89C225B
:1039E000C0F8A022C0F8AC42C0F8B0520427C0F81A
:1039F000C072564FC0F8B872C0F8BC02C0F8FC22C2
:103A0000C0F80023C0F80C43C0F810530527C0F8D5
:103A100020734F4FC0F81873C0F81C03C0F85C2324
:103A2000C0F86023C0F86C4300F5AA67C0F8707353
:103A30000627C0F88073474FC0F87873C0F87C033E
:103A4000C0F8BC23C0F8C023C0F8CC43C0F8D023D2
:103A500000F5826484ED007BC0F8182400F52E7414
:103A6000C0F8284400F55E74C0F82C4400F5856465
:103A7000C0F8EC43C0F8F06380F8F41300F58E64EE
:103A800004ED027BC0F8702400F54674C0F8804451
:103A900000F59064C0F84444C0F8481480F84C1411
:103AA00000F5986484ED007BC0F8C82400F5CC7460
:103AB000C0F8D84400F59B64C0F89C44C0F8A0143A
:103AC00080F8A41400F59C74C0F8304500F5A46497
:103AD00004ED027BC0F8202500F5A664C0F8F4448C
:103AE000C0F8F81480F8FC2400F10C01C0F8381577
:103AF000194CC0F83C4500F5A8649FED0D7B84EDA2
:103B0000007B80F84825C0F850151449C0F85415BA
:103B100000F5AC6101ED027B80F86025C2600561B3
:103B2000456182610277F8BD00000000000000805E
:103B30000000000000000000C9350008FCBC0008BF
:103B4000A13600083934000849340008DD35000882
:103B5000FD3600085536000800BD000808BD000805
:103B600008B54FF0FF33012202490348FFF765F81B
:103B700008BD00BFB00000208C04002008B50A4832
:103B80000A4B03604FF46123436000238360C360EA
:103B900003610C2242618361C361FFF71EF800B923
:103BA00008BD06F02FFDFBE78C0400200048004014
:103BB00030B587B0002401940294039404940594D2
:103BC0000094134B1A6B42F002021A631B6B03F052
:103BD00002030093009B0F4D22464FF400412846FC
:103BE000FDF7A1FF4FF400430193012302930394D7
:103BF000049401A92846FDF79FFE04230193029433
:103C000003940DEB03010448FDF796FE07B030BDA9
:103C100000380240000002400008024010B5FFF7E3
:103C2000ADFFFFF7C5FF084C4FF0FF3301220749F6
:103C30002046FFF702F84FF0FF33012204492046E7
:103C4000FEF7FBFF10BD00BF8C040020B000002079
:103C5000A800002010B582B08DF80700164C4FF078
:103C6000FF3301220DF107012046FEF7E6FF4FF07A
:103C7000FF33312211492046FFF745F8002117E0B4
:103C8000C1EBC1020D48835C02F1010C10F80CC0BD
:103C900003EB0C2302F1020C10F80CC003EB0C43F5
:103CA0000332825C03EB0263054A42F821300131A2
:103CB0000629E5DD02B010BD8C040020240400209C
:103CC000080400202DE9F041456E076FFDF752FD15
:103CD0000646514B1878FFF7BDFF002404E04F4B18
:103CE0001B68632B2BDC0134062C38DC4C4BD3EDEA
:103CF000007A77EEA77A4B4B03EB840393ED007ABF
:103D0000B8EEC77A4FEA8408474B03EB840393ED80
:103D1000006AC7EE066A57F8243067EEA67AC3ED4C
:103D20000A7A57F8240005F04FFB57F82400C368BF
:103D3000002BD4D00122816A05F089F9CFE757F82A
:103D40000830D3ED0A7A9FED397A67EE877AFDEE77
:103D5000E77A17EE901A364807F074FBC3E72E4B4C
:103D60005878FFF777FF002404E02C4B1B68632B87
:103D70002ADC0134062C36DC294BD3ED007A77EEB1
:103D8000A77A284B03EB840393ED007AB8EEC77A49
:103D9000A700284B03EB840393ED006AC7EE066A85
:103DA00055F8243067EEA67AC3ED0A7A55F8240058
:103DB00005F00AFB55F82400C368002BD5D001227A
:103DC000816A05F044F9D0E7EB59D3ED0A7A9FED0B
:103DD000177A67EE877AFDEEE77A17EE901A1448A5
:103DE00007F030FBC5E7FDF7C5FC0C4B1B68632BE8
:103DF00008DC0A4B1B68632B0CDC0133074A136099
:103E0000BDE8F081811B0C4807F01CFB0B4807F054
:103E100081FBEEE70023F1E7A400002088040020E6
:103E200068000020080400206C0000200000C84248
:103E30000CBD00088800002014BD00081CBD00084F
:103E400010B504211548FDF767FE044602464FF4FD
:103E500000411348FDF767FE84B1124B1B6813B194
:103E6000104B1C6010BD4FF0FF3301220E490F486C
:103E7000FEF7E3FE0E4807F04DFBF1E7094B1B6828
:103E8000002BEDD04FF0FF3301220A490748FEF71F
:103E9000D4FE094807F03EFBE2E700BF00080240FD
:103EA0000000024004040020AC0000208C0400202C
:103EB00020BD0008A800002034BD0008000000005C
:103EC00038B54FF4567004F0ABF900F1300282625D
:103ED00040650022C0F8802041498167C067C0F872
:103EE000BC20C0F8C0203F4CC0F8CC40C0F8D02067
:103EF0000121C0F8E0103C4DC0F8D850C0F8DC00FB
:103F0000C0F81C21C0F82021C0F82C41C0F8302195
:103F10000225C0F84051354DC0F83851C0F83C0179
:103F2000C0F87C21C0F88021C0F88C41C0F89021F5
:103F30000325C0F8A0512E4DC0F89851C0F89C013F
:103F4000C0F8DC21C0F8E021C0F8EC41C0F8F02155
:103F50009FED217B80ED8C7BC0F8382200F59C74AE
:103F6000C0F8484200F51274C0F80C42C0F81012B4
:103F700080F8141280EDA27BC0F8902200F5CC747A
:103F8000C0F8A04200F52874C0F86442C0F8681276
:103F900080F86C1200F17804C0F8F84280EDB87B2C
:103FA000C0F8E82200F53E74C0F8BC42C0F8C01268
:103FB00080F8C42280EDCE7BC0F8402300F1D80207
:103FC000C0F8502300F55472C0F81423C0F8181339
:103FD000C0F8001338BD00BF0000000000000080E2
:103FE0001D3C0008FCBC0008613B0008C53C000803
:103FF000413E0008F0B482B0D0F8B871D0F8206229
:10400000D0F88852D0F8F042D0F85813D0F8C02336
:10401000036B0193D0F85031D3F828C0019BC3F84B
:1040200000C0036BD7F828C0C3F804C0036BD6F8F0
:1040300028C0C3F808C0036BD5F828C0C3F80CC06B
:10404000036BD4F828C0C3F810C0036B896A5961A8
:10405000036B926A9A6102B0F0BC704730B4456B52
:10406000C46E00230DE055F82310826A91F82810E1
:10407000D15454F82310C26A02EB8302896A11609A
:104080000133062BEFDD30BC70472DE9F04F89B0CE
:10409000044600F2244BCDF804B000F58A6ACDF84E
:1040A00008A000F27C49CDF80C9000F59568CDF899
:1040B000108000F2D447059700F5A066069600F23E
:1040C0002C550795836A1B78002B00F08180036BC9
:1040D0001B68CBF82830584605F076F9DBF80C3031
:1040E0002BB10122DBF82810584604F0B0FFA36A78
:1040F0005B78002B6FD0236B5B68CAF82830504682
:1041000005F062F9DAF80C302BB10122DAF8281048
:10411000504604F09CFFA36A9B78002B5ED0236B73
:104120009B68C9F82830484605F04EF9D9F80C309C
:104130002BB10122D9F82810484604F088FFA36A61
:10414000DB78002B4DD0236BDB68C8F82830404665
:1041500005F03AF9D8F80C302BB10122D8F8281024
:10416000404604F074FFA36A1B79002B3CD0236BFC
:104170001B69BB62384605F027F9FB6823B10122B1
:10418000B96A384604F063FFA36A5B79002B2ED02E
:10419000236B5B69B362304605F016F9F36823B10F
:1041A0000122B16A304604F052FFA36A9B790BB337
:1041B000236B9B69AB62284605F006F9EB6823B1D7
:1041C0000122A96A284604F042FF09B0BDE8F08F39
:1041D000C36A1B687DE7E36A5B688EE7E36A9B68F6
:1041E0009FE7E36ADB68B0E7E36A1B69C1E7E36A5C
:1041F0005B69CFE7E36A9B69DCE700000000000031
:1042000070B540F6780004F00BF80066C0F898002E
:10421000C0F8D000C0F80801C0F840016FF00104F8
:10422000C0F8B04100F5AC65C0F8A85100F5D472F3
:10423000C0F86C219FED707B80ED647B0022C0F89C
:1042400098210121C0F87011C0F81842C0F810522E
:1042500000F50476C0F8D46180ED7E7BC0F80022C2
:10426000C0F8D811C0F88042C0F8785200F51E7628
:10427000C0F83C6280ED987BC0F86822C0F840121C
:10428000C0F8E842C0F8E05200F53876C0F8A46201
:1042900080EDB27BC0F8D022C0F8A812C0F850431D
:1042A000C0F8485300F55276C0F80C6380EDCC7B23
:1042B000C0F83823C0F81013C0F8B843C0F8B053A2
:1042C00000F56C76C0F8746380EDE67BC0F8A0233F
:1042D000C0F87813C0F82044C0F8185400F583657E
:1042E000C0F8DC5300F5806585ED007BC0F808243C
:1042F000C0F8E013C0F85845C0F86825404CC0F835
:104300006045C0F86405C0F8A425C0F8A8253D4C58
:10431000C0F8B445C0F8B825C0F8C8153A4DC0F883
:10432000C055C0F8C405C0F80426C0F80826C0F877
:104330001446C0F818260225C0F82856334DC0F898
:104340002056C0F82406C0F86426C0F86826C0F8D5
:104350007446C0F8782600F5D86404ED027BC0F8F6
:10436000C02600F5C464C0F8D04600F5DA64C0F891
:104370009446C0F8981680F89C1600F5E26484ED27
:10438000007BC0F8182700F5B864C0F8284700F58E
:10439000E565C0F8EC56C0F8F016C0F8D81600F580
:1043A000EE6505ED027BC0F87027C0F8804700F588
:1043B000F064C0F84447C0F848170421C0F830172B
:1043C00000F5F86484ED007BC0F8C827C0F88817B2
:1043D00000F5016484ED007BC0F81828C0F8D817F8
:1043E00000F5066484ED007BC0F86828C0F8281842
:1043F00070BD00BFAFF3008000000000000000802F
:10440000F53F0008FCBC00085D4000088B40000838
:104410008842A8BF084670478842B8BF0846704720
:1044200010B507EE900A0C46F5EEC07AF1EE10FAE0
:1044300023D4FDEEE77A17EE901A0220FFF7ECFF87
:104440004FF47A7303FB00F307EE903A1E4B03EB35
:10445000840393ED007AF8EEE77A67EE877ADFED72
:104460001B6A87EEA67A1A4B53F82410FDEEC77A22
:1044700017EE900AFFF7CCFF10BDF1EE677AFDEE64
:10448000E77A17EE901A0220FFF7C6FF4FF47A730F
:1044900003FB00F307EE903A0B4B03EB840393ED21
:1044A000007AF8EEE77A67EE877ADFED086A87EE42
:1044B000A67A074B53F82410FDEEC77A17EE900A40
:1044C000FFF7A6FFD8E700BFB40000200000C842F5
:1044D000D000002000B58FB000230A930B930C93FB
:1044E0000D93089309930193029303930493059307
:1044F000069307932F48304A0260436083604FF46D
:104500007A72C26003618361FDF7DCFF002839D154
:104510004FF480530A930AA92648FEF7DEF80028D4
:1045200033D12448FDF7FAFF002831D10023089346
:10453000099308A91F48FEF7E1F960BB60230193C6
:10454000002202920392059201A91A48FEF74AF846
:1045500020BB04220DEB02011648FEF743F800BB16
:10456000082201A91348FEF73DF8E8B90C2201A979
:104570001048FEF737F8D0B90E48FCF7A7FE0FB089
:104580005DF804FB06F03EF8C2E706F03BF8C8E72A
:1045900006F038F8CAE706F035F8CFE706F032F84B
:1045A000D7E706F02FF8DBE706F02CF8DEE706F099
:1045B00029F8E1E71C0500200004004000B58FB099
:1045C00000230A930B930C930D9308930993019383
:1045D0000293039304930593069307932A482B4A67
:1045E0000260436083604FF47A72C260036183614A
:1045F000FDF768FF002831D14FF480530A930AA9D0
:104600002148FEF76AF860BB1F48FDF787FF58BBDB
:1046100000230893099308A91B48FEF76FF930BBE4
:1046200060230193002202920392059201A9164889
:10463000FDF7D8FFF0B904220DEB02011248FDF797
:10464000D1FFD0B9082201A90F48FDF7CBFFB8B9B7
:104650000D48FCF73BFE0FB05DF804FB05F0D2FF00
:10466000CAE705F0CFFFCFE705F0CCFFD0E705F0B4
:10467000C9FFD5E705F0C6FFDDE705F0C3FFE1E7B9
:1046800005F0C0FFE4E700BFD404002000080040AC
:104690002DE9F04188B00024039404940594069415
:1046A00007940194314B1A6B42F002021A631A6BA1
:1046B00002F002020192019A02941A6B42F0040283
:1046C0001A631B6B03F004030293029B284E2246DD
:1046D00030213046FDF727FA302303930125049556
:1046E0004FF00208CDF81480069403A93046FDF778
:1046F00023F906F5806622464FF20E613046FDF73B
:1047000012FA4FF20E6303930495CDF814800694C9
:1047100003A93046FDF710F9164F22464EF230013C
:104720003846FDF700FA4EF2300303930495CDF8B6
:104730001480069403A93846FDF7FEF80823039376
:104740000494059403A93846FDF7F6F82246294655
:104750003046FDF7E8F9039504950594069403A9FE
:104760003046FDF7E9F808B0BDE8F08100380240B6
:10477000000002400008024030B585B000240194DA
:10478000354B1A6B42F001021A631A6B02F00102F8
:104790000192019A02941A6B42F002021A631A6B98
:1047A00002F002020292029A03941A6B42F004028F
:1047B0001A631B6B03F004030393039BFFF78AFE4A
:1047C000FFF7FCFEFFF764FF244D22460221284636
:1047D000FDF7A9F9224604212846FDF7A4F922464F
:1047E00008212846FDF79FF922464FF4007128461C
:1047F000FDF799F922464FF480612846FDF793F9B9
:1048000022464FF480512846FDF78DF922464FF499
:1048100000512846FDF787F9114D21462846FDF73E
:10482000EBFF04212846FDF7E7FF08212846FDF7A6
:10483000E3FF0C212846FDF7DFFF0A4D21462846FD
:10484000FDF7DAFF04212846FDF7D6FF08212846A8
:10485000FDF7D2FF05B030BD003802400004024031
:104860001C050020D40400202DE9F84FD0F820A02A
:10487000476DD0F88860D0F8BC90D0F8F080D0F8C0
:104880002451D0F858B1DAED0A7AF5EEC07AF1EE9B
:1048900010FAC04CACBF012200224FF40051204658
:1048A000FDF741F9D7ED0A7AF5EEC07AF1EE10FA8C
:1048B000ACBF012200224FF480412046FDF733F9BE
:1048C000D6ED0A7AF5EEC07AF1EE10FAACBF01220D
:1048D00000224FF400412046FDF725F9D7ED0A7A72
:1048E000F5EEC07AF1EE10FAACBF012200222021D1
:1048F000A948FDF718F9D6ED0A7AF5EEC07AF1EE7F
:1049000010FAACBF012200221021A348FDF70BF9D9
:10491000D9ED0A7AF5EEC07AF1EE10FAACBF0122B9
:10492000002210212046FDF7FEF8D8ED0A7AF5EEB8
:10493000C07AF1EE10FAACBF0122002220212046FD
:10494000FDF7F1F8D5ED0A7AF5EEC07AF1EE10FA3E
:10495000ACBF012200224FF400419048FDF7E3F87C
:10496000D5ED0A7AF5EEC07AF1EE10FAACBF01226D
:1049700000224FF480418948FDF7D5F808212046F0
:10498000FDF7CAF8002840F0E48000242246012107
:104990008248FDF7C8F8DAED0A7A9FED817AF4EEE5
:1049A000C77AF1EE10FA07DC9FED7E7AF4EEC77A53
:1049B000F1EE10FA40F1D680002C40F0D5800022B4
:1049C000D2B202217548FDF7AEF8D7ED0A7A9FED15
:1049D000747AF4EEC77AF1EE10FA07DC9FED717A83
:1049E000F4EEC77AF1EE10FA40F1C080002C40F0EE
:1049F000BF800022D2B204216848FDF794F8D6EDBA
:104A00000A7A9FED677AF4EEC77AF1EE10FA07DCC6
:104A10009FED647AF4EEC77AF1EE10FA40F1AA80C5
:104A2000002C40F0A9800022D2B208215B48FDF79B
:104A30007AF8D9ED0A7A9FED5A7AF4EEC77AF1EE58
:104A400010FA07DC9FED577AF4EEC77AF1EE10FA10
:104A500040F19480002C40F093800022D2B24FF4B9
:104A600000714E48FDF75FF8D8ED0A7A9FED4C7A59
:104A7000F4EEC77AF1EE10FA06DC9FED4A7AF4EE16
:104A8000C77AF1EE10FA7DD5002C7DD10022D2B28A
:104A90004FF480614148FDF746F8D5ED0A7A9FED65
:104AA000407AF4EEC77AF1EE10FA06DC9FED3D7A1B
:104AB000F4EEC77AF1EE10FA68D5002C68D1002226
:104AC000D2B24FF480513548FDF72DF8DBED0A7A6C
:104AD0009FED337AF4EEC77AF1EE10FA07DC9FED22
:104AE000317AF4EEC77AF1EE10FA00D400242246AF
:104AF0004FF400512948FDF716F80021DAF8280094
:104B0000FFF78EFC284C60630121B86AFFF788FC30
:104B1000A0630221B06AFFF783FCE0630321D9F8A8
:104B20002800FFF77DFC20640421D8F82800FFF757
:104B300077FC04F5806460630521A86AFFF770FCC8
:104B4000A0630621DBF82800FFF76AFCE063BDE8FC
:104B5000F88F04212046FCF7DFFF08B9012415E790
:104B6000002413E700222BE7224629E7002241E731
:104B700022463FE7002257E7224655E700226DE72D
:104B800022466BE7002282E7224680E7002297E771
:104B9000224695E70008024000000240000402405F
:104BA0008FC2753D8FC275BD00040040000000003B
:104BB00070B54FF4A26003F033FB00F128020262EB
:104BC000C06400F15C024265C0F8800000F1900210
:104BD000C0F88820C0F8B40000F1C402C0F8BC20BE
:104BE000C0F8E80000F1F802C0F8F020C0F81C019D
:104BF00000F59672C0F82421C0F8500100F5B0729B
:104C0000C0F85821C0F884010022C0F8982150490A
:104C1000C0F89011C0F89401C0F8D421C0F8D82190
:104C20004C4CC0F8E441C0F8E8210121C0F8F8116B
:104C3000494DC0F8F051C0F8F401C0F83422C0F872
:104C40003822C0F84442C0F8482200F5C874C0F8C1
:104C5000A0429FED3D7B80EDA27BC0F8902200F545
:104C60002874C0F86442C0F8681280F86C2280EDA5
:104C7000B87BC0F8E82200F5F875C0F8F85200F5E6
:104C80003E74C0F8BC42C0F8C0120424C0F8A84268
:104C900080EDCE7BC0F84023C0F8505300F5547629
:104CA000C0F81463C0F81813C0F8004380EDE47B2B
:104CB000C0F89823C0F8A85300F56A76C0F86C6372
:104CC000C0F87013C0F8584380EDFA7BC0F8F023A9
:104CD000C0F8005400F58066C0F8C463C0F8C8137B
:104CE000C0F8B04300F5886686ED007BC0F8482424
:104CF000C0F8585400F58B66C0F81C64C0F8201446
:104D0000C0F8084400F5946606ED027BC0F8A024C4
:104D1000C0F8B05400F59666C0F87464C0F8781412
:104D2000C0F8604400F59E6C8CED007BC0F8F82460
:104D3000C0F8085500F5A162C0F8CC24C0F8D01422
:104D4000C0F8B84470BD00BF000000000000008043
:104D500079470008FCBC0008694800082DE9F843C1
:104D60002DED028B0446D0F8A890076C00F1DC080A
:104D7000806803F027F905460E46206B616B281A00
:104D800099ED0A8AD7ED0A7A38EE678A94ED0B7AA4
:104D900077EEC78A66EB0101FBF72EFD07EE900A5E
:104DA000C8EEA76AD4ED0E7A94ED0F7A67EE877A93
:104DB00077EE887AC4ED0F7AD4ED087A67EE887AB8
:104DC00094ED0A7A27EE267A77EE877A9FED147AA9
:104DD000F4EEC77AF1EE10FA09DC9FED127AF4EEE8
:104DE000C77AF1EE10FA04D5DFED0E7A01E0DFEDBF
:104DF0000C7AC4ED417A404604F0E6FAD4F8E83083
:104E00002BB10122D4F80411404604F020F9BB6A0A
:104E1000E36225636663BDEC028BBDE8F88300BFE7
:104E20000000C8420000C8C238B54FF41C7003F03F
:104E3000F7F900F148020264C06600F17C024267A3
:104E4000C0F8A00000F1B002C0F8A820C0F8D4005B
:104E50000022C0F818211E49C0F81011C0F8140132
:104E6000C0F85421C0F858211A49C0F86411C0F89C
:104E700068219FED157B80ED6A7BC0F8B02100F5BD
:104E80008875C0F8C05100F5E071C0F884110124A4
:104E9000C0F888410421C0F8701180ED807BC0F813
:104EA0000822C0F8C81180ED947BC0F85822C0F8E1
:104EB000685200F51A72C0F82C22C0F83042C0F8CF
:104EC000181238BDAFF30080000000000000008021
:104ED0005D4D0008FCBC000838B507EE100A07EE6F
:104EE000901A77EE677A17EE900AFBF7D5FA044628
:104EF0000D460DA3D3E90023FBF7A4FB48B90CA38F
:104F0000D3E9002320462946FBF77EFB18B104486D
:104F100000E0044838BD0020FCE700BFAFF300808C
:104F20000000A0400000A0C07B14AE47E17A843F9F
:104F30007B14AE47E17A84BF38B5144D4021284632
:104F4000FCF7EAFD124CA06080212846FCF7E4FD46
:104F5000E0604FF480712846FCF7DEFD20614FF4DD
:104F600000612846FCF7D8FD60614FF48051284667
:104F7000FCF7D2FDA061074B1B68132B03DC013348
:104F8000044A136038BD0023FAE700BF0000024066
:104F900078050020740500202DE9F0410646046CD8
:104FA000D0F8B85000F1BC07B04B1B68002B40F0A4
:104FB0003681AF4B1B68062B00F22681DFE813F029
:104FC00007002B004F008A00AC00DD001D01836A42
:104FD00000221A60836AA74A5A61836A4FF08142AD
:104FE0001A61A54BDB68012B40F025816369D3ED85
:104FF0000A7AA24BC3ED007A9FEDA17A67EE877A19
:10500000FDEEE77A17EE901A9E4806F01BFA984BD1
:1050100001221A600FE1836A00221A60836A4FF04E
:1050200081425A61836A934A1A61934B1B69012B2F
:1050300040F001812369D3ED0A7A934BC3ED007AE6
:105040009FED8F7A67EE877AFDEEE77A17EE901A7A
:105050008E4806F0F7F9864B02221A60EBE0836A6D
:1050600000221A60636993ED0A7AD0F82880834B96
:10507000D3ED007A864977EE677A17EE900AFFF74C
:105080002BFFC8F81400236993ED0A7AB46A7E4BAB
:10509000D3ED007A7F4977EE677A17EE900AFFF733
:1050A0001BFF2061B36AD3ED057AF5EE407AF1EE8D
:1050B00010FA40F0C080D3ED047AF5EE407AF1EEBC
:1050C00010FA40F0B880744806F024FA684B0322C6
:1050D0001A60B0E0836A674A1A60826A00235361EB
:1050E000826A1361644B5B69012B40F0A4802368E2
:1050F000D3ED0A7A694BC3ED007A9FED617A67EED2
:10510000877AFDEEE77A17EE901A654806F09AF96D
:10511000574B04221A608EE0236893ED0A7A846A62
:105120005E4BD3ED007A5F4977EE677A17EE900A0F
:10513000FFF7D2FE2060B26A00235361B26A1361A6
:10514000B36AD3ED007AF5EE407AF1EE10FA72D13F
:10515000D3ED057AF5EE407AF1EE10FA6BD1D3ED8E
:10516000047AF5EE407AF1EE10FA64D14E4806F07A
:10517000D1F93F4B05221A605DE0836A00221A6074
:10518000636993ED0A7AD0F828803C4BD3ED007A1E
:10519000464977EE677A17EE900AFFF79DFEC8F84A
:1051A0001400236993ED0A7AB46A374BD3ED007A81
:1051B0003F4977EE677A17EE900AFFF78DFE206180
:1051C000B36AD3ED007AF5EE407AF1EE10FA32D1FF
:1051D000D3ED057AF5EE407AF1EE10FA2BD1D3ED4E
:1051E000047AF5EE407AF1EE10FA24D1314806F057
:1051F00091F91F4B06221A601DE02F4806F08AF92C
:105200001A4B01221A6016E0826A00231360826A38
:105210005361826A1361154B01221A600BE000236F
:10522000134A136005E0B26A02EB830200211160A9
:105230000133062BF7DD002400E00134062C3DDCB1
:10524000B36A55F8242003EB84031B68936255F876
:10525000240004F0B9F855F82400C368002BECD002
:105260000122816A03F0F3FEE7E700BFEC000020B3
:10527000700500200000A0C078050020680500200F
:105280000000C84248BD0008640500206CBD00084D
:10529000F90FC93F3333B33F90BD00086C050020C0
:1052A000ACBD0008A60A0640D0BD000814AEC73F3A
:1052B0007B14AE3EECBD000808BE0008084B1B681E
:1052C000C6F8E430384604F07FF8D6F8C8302BB181
:1052D0000122D6F8E410384603F0B9FEBDE8F081AB
:1052E000EC0000200000000038B54FF4427002F0DE
:1052F00097FFC066C0F8A4000022C0F8F8202E492D
:10530000C0F8F010C0F8F400C0F83421C0F838211B
:105310002A4CC0F84441C0F848210121C0F8581176
:10532000274DC0F85051C0F85401C0F89421C0F87E
:105330009821C0F8A441C0F8A8219FED1D7B80ED05
:105340007A7BC0F8F02180F8CC1180ED8E7BC0F81C
:10535000402200F1F004C0F8504200F51474C0F887
:105360001442C0F8181280F81C1280EDA47BC0F81B
:10537000982200F5A875C0F8A85200F52A74C0F864
:105380006C42C0F870120424C0F8584280EDBA7B19
:10539000C0F8F022C0F8005300F54072C0F8C422F3
:1053A000C0F8C812C0F8B04238BD00BFAFF30080EB
:1053B0000000000000000080394F0008FCBC00081D
:1053C000994F0008036A234A1268002A41D11A68DB
:1053D00092ED0A7ADFED207A27EE277ABDEEC77AC2
:1053E0001E4A82ED007A596891ED0A7A27EE277AF3
:1053F000BDEEC77A82ED017A996891ED0A7A27EEBF
:10540000277ABDEEC77A82ED027AD96891ED0A7AE1
:1054100027EE277ABDEEC77A82ED037A196991EDFE
:105420000A7A27EE277ABDEEC77A82ED047A5969A7
:1054300091ED0A7A27EE277ABDEEC77A82ED057ADA
:105440009B6993ED0A7A67EE277AFDEEE77AC2ED63
:10545000067A70479405002000007A44C4050020B5
:1054600008B50A480A4B03604FF4612343600023E8
:105470008360C36003610C2242618361C361FDF7F5
:10548000ACFB00B908BD05F0BDF8FBE748060020FD
:105490000010014008B5034B65221A70FFF7E0FFCA
:1054A00008BD00BFE0050020104B1B6803B170472A
:1054B00010B586B00E4A0F4C936904935369039359
:1054C00013690293D3680193936800935368126839
:1054D0000949204605F0E4FD4FF0FF3382B2214632
:1054E0000648FDF7AAFB06B010BD00BF94050020DA
:1054F000C4050020E005002020BE0008480600206A
:1055000030B585B0D0F8985000230122464947486D
:10551000FDF7F9FB18B9444B1B78702B01D005B08F
:1055200030BD64230E2240494048FDF7ECFB0028C3
:10553000F5D100230BE05A0001323B498A5C11F897
:10554000131002EB01223A4921F813200133062BF4
:10555000F1DD374AB2F9003007EE103AB8EEC77AFB
:10556000DFED347AC7EE276A334BC3ED006AB2F938
:10557000021007EE101AB8EEC77AC7EE276AC3ED1D
:10558000016AB2F9041007EE101AB8EEC77A87EE76
:10559000276A83ED026AB2F9061007EE101AB8EE18
:1055A000C77A87EE276A83ED036A83ED046AC3ED49
:1055B000056AB2F90C2007EE102AB8EEC77AC7EEDA
:1055C000276AC3ED066A002400E00134062C14DCCF
:1055D00055F82420184B03EB84031B68936255F89D
:1055E000240003F0F1FE55F82400C368002BECD032
:1055F0000122816A03F02BFDE7E70D49B1F906307E
:10560000B1F90820B1F90A00B1F90C4003940290F5
:1056100001920093B1F90430B1F90220B1F9001000
:10562000064805F00FFF7AE7140600204806002020
:10563000B405002000007A449805002038BE000818
:10564000034B834200D07047024B00221A60FAE7F6
:10565000480600209405002038B54FF4747002F01D
:10566000DFFDC064C0F884000022C0F8A8204649CD
:10567000C0F8A010C0F8A400C0F8E420C0F8E820EA
:10568000424CC0F8F440C0F8F8200121C0F80811DD
:105690003F4DC0F80051C0F80401C0F84421C0F8E3
:1056A0004821C0F85441C0F858210225C0F868517B
:1056B000384DC0F86051C0F86401C0F8A421C0F8AA
:1056C000A821C0F8B441C0F8B8210325C0F8C851DA
:1056D000314DC0F8C051C0F8C401C0F80422C0F870
:1056E0000822C0F81442C0F818229FED257B80EDF7
:1056F000967BC0F8602200F5B074C0F8704200F5E7
:105700001C74C0F83442C0F8381280F83C1280EDA6
:10571000AC7BC0F8B82200F5E074C0F8C84200F5D0
:105720003274C0F88C42C0F8901280F8941200F1E4
:10573000A004C0F8204380EDC27BC0F8102300F520
:105740004874C0F8E442C0F8E81280F8EC2280ED1A
:10575000D87BC0F8682300F58074C0F8784300F562
:105760005E74C0F83C43C0F840130421C0F828130D
:1057700080EDEE7BC0F8C023C0F8801338BD00BFB9
:10578000000000000000008095540008FCBC0008E8
:10579000C5530008A95400080155000808B50021A8
:1057A000084603F033FF08BD7047000000B58BB01A
:1057B0000022089207920692012305934123049345
:1057C00003920292042301930A230093044B1B6863
:1057D0000449054803F058FD0BB05DF804FB00BF19
:1057E000EC07002054BE000840070020014B036076
:1057F00001207047400700202DE9F04F2DED068B6A
:10580000A5B0FEF789F8804623909D4E8660B36E62
:1058100000F59C721A60012303620FF23C2BDBE956
:1058200000ABC0E9FEAB00F5806396480021C3E9F8
:105830000001336E08F576721A600025C8F824540A
:1058400008F58A63C3E900AB08F58C6384A1D1E94C
:10585000000143E90201336E08F586625A60C8F818
:105860007C5408F5966380A1D1E9000143E9020167
:105870007FA1D1E90001C3E90001336E08F591620F
:105880009A6008F5A763C8F8D43400224FF00043AB
:10589000C8E95C23C8E97423C8E98C23C8E9A423B8
:1058A000C8E9BC23C8E9D423C8E9EC23D6F8803082
:1058B0005B6808F10C021A60FEF702FB04460090D8
:1058C00022908660C0E908AB0726066602462C21B6
:1058D000304602F087FCE06522460421304602F0A3
:1058E00081FC214660662B4607E0CA6D486E2C2479
:1058F00004FB032240F823200133062BF5DD0725A6
:10590000009CE56622462C21284602F06BFCA0662E
:1059100022460421284602F065FC21462067002328
:1059200007E08A6E086F2C2404FB032240F8232032
:105930000133062BF5DD6FF00103009CE362504F4D
:10594000BB6E04F178025A6000220023C4E986236A
:105950000FF2041BDBE900ABC4E988AB396E04F538
:10596000FC70C8600026C4F84462C4E99C2342A3CA
:10597000D3E90023C4E99E233B6E04F514721A6137
:10598000C4F89C6200224FF00043C4E92C23C4E910
:105990004423C4E95C23C4E97423FEF731FC0546C3
:1059A00021908760C0E908AB0720A8632A4604213C
:1059B00002F018FC6863334605E06A6B05F13C01B0
:1059C00042F823100133062BF7DD072028672A460B
:1059D000042102F007FCE866002305E0EA6E05F109
:1059E000740142F823100133062BF7DD0720C5F8B8
:1059F000A8002A46042102F0F5FBC5F8A400002304
:105A000006E0D5F8A42005F1AC0142F823100133DB
:105A1000062BF6DD0720C5F8E0002A46042102F037
:105A2000E1FBC5F8DC00002306E0D5F8DC2005F139
:105A3000E40142F823100133062BF6DD0720C5F8F8
:105A400018012A46042102F0CDFBC5F814010023F9
:105A500021E000BFAFF30080404B4C00000000008D
:105A6000009435770000000080F0FA02000000008A
:105A700000E1F50500000000002D310100000000EC
:105A80004007002080969800D5F8142105F58E7106
:105A900042F823100133062BF6DDD14BAB62D14B1C
:105AA000EB62D14B2B6305F5D4639FEDC79B83ED70
:105AB000009B05F5D663C6A1D1E9000143E90201C7
:105AC000CA4F3B6E05F5D0625A614FF00009C5F828
:105AD000CC9605F5B4639FEDC08B03ED028B05F505
